{
  "_format": "hh-sol-artifact-1",
  "contractName": "DinToken",
  "sourceName": "contracts/DinToken.sol",
  "abi": [
    {
      "inputs": [
        {
          "internalType": "address",
          "name": "admin",
          "type": "address"
        },
        {
          "internalType": "uint256",
          "name": "initialSupply",
          "type": "uint256"
        }
      ],
      "stateMutability": "nonpayable",
      "type": "constructor"
    },
    {
      "inputs": [
        {
          "internalType": "uint256",
          "name": "requestedAmount",
          "type": "uint256"
        },
        {
          "internalType": "uint256",
          "name": "availableAmount",
          "type": "uint256"
        }
      ],
      "name": "ExceedsMaxSupply",
      "type": "error"
    },
    {
      "inputs": [],
      "name": "ZeroAddress",
      "type": "error"
    },
    {
      "inputs": [],
      "name": "ZeroAmount",
      "type": "error"
    },
    {
      "anonymous": false,
      "inputs": [
        {
          "indexed": true,
          "internalType": "address",
          "name": "owner",
          "type": "address"
        },
        {
          "indexed": true,
          "internalType": "address",
          "name": "spender",
          "type": "address"
        },
        {
          "indexed": false,
          "internalType": "uint256",
          "name": "value",
          "type": "uint256"
        }
      ],
      "name": "Approval",
      "type": "event"
    },
    {
      "anonymous": false,
      "inputs": [
        {
          "indexed": false,
          "internalType": "uint256",
          "name": "totalSupply",
          "type": "uint256"
        }
      ],
      "name": "MaxSupplyReached",
      "type": "event"
    },
    {
      "anonymous": false,
      "inputs": [
        {
          "indexed": false,
          "internalType": "address",
          "name": "account",
          "type": "address"
        }
      ],
      "name": "Paused",
      "type": "event"
    },
    {
      "anonymous": false,
      "inputs": [
        {
          "indexed": true,
          "internalType": "bytes32",
          "name": "role",
          "type": "bytes32"
        },
        {
          "indexed": true,
          "internalType": "bytes32",
          "name": "previousAdminRole",
          "type": "bytes32"
        },
        {
          "indexed": true,
          "internalType": "bytes32",
          "name": "newAdminRole",
          "type": "bytes32"
        }
      ],
      "name": "RoleAdminChanged",
      "type": "event"
    },
    {
      "anonymous": false,
      "inputs": [
        {
          "indexed": true,
          "internalType": "bytes32",
          "name": "role",
          "type": "bytes32"
        },
        {
          "indexed": true,
          "internalType": "address",
          "name": "account",
          "type": "address"
        },
        {
          "indexed": true,
          "internalType": "address",
          "name": "sender",
          "type": "address"
        }
      ],
      "name": "RoleGranted",
      "type": "event"
    },
    {
      "anonymous": false,
      "inputs": [
        {
          "indexed": true,
          "internalType": "bytes32",
          "name": "role",
          "type": "bytes32"
        },
        {
          "indexed": true,
          "internalType": "address",
          "name": "account",
          "type": "address"
        },
        {
          "indexed": true,
          "internalType": "address",
          "name": "sender",
          "type": "address"
        }
      ],
      "name": "RoleRevoked",
      "type": "event"
    },
    {
      "anonymous": false,
      "inputs": [
        {
          "indexed": true,
          "internalType": "address",
          "name": "from",
          "type": "address"
        },
        {
          "indexed": false,
          "internalType": "uint256",
          "name": "amount",
          "type": "uint256"
        },
        {
          "indexed": true,
          "internalType": "address",
          "name": "burner",
          "type": "address"
        }
      ],
      "name": "TokensBurned",
      "type": "event"
    },
    {
      "anonymous": false,
      "inputs": [
        {
          "indexed": true,
          "internalType": "address",
          "name": "to",
          "type": "address"
        },
        {
          "indexed": false,
          "internalType": "uint256",
          "name": "amount",
          "type": "uint256"
        },
        {
          "indexed": true,
          "internalType": "address",
          "name": "minter",
          "type": "address"
        }
      ],
      "name": "TokensMinted",
      "type": "event"
    },
    {
      "anonymous": false,
      "inputs": [
        {
          "indexed": true,
          "internalType": "address",
          "name": "from",
          "type": "address"
        },
        {
          "indexed": true,
          "internalType": "address",
          "name": "to",
          "type": "address"
        },
        {
          "indexed": false,
          "internalType": "uint256",
          "name": "value",
          "type": "uint256"
        }
      ],
      "name": "Transfer",
      "type": "event"
    },
    {
      "anonymous": false,
      "inputs": [
        {
          "indexed": false,
          "internalType": "address",
          "name": "account",
          "type": "address"
        }
      ],
      "name": "Unpaused",
      "type": "event"
    },
    {
      "inputs": [],
      "name": "BURNER_ROLE",
      "outputs": [
        {
          "internalType": "bytes32",
          "name": "",
          "type": "bytes32"
        }
      ],
      "stateMutability": "view",
      "type": "function"
    },
    {
      "inputs": [],
      "name": "DEFAULT_ADMIN_ROLE",
      "outputs": [
        {
          "internalType": "bytes32",
          "name": "",
          "type": "bytes32"
        }
      ],
      "stateMutability": "view",
      "type": "function"
    },
    {
      "inputs": [],
      "name": "MAX_SUPPLY",
      "outputs": [
        {
          "internalType": "uint256",
          "name": "",
          "type": "uint256"
        }
      ],
      "stateMutability": "view",
      "type": "function"
    },
    {
      "inputs": [],
      "name": "MINTER_ROLE",
      "outputs": [
        {
          "internalType": "bytes32",
          "name": "",
          "type": "bytes32"
        }
      ],
      "stateMutability": "view",
      "type": "function"
    },
    {
      "inputs": [],
      "name": "PAUSER_ROLE",
      "outputs": [
        {
          "internalType": "bytes32",
          "name": "",
          "type": "bytes32"
        }
      ],
      "stateMutability": "view",
      "type": "function"
    },
    {
      "inputs": [
        {
          "internalType": "address",
          "name": "owner",
          "type": "address"
        },
        {
          "internalType": "address",
          "name": "spender",
          "type": "address"
        }
      ],
      "name": "allowance",
      "outputs": [
        {
          "internalType": "uint256",
          "name": "",
          "type": "uint256"
        }
      ],
      "stateMutability": "view",
      "type": "function"
    },
    {
      "inputs": [
        {
          "internalType": "address",
          "name": "spender",
          "type": "address"
        },
        {
          "internalType": "uint256",
          "name": "amount",
          "type": "uint256"
        }
      ],
      "name": "approve",
      "outputs": [
        {
          "internalType": "bool",
          "name": "",
          "type": "bool"
        }
      ],
      "stateMutability": "nonpayable",
      "type": "function"
    },
    {
      "inputs": [
        {
          "internalType": "address",
          "name": "account",
          "type": "address"
        }
      ],
      "name": "balanceOf",
      "outputs": [
        {
          "internalType": "uint256",
          "name": "",
          "type": "uint256"
        }
      ],
      "stateMutability": "view",
      "type": "function"
    },
    {
      "inputs": [
        {
          "internalType": "uint256",
          "name": "amount",
          "type": "uint256"
        }
      ],
      "name": "burn",
      "outputs": [],
      "stateMutability": "nonpayable",
      "type": "function"
    },
    {
      "inputs": [
        {
          "internalType": "address",
          "name": "from",
          "type": "address"
        },
        {
          "internalType": "uint256",
          "name": "amount",
          "type": "uint256"
        }
      ],
      "name": "burnFrom",
      "outputs": [],
      "stateMutability": "nonpayable",
      "type": "function"
    },
    {
      "inputs": [],
      "name": "decimals",
      "outputs": [
        {
          "internalType": "uint8",
          "name": "",
          "type": "uint8"
        }
      ],
      "stateMutability": "pure",
      "type": "function"
    },
    {
      "inputs": [
        {
          "internalType": "address",
          "name": "spender",
          "type": "address"
        },
        {
          "internalType": "uint256",
          "name": "subtractedValue",
          "type": "uint256"
        }
      ],
      "name": "decreaseAllowance",
      "outputs": [
        {
          "internalType": "bool",
          "name": "",
          "type": "bool"
        }
      ],
      "stateMutability": "nonpayable",
      "type": "function"
    },
    {
      "inputs": [
        {
          "internalType": "bytes32",
          "name": "role",
          "type": "bytes32"
        }
      ],
      "name": "getRoleAdmin",
      "outputs": [
        {
          "internalType": "bytes32",
          "name": "",
          "type": "bytes32"
        }
      ],
      "stateMutability": "view",
      "type": "function"
    },
    {
      "inputs": [
        {
          "internalType": "bytes32",
          "name": "role",
          "type": "bytes32"
        },
        {
          "internalType": "address",
          "name": "account",
          "type": "address"
        }
      ],
      "name": "grantRole",
      "outputs": [],
      "stateMutability": "nonpayable",
      "type": "function"
    },
    {
      "inputs": [
        {
          "internalType": "bytes32",
          "name": "role",
          "type": "bytes32"
        },
        {
          "internalType": "address",
          "name": "account",
          "type": "address"
        }
      ],
      "name": "hasRole",
      "outputs": [
        {
          "internalType": "bool",
          "name": "",
          "type": "bool"
        }
      ],
      "stateMutability": "view",
      "type": "function"
    },
    {
      "inputs": [
        {
          "internalType": "address",
          "name": "spender",
          "type": "address"
        },
        {
          "internalType": "uint256",
          "name": "addedValue",
          "type": "uint256"
        }
      ],
      "name": "increaseAllowance",
      "outputs": [
        {
          "internalType": "bool",
          "name": "",
          "type": "bool"
        }
      ],
      "stateMutability": "nonpayable",
      "type": "function"
    },
    {
      "inputs": [],
      "name": "isMaxSupplyReached",
      "outputs": [
        {
          "internalType": "bool",
          "name": "",
          "type": "bool"
        }
      ],
      "stateMutability": "view",
      "type": "function"
    },
    {
      "inputs": [
        {
          "internalType": "address",
          "name": "to",
          "type": "address"
        },
        {
          "internalType": "uint256",
          "name": "amount",
          "type": "uint256"
        }
      ],
      "name": "mint",
      "outputs": [],
      "stateMutability": "nonpayable",
      "type": "function"
    },
    {
      "inputs": [],
      "name": "name",
      "outputs": [
        {
          "internalType": "string",
          "name": "",
          "type": "string"
        }
      ],
      "stateMutability": "view",
      "type": "function"
    },
    {
      "inputs": [],
      "name": "pause",
      "outputs": [],
      "stateMutability": "nonpayable",
      "type": "function"
    },
    {
      "inputs": [],
      "name": "paused",
      "outputs": [
        {
          "internalType": "bool",
          "name": "",
          "type": "bool"
        }
      ],
      "stateMutability": "view",
      "type": "function"
    },
    {
      "inputs": [],
      "name": "remainingMintableSupply",
      "outputs": [
        {
          "internalType": "uint256",
          "name": "",
          "type": "uint256"
        }
      ],
      "stateMutability": "view",
      "type": "function"
    },
    {
      "inputs": [
        {
          "internalType": "bytes32",
          "name": "role",
          "type": "bytes32"
        },
        {
          "internalType": "address",
          "name": "account",
          "type": "address"
        }
      ],
      "name": "renounceRole",
      "outputs": [],
      "stateMutability": "nonpayable",
      "type": "function"
    },
    {
      "inputs": [
        {
          "internalType": "bytes32",
          "name": "role",
          "type": "bytes32"
        },
        {
          "internalType": "address",
          "name": "account",
          "type": "address"
        }
      ],
      "name": "revokeRole",
      "outputs": [],
      "stateMutability": "nonpayable",
      "type": "function"
    },
    {
      "inputs": [
        {
          "internalType": "bytes4",
          "name": "interfaceId",
          "type": "bytes4"
        }
      ],
      "name": "supportsInterface",
      "outputs": [
        {
          "internalType": "bool",
          "name": "",
          "type": "bool"
        }
      ],
      "stateMutability": "view",
      "type": "function"
    },
    {
      "inputs": [],
      "name": "symbol",
      "outputs": [
        {
          "internalType": "string",
          "name": "",
          "type": "string"
        }
      ],
      "stateMutability": "view",
      "type": "function"
    },
    {
      "inputs": [],
      "name": "totalSupply",
      "outputs": [
        {
          "internalType": "uint256",
          "name": "",
          "type": "uint256"
        }
      ],
      "stateMutability": "view",
      "type": "function"
    },
    {
      "inputs": [
        {
          "internalType": "address",
          "name": "to",
          "type": "address"
        },
        {
          "internalType": "uint256",
          "name": "amount",
          "type": "uint256"
        }
      ],
      "name": "transfer",
      "outputs": [
        {
          "internalType": "bool",
          "name": "",
          "type": "bool"
        }
      ],
      "stateMutability": "nonpayable",
      "type": "function"
    },
    {
      "inputs": [
        {
          "internalType": "address",
          "name": "from",
          "type": "address"
        },
        {
          "internalType": "address",
          "name": "to",
          "type": "address"
        },
        {
          "internalType": "uint256",
          "name": "amount",
          "type": "uint256"
        }
      ],
      "name": "transferFrom",
      "outputs": [
        {
          "internalType": "bool",
          "name": "",
          "type": "bool"
        }
      ],
      "stateMutability": "nonpayable",
      "type": "function"
    },
    {
      "inputs": [],
      "name": "unpause",
      "outputs": [],
      "stateMutability": "nonpayable",
      "type": "function"
    }
  ],
  "bytecode": "0x60803462000684576200221e90601f906001600160401b03601f1938859003848101821684019083821185831017620005865780859160409889948552833981010312620006845782516001600160a01b03811694908590036200068457602080940151926200006e62000689565b9160098352682224a7102a37b5b2b760b91b868401526200008e62000689565b90600391828152622224a760e91b888201528451848111620005865783546001968782811c9216801562000679575b8b831014620006635781858493116200060d575b508a90858311600114620005a8576000926200059c575b505060001982861b1c191690861b1783555b8051938411620005865760049586548681811c911680156200057b575b8a82101462000566579081848796959493116200050a575b5089928511600114620004a2575060009362000496575b505082841b92600019911b1c19161782555b60ff19806006541660065585156200048657600080526005918286528760002087600052865260ff886000205416156200044c575b7f9f2df0fed2c77648de5860a4cc508cd0818c85b8b8a1ab4ceeef8d981c8956a6806000528387528860002088600052875260ff8960002054161562000411575b507f65d7a28e3265b37a6474929f336521b332c1681b933f6cb9f3376673440d862a806000528387528860002088600052875260ff89600020541615620003d6575b507f3c11d16cbaffd01df69ce1c404f6340ee057498f5f00246190ea54220576a84892836000528087528860002088600052875260ff896000205416156200039a575b505050508115801562000270575b8551611b309081620006ce8239f35b670de0b6b3a764000080840293840414171562000385576b033b2e3c9fd0803ce80000008083116200036b575060ff60065416620003355750829181620002db7f969cd201f68f120baff2bf3c59bc3b534434e08b69a71a14ab85cb79cd3b63e493600254620006a9565b600255836000526000825285600020620002f7828254620006a9565b90558360007fddf252ad1be2c89b69c2b068fc378daa952ba7f163c4a11628f55a4df523b3ef848951858152a38551908152a3388080808062000261565b845162461bcd60e51b8152908101839052601060248201526f14185d5cd8589b194e881c185d5cd95960821b6044820152606490fd5b60449286519263adc3cee560e01b84528301526024820152fd5b601190634e487b7160e01b6000525260246000fd5b836000528652876000208760005286528760002091825416179055843391600080516020620021fe833981519152600080a43880808062000253565b8060005283875288600020886000528752886000208284825416179055873391600080516020620021fe833981519152600080a43862000210565b8060005283875288600020886000528752886000208284825416179055873391600080516020620021fe833981519152600080a438620001ce565b600080528286528760002087600052865287600020818382541617905533876000600080516020620021fe8339815191528180a46200018d565b865163d92e233d60e01b81528390fd5b01519150388062000146565b869593929193169287600052896000209360005b8b828210620004f35750508511620004d8575b50505050811b01825562000158565b01519060f884600019921b161c1916905538808080620004c9565b8385015187558998909601959384019301620004b6565b90919293945087600052896000208480880160051c8201928c89106200055c575b918991899897969594930160051c01915b8281106200054c5750506200012f565b600081558897508991016200053c565b925081926200052b565b602288634e487b7160e01b6000525260246000fd5b90607f169062000117565b634e487b7160e01b600052604160045260246000fd5b015190503880620000e8565b908989941691876000528c600020928d6000905b828210620005f55750508411620005dc575b505050811b018355620000fa565b015160001983881b60f8161c19169055388080620005ce565b8385015186558c979095019493840193018e620005bc565b909150856000528a6000208580850160051c8201928d861062000659575b918a91869594930160051c01915b82811062000649575050620000d1565b600081558594508a910162000639565b925081926200062b565b634e487b7160e01b600052602260045260246000fd5b91607f1691620000bd565b600080fd5b60408051919082016001600160401b038111838210176200058657604052565b91908201809211620006b757565b634e487b7160e01b600052601160045260246000fdfe608060408181526004918236101561001657600080fd5b600092833560e01c91826301ffc9a7146111225750816306fdde031461104b578163095ea7b31461102157816318160ddd1461100257816323b872dd14610fc5578163248a9ca314610f9a578163282c51f314610f715781632f2ff15d14610ec4578163313ce56714610ea857816332cb6b0c14610e82578163349f0b9014610e5b57816336568abe14610dc95781633950935114610d795781633f4ba83a14610bfa57816340c10f191461099957816342966c68146109375781635c975abb1461091357816370a08231146108dc57816379cc6790146106c45781638456cb591461049a57816391d148541461045357816395d89b411461036d578163a217fddf14610352578163a457c2d7146102aa578163a9059cbb14610279578163d539139314610250578163d547741f1461020d57508063dd62ed3e146101c5578063e63ab1e91461019d5763f931377b1461016f57600080fd5b34610199578160031936011261019957602090676765c793fa10079d601b1b600254149051908152f35b5080fd5b503461019957816003193601126101995760209051600080516020611a7b8339815191528152f35b5034610199578060031936011261019957806020926101e26111c4565b6101ea6111df565b6001600160a01b0391821683526001865283832091168252845220549051908152f35b9190503461024c578060031936011261024c57610249913561024460016102326111df565b938387526005602052862001546111f5565b6113d8565b80f35b8280fd5b50503461019957816003193601126101995760209051600080516020611abb8339815191528152f35b5050346101995780600319360112610199576020906102a36102996111c4565b6024359033611471565b5160018152f35b9050823461034f578260031936011261034f576102c56111c4565b918360243592338152600160205281812060018060a01b03861682526020522054908282106102fe576020856102a385850387336115e3565b608490602086519162461bcd60e51b8352820152602560248201527f45524332303a2064656372656173656420616c6c6f77616e63652062656c6f77604482015264207a65726f60d81b6064820152fd5b80fd5b50503461019957816003193601126101995751908152602090f35b838334610199578160031936011261019957805191809380549160019083821c92828516948515610449575b60209586861081146104365785895290811561041257506001146103d7575b6103d387876103c9828c03836113b5565b5191829182611198565b0390f35b9080949750528583205b8284106103ff57505050826103d3946103c9928201019486806103b8565b80548685018801529286019281016103e1565b60ff19168887015250505050151560051b83010192506103c9826103d386806103b8565b634e487b7160e01b845260228352602484fd5b93607f1693610399565b90503461024c578160031936011261024c578160209360ff926104746111df565b90358252600586528282206001600160a01b039091168252855220549151911615158152f35b83915034610199578160031936011261019957600080516020611a7b8339815191529081835260209160058352848420338552835260ff85852054161561052157837f62e78cea01bee320cd4e420270b5ea74000d11b0c9f74754ebdbfc544b05a2588487600160065461051160ff8216156118a0565b60ff19161760065551338152a180f35b61052d939193336117a4565b85519161053983611384565b604283528483019360603686378351156106b1576030855383519060019182101561069e5790607860218601536041915b81831161063357505050610603576105ff9386936105eb936105dc6048946105b39a519a85600080516020611a5b8339815191528d978801528251928391603789019101611175565b8401917001034b99036b4b9b9b4b733903937b6329607d1b603784015251809386840190611175565b010360288101875201856113b5565b5162461bcd60e51b81529283928301611198565b0390fd5b50505080606493519262461bcd60e51b84528301526024820152600080516020611a1b8339815191526044820152fd5b909192600f8116601081101561068b576f181899199a1a9b1b9c1cb0b131b232b360811b901a610663858861177d565b53881c9280156106785760001901919061056a565b634e487b7160e01b825260118952602482fd5b634e487b7160e01b835260328a52602483fd5b634e487b7160e01b815260328852602490fd5b634e487b7160e01b815260328752602490fd5b90503461024c578160031936011261024c576106de6111c4565b91602490813593600080516020611a3b8339815191529283875260209360058552838820338952855260ff84892054161561078857505061072460ff60065416156118a0565b6001600160a01b03811693841561077a57851561076c57509061076285600080516020611a9b833981519152949361075d8233836116e5565b6118f8565b519384523393a380f35b8251631f2a200560e01b8152fd5b825163d92e233d60e01b8152fd5b848885938893610797336117a4565b90918651926107a584611384565b604284528584019460603687378451156108ca57603086538451906001918210156108b85790607860218701536041915b81831161084f5750505061082057506105ff9386936105eb936105dc6048946105b39a519a85600080516020611a5b8339815191528d978801528251928391603789019101611175565b9250505081606494519362461bcd60e51b8552840152820152600080516020611a1b8339815191526044820152fd5b909192600f811660108110156108a6576f181899199a1a9b1b9c1cb0b131b232b360811b901a61087f858961177d565b53891c928015610894576000190191906107d6565b634e487b7160e01b825260118a528482fd5b634e487b7160e01b835260328b528583fd5b634e487b7160e01b8152603289528390fd5b634e487b7160e01b8152603288529050fd5b5050346101995760203660031901126101995760209181906001600160a01b036109046111c4565b16815280845220549051908152f35b50503461019957816003193601126101995760209060ff6006541690519015158152f35b9190503461024c57602036600319011261024c5781359161095d60ff60065416156118a0565b821561098b575061096e82336118f8565b519081523390600080516020611a9b83398151915260203392a380f35b9051631f2a200560e01b8152fd5b90503461024c578160031936011261024c576109b36111c4565b9060248035600080516020611abb8339815191529384875260209460058652868820338952865260ff878920541615610b1d575060ff6006541615906109f8826118a0565b6001600160a01b0316908115610b0d578215610afd5760025490610a1c848361144e565b95676765c793fa10079d601b1b95868811610ad9575050610a4691610a4185926118a0565b61144e565b600255808752868552858720610a5d83825461144e565b90558087600080516020611adb833981519152878951868152a385519182527f969cd201f68f120baff2bf3c59bc3b534434e08b69a71a14ab85cb79cd3b63e4853393a38114610aab578380f35b7ff9f8491526cc7cbcafba2f8dd5c03c2dfe0b847a44e6eefd30c87fc1b744ea3a9251908152a13880808380f35b908960449287610ae8876118df565b925163adc3cee560e01b815293840152820152fd5b8651631f2a200560e01b81528590fd5b865163d92e233d60e01b81528590fd5b848689868a94610b2c336117a4565b9091865192610b3a84611384565b604284528584019460603687378451156108ca57603086538451906001918210156108b85790607860218701536041915b818311610bb55750505061082057506105ff9386936105eb936105dc6048946105b39a519a85600080516020611a5b8339815191528d978801528251928391603789019101611175565b909192600f811660108110156108a6576f181899199a1a9b1b9c1cb0b131b232b360811b901a610be5858961177d565b53891c92801561089457600019019190610b6b565b83833461019957816003193601126101995781805260209060058252808320338452825260ff818420541615610ca2576006549360ff851615610c6a57507f5db9ee0a495bf2e6ff9c91a7834c1ba4fdd244a5e8aa4e537bd38aeae4b073aa929360ff191660065551338152a180f35b82606492519162461bcd60e51b8352820152601460248201527314185d5cd8589b194e881b9bdd081c185d5cd95960621b6044820152fd5b9291610cad336117a4565b84519082610cba83611384565b604283528483019360603686378351156106b1576030855383519060019182101561069e5790607860218601536041915b818311610d3457505050610603576105ff9386936105eb936105dc6048946105b39a519a85600080516020611a5b8339815191528d978801528251928391603789019101611175565b909192600f8116601081101561068b576f181899199a1a9b1b9c1cb0b131b232b360811b901a610d64858861177d565b53881c92801561067857600019019190610ceb565b5050346101995780600319360112610199576102a3602092610dc2610d9c6111c4565b338352600186528483206001600160a01b0382168452865291849020546024359061144e565b90336115e3565b83915034610199578260031936011261019957610de46111df565b90336001600160a01b03831603610e00579061024991356113d8565b608490602085519162461bcd60e51b8352820152602f60248201527f416363657373436f6e74726f6c3a2063616e206f6e6c792072656e6f756e636560448201526e103937b632b9903337b91039b2b63360891b6064820152fd5b505034610199578160031936011261019957602090610e7b6002546118df565b9051908152f35b50503461019957816003193601126101995751676765c793fa10079d601b1b8152602090f35b5050346101995781600319360112610199576020905160128152f35b90503461024c578160031936011261024c573590610ee06111df565b908284526005602052610ef8600182862001546111f5565b828452600560209081528185206001600160a01b039093168086529290528084205460ff1615610f26578380f35b82845260056020528084208285526020528320600160ff1982541617905533917f2f8788117e7eff1d82e926ec794901d17c78024a50270940304540a733656f0d8480a43880808380f35b50503461019957816003193601126101995760209051600080516020611a3b8339815191528152f35b90503461024c57602036600319011261024c5781602093600192358152600585522001549051908152f35b505034610199576060366003190112610199576020906102a3610fe66111c4565b610fee6111df565b60443591610ffd8333836116e5565b611471565b5050346101995781600319360112610199576020906002549051908152f35b5050346101995780600319360112610199576020906102a36110416111c4565b60243590336115e3565b9190503461024c578260031936011261024c57805191836003549060019082821c928281168015611118575b602095868610821461110557508488529081156110e357506001146110a8575b6103d386866103c9828b03836113b5565b929550600383528583205b8284106110d057505050826103d3946103c9928201019438611097565b80548685018801529286019281016110b3565b60ff191687860152505050151560051b83010192506103c9826103d338611097565b634e487b7160e01b845260229052602483fd5b93607f1693611077565b84913461024c57602036600319011261024c573563ffffffff60e01b811680910361024c5760209250637965db0b60e01b8114908115611164575b5015158152f35b6301ffc9a760e01b1490508361115d565b60005b8381106111885750506000910152565b8181015183820152602001611178565b604091602082526111b88151809281602086015260208686019101611175565b601f01601f1916010190565b600435906001600160a01b03821682036111da57565b600080fd5b602435906001600160a01b03821682036111da57565b600081815260209060058252604092838220338352835260ff84832054161561121e5750505050565b611227336117a4565b84519161123383611384565b6042835284830193606036863783511561137057603085538351906001918210156113705790607860218601536041915b818311611302575050506112d2576105b39385936112bc936112ad6048946105ff99519885600080516020611a5b8339815191528b978801528251928391603789019101611175565b010360288101855201836113b5565b5162461bcd60e51b815291829160048301611198565b60648486519062461bcd60e51b82528060048301526024820152600080516020611a1b8339815191526044820152fd5b909192600f8116601081101561135c576f181899199a1a9b1b9c1cb0b131b232b360811b901a611332858861177d565b5360041c92801561134857600019019190611264565b634e487b7160e01b82526011600452602482fd5b634e487b7160e01b83526032600452602483fd5b634e487b7160e01b81526032600452602490fd5b608081019081106001600160401b0382111761139f57604052565b634e487b7160e01b600052604160045260246000fd5b601f909101601f19168101906001600160401b0382119082101761139f57604052565b906000918083526005602052604083209160018060a01b03169182845260205260ff60408420541661140957505050565b8083526005602052604083208284526020526040832060ff1981541690557ff6391f5c32d9c69d2a47ea670b442974b53935d1edc7fd64eb21e047a839171b339380a4565b9190820180921161145b57565b634e487b7160e01b600052601160045260246000fd5b6001600160a01b03908116918215611590571691821561153f5761149a60ff60065416156118a0565b6000828152806020526040812054918083106114eb5760408282600080516020611adb8339815191529587602096528286520382822055868152206114e082825461144e565b9055604051908152a3565b60405162461bcd60e51b815260206004820152602660248201527f45524332303a207472616e7366657220616d6f756e7420657863656564732062604482015265616c616e636560d01b6064820152608490fd5b60405162461bcd60e51b815260206004820152602360248201527f45524332303a207472616e7366657220746f20746865207a65726f206164647260448201526265737360e81b6064820152608490fd5b60405162461bcd60e51b815260206004820152602560248201527f45524332303a207472616e736665722066726f6d20746865207a65726f206164604482015264647265737360d81b6064820152608490fd5b6001600160a01b0390811691821561169457169182156116445760207f8c5be1e5ebec7d5bd14f71427d1e84f3dd0314c0f7b2291e5b200ac8c7c3b925918360005260018252604060002085600052825280604060002055604051908152a3565b60405162461bcd60e51b815260206004820152602260248201527f45524332303a20617070726f766520746f20746865207a65726f206164647265604482015261737360f01b6064820152608490fd5b60405162461bcd60e51b8152602060048201526024808201527f45524332303a20617070726f76652066726f6d20746865207a65726f206164646044820152637265737360e01b6064820152608490fd5b9060018060a01b038083166000526001602052604060002090821660005260205260406000205492600019840361171d575b50505050565b8084106117385761172f9303916115e3565b38808080611717565b60405162461bcd60e51b815260206004820152601d60248201527f45524332303a20696e73756666696369656e7420616c6c6f77616e63650000006044820152606490fd5b90815181101561178e570160200190565b634e487b7160e01b600052603260045260246000fd5b60405190606082016001600160401b0381118382101761139f57604052602a825260208201604036823782511561178e5760309053815160019081101561178e57607860218401536029905b8082116118325750506118005790565b606460405162461bcd60e51b81526020600482015260206024820152600080516020611a1b8339815191526044820152fd5b9091600f8116601081101561188b576f181899199a1a9b1b9c1cb0b131b232b360811b901a611861848661177d565b5360041c9180156118765760001901906117f0565b60246000634e487b7160e01b81526011600452fd5b60246000634e487b7160e01b81526032600452fd5b156118a757565b60405162461bcd60e51b815260206004820152601060248201526f14185d5cd8589b194e881c185d5cd95960821b6044820152606490fd5b676765c793fa10079d601b1b9081039190821161145b57565b6001600160a01b031680156119cb5761191660ff60065416156118a0565b60009181835282602052604083205481811061197b5781908385528460205203604084205560025481810390811161196757600080516020611adb83398151915291602091600255604051908152a3565b634e487b7160e01b84526011600452602484fd5b60405162461bcd60e51b815260206004820152602260248201527f45524332303a206275726e20616d6f756e7420657863656564732062616c616e604482015261636560f01b6064820152608490fd5b60405162461bcd60e51b815260206004820152602160248201527f45524332303a206275726e2066726f6d20746865207a65726f206164647265736044820152607360f81b6064820152608490fdfe537472696e67733a20686578206c656e67746820696e73756666696369656e743c11d16cbaffd01df69ce1c404f6340ee057498f5f00246190ea54220576a848416363657373436f6e74726f6c3a206163636f756e742000000000000000000065d7a28e3265b37a6474929f336521b332c1681b933f6cb9f3376673440d862a08009940fb138ae33fbb70c10b643e840c71f1654344cc173975a815e117e6879f2df0fed2c77648de5860a4cc508cd0818c85b8b8a1ab4ceeef8d981c8956a6ddf252ad1be2c89b69c2b068fc378daa952ba7f163c4a11628f55a4df523b3efa26469706673582212205db1d3c17beb069422c6ed20a21de70c9592ae934c606b08a130e97255ea8af564736f6c634300081400332f8788117e7eff1d82e926ec794901d17c78024a50270940304540a733656f0d",
  "linkReferences": {},
  "deployedLinkReferences": {}
}