{
  "_format": "hh-sol-artifact-1",
  "contractName": "DinUSDT",
  "sourceName": "contracts/DinUSDT.sol",
  "abi": [
    {
      "inputs": [
        {
          "internalType": "uint256",
          "name": "_initialSupply",
          "type": "uint256"
        },
        {
          "internalType": "string",
          "name": "_name",
          "type": "string"
        },
        {
          "internalType": "string",
          "name": "_symbol",
          "type": "string"
        },
        {
          "internalType": "uint8",
          "name": "_decimals",
          "type": "uint8"
        }
      ],
      "stateMutability": "nonpayable",
      "type": "constructor"
    },
    {
      "inputs": [
        {
          "internalType": "address",
          "name": "account",
          "type": "address"
        }
      ],
      "name": "BlacklistedAddress",
      "type": "error"
    },
    {
      "inputs": [],
      "name": "DeprecatedContract",
      "type": "error"
    },
    {
      "inputs": [],
      "name": "InsufficientAllowance",
      "type": "error"
    },
    {
      "inputs": [],
      "name": "InsufficientBalance",
      "type": "error"
    },
    {
      "inputs": [],
      "name": "InvalidFeeParameters",
      "type": "error"
    },
    {
      "inputs": [],
      "name": "ZeroAddress",
      "type": "error"
    },
    {
      "anonymous": false,
      "inputs": [
        {
          "indexed": false,
          "internalType": "address",
          "name": "_user",
          "type": "address"
        }
      ],
      "name": "AddedBlackList",
      "type": "event"
    },
    {
      "anonymous": false,
      "inputs": [
        {
          "indexed": true,
          "internalType": "address",
          "name": "owner",
          "type": "address"
        },
        {
          "indexed": true,
          "internalType": "address",
          "name": "spender",
          "type": "address"
        },
        {
          "indexed": false,
          "internalType": "uint256",
          "name": "value",
          "type": "uint256"
        }
      ],
      "name": "Approval",
      "type": "event"
    },
    {
      "anonymous": false,
      "inputs": [
        {
          "indexed": false,
          "internalType": "address",
          "name": "newAddress",
          "type": "address"
        }
      ],
      "name": "Deprecate",
      "type": "event"
    },
    {
      "anonymous": false,
      "inputs": [
        {
          "indexed": false,
          "internalType": "address",
          "name": "_blackListedUser",
          "type": "address"
        },
        {
          "indexed": false,
          "internalType": "uint256",
          "name": "_balance",
          "type": "uint256"
        }
      ],
      "name": "DestroyedBlackFunds",
      "type": "event"
    },
    {
      "anonymous": false,
      "inputs": [
        {
          "indexed": false,
          "internalType": "uint256",
          "name": "amount",
          "type": "uint256"
        }
      ],
      "name": "Issue",
      "type": "event"
    },
    {
      "anonymous": false,
      "inputs": [
        {
          "indexed": true,
          "internalType": "address",
          "name": "previousOwner",
          "type": "address"
        },
        {
          "indexed": true,
          "internalType": "address",
          "name": "newOwner",
          "type": "address"
        }
      ],
      "name": "OwnershipTransferred",
      "type": "event"
    },
    {
      "anonymous": false,
      "inputs": [
        {
          "indexed": false,
          "internalType": "uint256",
          "name": "feeBasisPoints",
          "type": "uint256"
        },
        {
          "indexed": false,
          "internalType": "uint256",
          "name": "maxFee",
          "type": "uint256"
        }
      ],
      "name": "Params",
      "type": "event"
    },
    {
      "anonymous": false,
      "inputs": [
        {
          "indexed": false,
          "internalType": "address",
          "name": "account",
          "type": "address"
        }
      ],
      "name": "Paused",
      "type": "event"
    },
    {
      "anonymous": false,
      "inputs": [
        {
          "indexed": false,
          "internalType": "uint256",
          "name": "amount",
          "type": "uint256"
        }
      ],
      "name": "Redeem",
      "type": "event"
    },
    {
      "anonymous": false,
      "inputs": [
        {
          "indexed": false,
          "internalType": "address",
          "name": "_user",
          "type": "address"
        }
      ],
      "name": "RemovedBlackList",
      "type": "event"
    },
    {
      "anonymous": false,
      "inputs": [
        {
          "indexed": true,
          "internalType": "address",
          "name": "from",
          "type": "address"
        },
        {
          "indexed": true,
          "internalType": "address",
          "name": "to",
          "type": "address"
        },
        {
          "indexed": false,
          "internalType": "uint256",
          "name": "value",
          "type": "uint256"
        }
      ],
      "name": "Transfer",
      "type": "event"
    },
    {
      "anonymous": false,
      "inputs": [
        {
          "indexed": false,
          "internalType": "address",
          "name": "account",
          "type": "address"
        }
      ],
      "name": "Unpaused",
      "type": "event"
    },
    {
      "inputs": [],
      "name": "MAX_UINT",
      "outputs": [
        {
          "internalType": "uint256",
          "name": "",
          "type": "uint256"
        }
      ],
      "stateMutability": "view",
      "type": "function"
    },
    {
      "inputs": [
        {
          "internalType": "address",
          "name": "_evilUser",
          "type": "address"
        }
      ],
      "name": "addBlackList",
      "outputs": [],
      "stateMutability": "nonpayable",
      "type": "function"
    },
    {
      "inputs": [
        {
          "internalType": "address",
          "name": "owner",
          "type": "address"
        },
        {
          "internalType": "address",
          "name": "spender",
          "type": "address"
        }
      ],
      "name": "allowance",
      "outputs": [
        {
          "internalType": "uint256",
          "name": "",
          "type": "uint256"
        }
      ],
      "stateMutability": "view",
      "type": "function"
    },
    {
      "inputs": [
        {
          "internalType": "address",
          "name": "spender",
          "type": "address"
        },
        {
          "internalType": "uint256",
          "name": "amount",
          "type": "uint256"
        }
      ],
      "name": "approve",
      "outputs": [
        {
          "internalType": "bool",
          "name": "",
          "type": "bool"
        }
      ],
      "stateMutability": "nonpayable",
      "type": "function"
    },
    {
      "inputs": [
        {
          "internalType": "address",
          "name": "account",
          "type": "address"
        }
      ],
      "name": "balanceOf",
      "outputs": [
        {
          "internalType": "uint256",
          "name": "",
          "type": "uint256"
        }
      ],
      "stateMutability": "view",
      "type": "function"
    },
    {
      "inputs": [],
      "name": "basisPointsRate",
      "outputs": [
        {
          "internalType": "uint256",
          "name": "",
          "type": "uint256"
        }
      ],
      "stateMutability": "view",
      "type": "function"
    },
    {
      "inputs": [],
      "name": "decimals",
      "outputs": [
        {
          "internalType": "uint8",
          "name": "",
          "type": "uint8"
        }
      ],
      "stateMutability": "view",
      "type": "function"
    },
    {
      "inputs": [
        {
          "internalType": "address",
          "name": "_upgradedAddress",
          "type": "address"
        }
      ],
      "name": "deprecate",
      "outputs": [],
      "stateMutability": "nonpayable",
      "type": "function"
    },
    {
      "inputs": [],
      "name": "deprecated",
      "outputs": [
        {
          "internalType": "bool",
          "name": "",
          "type": "bool"
        }
      ],
      "stateMutability": "view",
      "type": "function"
    },
    {
      "inputs": [
        {
          "internalType": "address",
          "name": "_blackListedUser",
          "type": "address"
        }
      ],
      "name": "destroyBlackFunds",
      "outputs": [],
      "stateMutability": "nonpayable",
      "type": "function"
    },
    {
      "inputs": [
        {
          "internalType": "address",
          "name": "_maker",
          "type": "address"
        }
      ],
      "name": "getBlackListStatus",
      "outputs": [
        {
          "internalType": "bool",
          "name": "",
          "type": "bool"
        }
      ],
      "stateMutability": "view",
      "type": "function"
    },
    {
      "inputs": [],
      "name": "getUpgradedAddress",
      "outputs": [
        {
          "internalType": "address",
          "name": "",
          "type": "address"
        }
      ],
      "stateMutability": "view",
      "type": "function"
    },
    {
      "inputs": [
        {
          "internalType": "address",
          "name": "",
          "type": "address"
        }
      ],
      "name": "isBlackListed",
      "outputs": [
        {
          "internalType": "bool",
          "name": "",
          "type": "bool"
        }
      ],
      "stateMutability": "view",
      "type": "function"
    },
    {
      "inputs": [],
      "name": "isDeprecated",
      "outputs": [
        {
          "internalType": "bool",
          "name": "",
          "type": "bool"
        }
      ],
      "stateMutability": "view",
      "type": "function"
    },
    {
      "inputs": [
        {
          "internalType": "uint256",
          "name": "amount",
          "type": "uint256"
        }
      ],
      "name": "issue",
      "outputs": [],
      "stateMutability": "nonpayable",
      "type": "function"
    },
    {
      "inputs": [],
      "name": "maximumFee",
      "outputs": [
        {
          "internalType": "uint256",
          "name": "",
          "type": "uint256"
        }
      ],
      "stateMutability": "view",
      "type": "function"
    },
    {
      "inputs": [],
      "name": "name",
      "outputs": [
        {
          "internalType": "string",
          "name": "",
          "type": "string"
        }
      ],
      "stateMutability": "view",
      "type": "function"
    },
    {
      "inputs": [],
      "name": "owner",
      "outputs": [
        {
          "internalType": "address",
          "name": "",
          "type": "address"
        }
      ],
      "stateMutability": "view",
      "type": "function"
    },
    {
      "inputs": [],
      "name": "pause",
      "outputs": [],
      "stateMutability": "nonpayable",
      "type": "function"
    },
    {
      "inputs": [],
      "name": "paused",
      "outputs": [
        {
          "internalType": "bool",
          "name": "",
          "type": "bool"
        }
      ],
      "stateMutability": "view",
      "type": "function"
    },
    {
      "inputs": [
        {
          "internalType": "uint256",
          "name": "amount",
          "type": "uint256"
        }
      ],
      "name": "redeem",
      "outputs": [],
      "stateMutability": "nonpayable",
      "type": "function"
    },
    {
      "inputs": [
        {
          "internalType": "address",
          "name": "_clearedUser",
          "type": "address"
        }
      ],
      "name": "removeBlackList",
      "outputs": [],
      "stateMutability": "nonpayable",
      "type": "function"
    },
    {
      "inputs": [],
      "name": "renounceOwnership",
      "outputs": [],
      "stateMutability": "nonpayable",
      "type": "function"
    },
    {
      "inputs": [
        {
          "internalType": "uint256",
          "name": "newBasisPoints",
          "type": "uint256"
        },
        {
          "internalType": "uint256",
          "name": "newMaxFee",
          "type": "uint256"
        }
      ],
      "name": "setParams",
      "outputs": [],
      "stateMutability": "nonpayable",
      "type": "function"
    },
    {
      "inputs": [],
      "name": "symbol",
      "outputs": [
        {
          "internalType": "string",
          "name": "",
          "type": "string"
        }
      ],
      "stateMutability": "view",
      "type": "function"
    },
    {
      "inputs": [],
      "name": "totalSupply",
      "outputs": [
        {
          "internalType": "uint256",
          "name": "",
          "type": "uint256"
        }
      ],
      "stateMutability": "view",
      "type": "function"
    },
    {
      "inputs": [
        {
          "internalType": "address",
          "name": "to",
          "type": "address"
        },
        {
          "internalType": "uint256",
          "name": "amount",
          "type": "uint256"
        }
      ],
      "name": "transfer",
      "outputs": [],
      "stateMutability": "nonpayable",
      "type": "function"
    },
    {
      "inputs": [
        {
          "internalType": "address",
          "name": "from",
          "type": "address"
        },
        {
          "internalType": "address",
          "name": "to",
          "type": "address"
        },
        {
          "internalType": "uint256",
          "name": "amount",
          "type": "uint256"
        }
      ],
      "name": "transferFrom",
      "outputs": [],
      "stateMutability": "nonpayable",
      "type": "function"
    },
    {
      "inputs": [
        {
          "internalType": "address",
          "name": "newOwner",
          "type": "address"
        }
      ],
      "name": "transferOwnership",
      "outputs": [],
      "stateMutability": "nonpayable",
      "type": "function"
    },
    {
      "inputs": [],
      "name": "unpause",
      "outputs": [],
      "stateMutability": "nonpayable",
      "type": "function"
    },
    {
      "inputs": [],
      "name": "upgradedAddress",
      "outputs": [
        {
          "internalType": "address",
          "name": "",
          "type": "address"
        }
      ],
      "stateMutability": "view",
      "type": "function"
    }
  ],
  "bytecode": "0x608060405234620003c75762001aa2803803806200001d81620003cc565b928339810190608081830312620003c757805160208083015191926001600160401b0392838111620003c757856200005791830162000408565b946040820151848111620003c7576060916200007591840162000408565b9101519260ff8416809403620003c75760009384549160018060a01b0393338585167f8be0079c531659141344cd1fd0a4f28419497f9722a3daafe3b4186f6b6457e08980a360ff60a01b19938433169060018060a81b031916178755866007558660085587600455885190828211620002d15760019182549a838c811c9c168015620003bc575b898d1014620003a8578190601f9c8d811162000355575b5089908d8311600114620002f1578b92620002e5575b5050600019600383901b1c191690831b1782555b8051928311620002d1576002548281811c91168015620002c6575b88821014620002b2578a811162000269575b5086998311600114620001f357829188999a839260008051602062001a828339815191529a94620001e7575b50501b916000199060031b1c1916176002555b60ff19600354161760035581855416855260058352856040862055600a5416600a5583541693604051908152a360405161160790816200047b8239f35b01519250388062000197565b601f929192198216996002895287892091895b8c81106200025357508360008051602062001a828339815191529a9b9c1062000239575b505050811b01600255620001aa565b015160001960f88460031b161c191690553880806200022a565b8183015184559285019291890191890162000206565b600289528789208b80860160051c8201928a8710620002a8575b0160051c019083905b8281106200029c5750506200016b565b8a81550183906200028c565b9250819262000283565b634e487b7160e01b89526022600452602489fd5b90607f169062000159565b634e487b7160e01b88526041600452602488fd5b0151905038806200012a565b858c528a8c208694509190601f1984168d5b8d8282106200033e575050841162000324575b505050811b0182556200013e565b015160001960f88460031b161c1916905538808062000316565b838501518655899790950194938401930162000303565b909150848b52898b208d80850160051c8201928c86106200039e575b918791869594930160051c01915b8281106200038f57505062000114565b8d81558594508791016200037f565b9250819262000371565b634e487b7160e01b8a52602260045260248afd5b9b607f169b620000fd565b600080fd5b6040519190601f01601f191682016001600160401b03811183821017620003f257604052565b634e487b7160e01b600052604160045260246000fd5b919080601f84011215620003c75782516001600160401b038111620003f2576020906200043e601f8201601f19168301620003cc565b92818452828287010111620003c75760005b8181106200046657508260009394955001015290565b85810183015184820184015282016200045056fe60806040908082526004918236101561001757600080fd5b600091823560e01c90816306fdde0314610c73575080630753c30c14610be2578063095ea7b314610ba05780630e136b191461062d5780630ecb93c014610b2a57806318160ddd14610b0e57806323b872dd14610acf57806326976e3f146108ba578063313ce56714610aae5780633539071414610a905780633f4ba83a146109ea57806359bf1abe146103995780635c975abb146109c657806370a08231146109a1578063715018a6146109555780638456cb59146108e25780638c9f99ce146108ba5780638da5cb5b1461089357806395d89b41146107ae578063a9059cbb14610773578063c0324c7714610653578063c71782301461062d578063cc872b6614610558578063db006a7514610428578063dd62ed3e146103f4578063dd644f72146103d6578063e47d606014610399578063e4997dc514610326578063e5b5019a1461030a578063f2fde38b146102515763f3bdc2281461017a57600080fd5b3461024d57602036600319011261024d57610193610db7565b82546001600160a01b0391906101ac9083163314610de8565b16808352600960205260ff828420541615610210578293817f61e6e66b0d6339b2980aecc6ccc0039736791f0ccde9ed512e789a7fbdd698c694526005602052828520908582549255610200828254611096565b905582519182526020820152a180f35b815162461bcd60e51b815260208186015260176024820152761059191c995cdcc81b9bdd08189b1858dadb1a5cdd1959604a1b6044820152606490fd5b5080fd5b5082346103065760203660031901126103065761026c610db7565b83546001600160a01b03808216939192610287338614610de8565b169384156102b45750506001600160a01b031916821783556000805160206115928339815191528380a380f35b906020608492519162461bcd60e51b8352820152602660248201527f4f776e61626c653a206e6577206f776e657220697320746865207a65726f206160448201526564647265737360d01b6064820152fd5b8280fd5b503461024d578160031936011261024d57516000198152602090f35b503461024d57602036600319011261024d5760207fd7e9ec6e6ecd65492dce6bf513cd6867560d49544421d0783ddf06e76c24470c91610364610db7565b84546001600160a01b03919061037d9083163314610de8565b1680855260098352818520805460ff191690559051908152a180f35b503461024d57602036600319011261024d5760209160ff9082906001600160a01b036103c3610db7565b1681526009855220541690519015158152f35b503461024d578160031936011261024d576020906007549051908152f35b503461024d578060031936011261024d57602090610421610413610db7565b61041b610dd2565b906113b7565b9051908152f35b50913461024d57602090816003193601126103065782548135916001600160a01b0391821690610459338314610de8565b805484811061051957828752600586528488882054106104df57918697959391610493866000805160206115b28339815191529795611096565b90558652600583528486206104a9838254611096565b90557f702d5967f45f6513a38ffc42d6ba9bf230bd40e8f53b16363c7eb4fd2deb9a44838651848152a18554169351908152a380f35b875162461bcd60e51b81528083018790526014602482015273496e73756666696369656e742062616c616e636560601b6044820152606490fd5b875162461bcd60e51b81528083018790526019602482015278496e73756666696369656e7420746f74616c20737570706c7960381b6044820152606490fd5b5081833461024d576020806003193601126103065782546000805160206115b2833981519152928035916001600160a01b0391908216610599338214610de8565b6105ae82546105a88682611448565b11611546565b808752600585526105d66105c5858a8a2054611448565b828952600587528989205410611546565b8652600584528686206105ea848254611448565b90556105f7838254611448565b90557fcb8241adb0c3fdb35b70c24ce35c5eb0c17af7431c99f827d44a445ca624176a838751848152a18454169451908152a380f35b503461024d578160031936011261024d5760209060ff600a5460a01c1690519015158152f35b503461024d578060031936011261024d5782356024359361067e60018060a01b038554163314610de8565b60148210156107415760ff600354169061069782611583565b8060320290603282040361072e578610156106f857507fb044a1e409eac5c48e5af22d4af52670dd1a99059537a78b31b48c6500a6354e93946106e06106e69284600755611583565b90611435565b8060085582519182526020820152a180f35b606490602085519162461bcd60e51b8352820152601060248201526f09ac2f040cccaca40e8dede40d0d2ced60831b6044820152fd5b634e487b7160e01b865260118252602486fd5b606490602084519162461bcd60e51b8352820152600c60248201526b08ccaca40e8dede40d0d2ced60a31b6044820152fd5b503461024d573660031901126107ab576107a861078e610db7565b61079f60ff845460a01c1615610f24565b60243590610fc4565b80f35b80fd5b50829034610306578260031936011261030657805191836002549060019082821c928281168015610889575b602095868610821461087657508488529081156108545750600114610819575b610815868661080b828b0383610d35565b5191829182610d6e565b0390f35b929550600283528583205b82841061084157505050826108159461080b9282010194866107fa565b8054868501880152928601928101610824565b60ff191687860152505050151560051b830101925061080b82610815866107fa565b634e487b7160e01b845260229052602483fd5b93607f16936107da565b503461024d578160031936011261024d57905490516001600160a01b039091168152602090f35b503461024d578160031936011261024d57600a5490516001600160a01b039091168152602090f35b503461024d578160031936011261024d5781547f62e78cea01bee320cd4e420270b5ea74000d11b0c9f74754ebdbfc544b05a2589160209161092e6001600160a01b0382163314610de8565b61093e60ff8260a01c1615610f24565b60ff60a01b1916600160a01b17845551338152a180f35b82346107ab57806003193601126107ab57805481906001600160a01b03811690610980338314610de8565b6001600160a01b03191682556000805160206115928339815191528280a380f35b503461024d57602036600319011261024d576020906104216109c1610db7565b610eba565b503461024d578160031936011261024d5760ff6020925460a01c1690519015158152f35b508234610306578260031936011261030657825490610a136001600160a01b0383163314610de8565b60ff8260a01c1615610a56575060ff60a01b19168255513381527f5db9ee0a495bf2e6ff9c91a7834c1ba4fdd244a5e8aa4e537bd38aeae4b073aa90602090a180f35b606490602084519162461bcd60e51b8352820152601460248201527314185d5cd8589b194e881b9bdd081c185d5cd95960621b6044820152fd5b503461024d578160031936011261024d576020906008549051908152f35b503461024d578160031936011261024d5760209060ff600354169051908152f35b82346107ab5760603660031901126107ab576107a8610aec610db7565b610af4610dd2565b610b0560ff855460a01c1615610f24565b604435916110b9565b503461024d578160031936011261024d57602090610421610e33565b503461024d57602036600319011261024d5760207f42e160154868087d6bfdc0ca23d96a1c1cfa32f1b72ba9ba27b69b98a0d819dc91610b68610db7565b84546001600160a01b039190610b819083163314610de8565b1680855260098352818520805460ff191660011790559051908152a180f35b503461024d578060031936011261024d57610bd9602092610bd060ff610bc4610db7565b925460a01c1615610f24565b60243590611246565b90519015158152f35b5082903461030657602036600319011261030657610bfe610db7565b83546001600160a01b039190610c179083163314610de8565b16918215610c655750600a80546001600160a81b0319168317600160a01b179055519081527fcc358699805e9a8b7f77b522628c7cb9abd07d9efb86b6fb616af1609036a99e90602090a180f35b905163d92e233d60e01b8152fd5b9293905034610d315783600319360112610d315783600180549182821c928281168015610d27575b60209586861082146108765750848852908115610d055750600114610ccb57610815868661080b828b0383610d35565b9295508083528583205b828410610cf257505050826108159461080b9282010194386107fa565b8054868501880152928601928101610cd5565b60ff191687860152505050151560051b830101925061080b82610815386107fa565b93607f1693610c9b565b8380fd5b601f909101601f19168101906001600160401b03821190821017610d5857604052565b634e487b7160e01b600052604160045260246000fd5b6020808252825181830181905290939260005b828110610da357505060409293506000838284010152601f8019910116010190565b818101860151848201604001528501610d81565b600435906001600160a01b0382168203610dcd57565b600080fd5b602435906001600160a01b0382168203610dcd57565b15610def57565b606460405162461bcd60e51b815260206004820152602060248201527f4f776e61626c653a2063616c6c6572206973206e6f7420746865206f776e65726044820152fd5b600a5460ff8160a01c16600014610eb3576040516318160ddd60e01b815290602090829060049082906001600160a01b03165afa908115610ea757600091610e79575090565b906020823d8211610e9f575b81610e9260209383610d35565b810103126107ab57505190565b3d9150610e85565b6040513d6000823e3d90fd5b5060045490565b600a5460ff8160a01c16600014610f08576040516370a0823160e01b81526001600160a01b0392831660048201529160209183916024918391165afa908115610ea757600091610e79575090565b506001600160a01b031660009081526005602052604090205490565b15610f2b57565b60405162461bcd60e51b815260206004820152601060248201526f14185d5cd8589b194e881c185d5cd95960821b6044820152606490fd5b6001600160a01b03918216815291166020820152604081019190915260600190565b3d15610fbf573d906001600160401b038211610d585760405191610fb3601f8201601f191660200184610d35565b82523d6000602084013e565b606090565b90600091338352600960205260ff60408420541661107e576001600160a01b038181168085526009602052604085205491949160ff166110665750600a5460ff8160a01c1661101c57505061101a925033611455565b565b919080946110476110558396604051928391602083019763370c4c0560e11b89523360248501610f63565b03601f198101835282610d35565b5193165af150611063610f85565b50565b6024906040519063d33f19e760e01b82526004820152fd5b60405163d33f19e760e01b8152336004820152602490fd5b919082039182116110a357565b634e487b7160e01b600052601160045260246000fd5b6001600160a01b0380821660008181526009602090815260408083205491989796959490929160ff1661122e578086169081835260098a5260ff84842054166112165733835260098a5260ff84842054166111ff57600a549160ff8360a01c1661118d5750505082815260068852818120338252885281812054976001890161114c575b5050505061101a939450611455565b86891061117c576111618761101a999a611096565b9382526006815282822090338352522055849338808061113d565b82516313be252b60e01b8152600490fd5b91979298999496509450825193840195638b477adb60e01b87523360248601526044850152606484015260848301526084825260c082019082821060018060401b038311176111eb57525184939092918491165af150611063610f85565b634e487b7160e01b87526041600452602487fd5b835163d33f19e760e01b8152336004820152602490fd5b835163d33f19e760e01b815260048101839052602490fd5b825163d33f19e760e01b815260048101859052602490fd5b9060003381526020906009825260409060ff82822054166113a0576001600160a01b03858116808352600985528383205490969060ff1661138857600a549160ff8360a01c1661134c5750505083151580611331575b6112e3579083817f8c5be1e5ebec7d5bd14f71427d1e84f3dd0314c0f7b2291e5b200ac8c7c3b92594933381526006855281812088825285522055519283523392a3600190565b815162461bcd60e51b815260048101849052602160248201527f417070726f76652066726f6d206e6f6e2d7a65726f20746f206e6f6e2d7a65726044820152606f60f81b6064820152608490fd5b5033815260068352818120858252835281812054151561129c565b919483975061137790611047859893965193849283019763aee92d3360e01b89523360248501610f63565b5193165af1611384610f85565b5090565b835163d33f19e760e01b815260048101889052602490fd5b815163d33f19e760e01b8152336004820152602490fd5b600a5460ff8160a01c1660001461140c57604051636eb1769f60e11b81526001600160a01b039283166004820152928216602484015260209183916044918391165afa908115610ea757600091610e79575090565b5060018060a01b0380911660005260066020526040600020911660005260205260406000205490565b818102929181159184041417156110a357565b919082018092116110a357565b9092919260018060a01b0380921690600094828652602091600583526040908282892054106115355784869798856000805160206115b283398151915297986127106114a360075489611435565b049460085480871161152d575b506114bb8689611096565b97858552600584526114d1888620918254611096565b905516998a8352600582528583206114ea888254611448565b9055846114fe575b505050505051908152a3565b82818a945416815260058352868120611518878254611448565b90555416938551908152a338858185816114f2565b9550386114b0565b8151631e9acf1760e31b8152600490fd5b1561154d57565b60405162461bcd60e51b815260206004820152600e60248201526d4f766572666c6f7720636865636b60901b6044820152606490fd5b604d81116110a357600a0a9056fe8be0079c531659141344cd1fd0a4f28419497f9722a3daafe3b4186f6b6457e0ddf252ad1be2c89b69c2b068fc378daa952ba7f163c4a11628f55a4df523b3efa2646970667358221220eb5cbaab1179c876a8a1a9d1107ba4f691d07dfaf19400e787a387cd358432ed64736f6c63430008140033ddf252ad1be2c89b69c2b068fc378daa952ba7f163c4a11628f55a4df523b3ef",
  "linkReferences": {},
  "deployedLinkReferences": {}
}