{
  "_format": "hh-sol-artifact-1",
  "contractName": "FeeTreasury",
  "sourceName": "contracts/FeeTreasury.sol",
  "abi": [
    {
      "inputs": [
        {
          "internalType": "address",
          "name": "_admin",
          "type": "address"
        },
        {
          "internalType": "address",
          "name": "_emergencyRecipient",
          "type": "address"
        },
        {
          "internalType": "string",
          "name": "_emergencyDescription",
          "type": "string"
        }
      ],
      "stateMutability": "nonpayable",
      "type": "constructor"
    },
    {
      "inputs": [],
      "name": "EmergencyModeActive",
      "type": "error"
    },
    {
      "inputs": [],
      "name": "InvalidAllocation",
      "type": "error"
    },
    {
      "inputs": [
        {
          "internalType": "uint256",
          "name": "basisPoints",
          "type": "uint256"
        }
      ],
      "name": "InvalidBasisPoints",
      "type": "error"
    },
    {
      "inputs": [
        {
          "internalType": "address",
          "name": "token",
          "type": "address"
        }
      ],
      "name": "NoBalanceToSweep",
      "type": "error"
    },
    {
      "inputs": [
        {
          "internalType": "uint256",
          "name": "recipientId",
          "type": "uint256"
        }
      ],
      "name": "RecipientNotFound",
      "type": "error"
    },
    {
      "inputs": [
        {
          "internalType": "uint256",
          "name": "lastSweep",
          "type": "uint256"
        },
        {
          "internalType": "uint256",
          "name": "minInterval",
          "type": "uint256"
        }
      ],
      "name": "SweepTooFrequent",
      "type": "error"
    },
    {
      "inputs": [
        {
          "internalType": "uint256",
          "name": "total",
          "type": "uint256"
        },
        {
          "internalType": "uint256",
          "name": "max",
          "type": "uint256"
        }
      ],
      "name": "TotalAllocationExceeded",
      "type": "error"
    },
    {
      "inputs": [
        {
          "internalType": "address",
          "name": "source",
          "type": "address"
        }
      ],
      "name": "UnauthorizedSource",
      "type": "error"
    },
    {
      "inputs": [],
      "name": "ZeroAddress",
      "type": "error"
    },
    {
      "anonymous": false,
      "inputs": [
        {
          "indexed": false,
          "internalType": "bool",
          "name": "enabled",
          "type": "bool"
        },
        {
          "indexed": false,
          "internalType": "address",
          "name": "emergencyRecipient",
          "type": "address"
        }
      ],
      "name": "EmergencyModeToggled",
      "type": "event"
    },
    {
      "anonymous": false,
      "inputs": [
        {
          "indexed": true,
          "internalType": "address",
          "name": "source",
          "type": "address"
        },
        {
          "indexed": true,
          "internalType": "address",
          "name": "token",
          "type": "address"
        },
        {
          "indexed": false,
          "internalType": "uint256",
          "name": "amount",
          "type": "uint256"
        },
        {
          "indexed": false,
          "internalType": "string",
          "name": "sourceDescription",
          "type": "string"
        }
      ],
      "name": "FeeReceived",
      "type": "event"
    },
    {
      "anonymous": false,
      "inputs": [
        {
          "indexed": true,
          "internalType": "address",
          "name": "source",
          "type": "address"
        },
        {
          "indexed": false,
          "internalType": "string",
          "name": "description",
          "type": "string"
        }
      ],
      "name": "FeeSourceRegistered",
      "type": "event"
    },
    {
      "anonymous": false,
      "inputs": [
        {
          "indexed": true,
          "internalType": "address",
          "name": "token",
          "type": "address"
        },
        {
          "indexed": false,
          "internalType": "uint256",
          "name": "totalAmount",
          "type": "uint256"
        },
        {
          "indexed": false,
          "internalType": "uint256",
          "name": "timestamp",
          "type": "uint256"
        }
      ],
      "name": "FeesSwept",
      "type": "event"
    },
    {
      "anonymous": false,
      "inputs": [
        {
          "indexed": false,
          "internalType": "address",
          "name": "account",
          "type": "address"
        }
      ],
      "name": "Paused",
      "type": "event"
    },
    {
      "anonymous": false,
      "inputs": [
        {
          "indexed": true,
          "internalType": "uint256",
          "name": "recipientId",
          "type": "uint256"
        },
        {
          "indexed": true,
          "internalType": "address",
          "name": "recipient",
          "type": "address"
        },
        {
          "indexed": false,
          "internalType": "uint256",
          "name": "basisPoints",
          "type": "uint256"
        },
        {
          "indexed": false,
          "internalType": "string",
          "name": "description",
          "type": "string"
        }
      ],
      "name": "RecipientAdded",
      "type": "event"
    },
    {
      "anonymous": false,
      "inputs": [
        {
          "indexed": true,
          "internalType": "address",
          "name": "recipient",
          "type": "address"
        },
        {
          "indexed": true,
          "internalType": "address",
          "name": "token",
          "type": "address"
        },
        {
          "indexed": false,
          "internalType": "uint256",
          "name": "amount",
          "type": "uint256"
        },
        {
          "indexed": false,
          "internalType": "uint256",
          "name": "recipientId",
          "type": "uint256"
        },
        {
          "indexed": false,
          "internalType": "string",
          "name": "description",
          "type": "string"
        }
      ],
      "name": "RecipientPaid",
      "type": "event"
    },
    {
      "anonymous": false,
      "inputs": [
        {
          "indexed": true,
          "internalType": "uint256",
          "name": "recipientId",
          "type": "uint256"
        },
        {
          "indexed": true,
          "internalType": "address",
          "name": "newRecipient",
          "type": "address"
        },
        {
          "indexed": false,
          "internalType": "uint256",
          "name": "newBasisPoints",
          "type": "uint256"
        },
        {
          "indexed": false,
          "internalType": "bool",
          "name": "active",
          "type": "bool"
        }
      ],
      "name": "RecipientUpdated",
      "type": "event"
    },
    {
      "anonymous": false,
      "inputs": [
        {
          "indexed": true,
          "internalType": "bytes32",
          "name": "role",
          "type": "bytes32"
        },
        {
          "indexed": true,
          "internalType": "bytes32",
          "name": "previousAdminRole",
          "type": "bytes32"
        },
        {
          "indexed": true,
          "internalType": "bytes32",
          "name": "newAdminRole",
          "type": "bytes32"
        }
      ],
      "name": "RoleAdminChanged",
      "type": "event"
    },
    {
      "anonymous": false,
      "inputs": [
        {
          "indexed": true,
          "internalType": "bytes32",
          "name": "role",
          "type": "bytes32"
        },
        {
          "indexed": true,
          "internalType": "address",
          "name": "account",
          "type": "address"
        },
        {
          "indexed": true,
          "internalType": "address",
          "name": "sender",
          "type": "address"
        }
      ],
      "name": "RoleGranted",
      "type": "event"
    },
    {
      "anonymous": false,
      "inputs": [
        {
          "indexed": true,
          "internalType": "bytes32",
          "name": "role",
          "type": "bytes32"
        },
        {
          "indexed": true,
          "internalType": "address",
          "name": "account",
          "type": "address"
        },
        {
          "indexed": true,
          "internalType": "address",
          "name": "sender",
          "type": "address"
        }
      ],
      "name": "RoleRevoked",
      "type": "event"
    },
    {
      "anonymous": false,
      "inputs": [
        {
          "indexed": false,
          "internalType": "uint256",
          "name": "oldInterval",
          "type": "uint256"
        },
        {
          "indexed": false,
          "internalType": "uint256",
          "name": "newInterval",
          "type": "uint256"
        }
      ],
      "name": "SweepIntervalUpdated",
      "type": "event"
    },
    {
      "anonymous": false,
      "inputs": [
        {
          "indexed": false,
          "internalType": "address",
          "name": "account",
          "type": "address"
        }
      ],
      "name": "Unpaused",
      "type": "event"
    },
    {
      "inputs": [],
      "name": "ADMIN_ROLE",
      "outputs": [
        {
          "internalType": "bytes32",
          "name": "",
          "type": "bytes32"
        }
      ],
      "stateMutability": "view",
      "type": "function"
    },
    {
      "inputs": [],
      "name": "DEFAULT_ADMIN_ROLE",
      "outputs": [
        {
          "internalType": "bytes32",
          "name": "",
          "type": "bytes32"
        }
      ],
      "stateMutability": "view",
      "type": "function"
    },
    {
      "inputs": [],
      "name": "OPERATOR_ROLE",
      "outputs": [
        {
          "internalType": "bytes32",
          "name": "",
          "type": "bytes32"
        }
      ],
      "stateMutability": "view",
      "type": "function"
    },
    {
      "inputs": [],
      "name": "PAUSER_ROLE",
      "outputs": [
        {
          "internalType": "bytes32",
          "name": "",
          "type": "bytes32"
        }
      ],
      "stateMutability": "view",
      "type": "function"
    },
    {
      "inputs": [],
      "name": "TREASURY_ROLE",
      "outputs": [
        {
          "internalType": "bytes32",
          "name": "",
          "type": "bytes32"
        }
      ],
      "stateMutability": "view",
      "type": "function"
    },
    {
      "inputs": [
        {
          "internalType": "uint256",
          "name": "",
          "type": "uint256"
        }
      ],
      "name": "activeSources",
      "outputs": [
        {
          "internalType": "address",
          "name": "",
          "type": "address"
        }
      ],
      "stateMutability": "view",
      "type": "function"
    },
    {
      "inputs": [
        {
          "internalType": "address",
          "name": "recipient",
          "type": "address"
        },
        {
          "internalType": "uint256",
          "name": "basisPoints",
          "type": "uint256"
        },
        {
          "internalType": "string",
          "name": "description",
          "type": "string"
        }
      ],
      "name": "addRecipient",
      "outputs": [],
      "stateMutability": "nonpayable",
      "type": "function"
    },
    {
      "inputs": [
        {
          "internalType": "address",
          "name": "token",
          "type": "address"
        }
      ],
      "name": "canSweepToken",
      "outputs": [
        {
          "internalType": "bool",
          "name": "",
          "type": "bool"
        },
        {
          "internalType": "string",
          "name": "reason",
          "type": "string"
        }
      ],
      "stateMutability": "view",
      "type": "function"
    },
    {
      "inputs": [],
      "name": "emergencyMode",
      "outputs": [
        {
          "internalType": "bool",
          "name": "",
          "type": "bool"
        }
      ],
      "stateMutability": "view",
      "type": "function"
    },
    {
      "inputs": [],
      "name": "emergencyRecipient",
      "outputs": [
        {
          "internalType": "address",
          "name": "",
          "type": "address"
        }
      ],
      "stateMutability": "view",
      "type": "function"
    },
    {
      "inputs": [
        {
          "internalType": "address",
          "name": "token",
          "type": "address"
        }
      ],
      "name": "emergencySweep",
      "outputs": [],
      "stateMutability": "nonpayable",
      "type": "function"
    },
    {
      "inputs": [
        {
          "internalType": "address",
          "name": "",
          "type": "address"
        }
      ],
      "name": "feeSources",
      "outputs": [
        {
          "internalType": "address",
          "name": "source",
          "type": "address"
        },
        {
          "internalType": "string",
          "name": "description",
          "type": "string"
        },
        {
          "internalType": "uint256",
          "name": "totalFeesReceived",
          "type": "uint256"
        },
        {
          "internalType": "bool",
          "name": "active",
          "type": "bool"
        }
      ],
      "stateMutability": "view",
      "type": "function"
    },
    {
      "inputs": [],
      "name": "getAllRecipients",
      "outputs": [
        {
          "internalType": "uint256[]",
          "name": "ids",
          "type": "uint256[]"
        },
        {
          "components": [
            {
              "internalType": "address",
              "name": "recipient",
              "type": "address"
            },
            {
              "internalType": "uint256",
              "name": "basisPoints",
              "type": "uint256"
            },
            {
              "internalType": "bool",
              "name": "active",
              "type": "bool"
            },
            {
              "internalType": "string",
              "name": "description",
              "type": "string"
            }
          ],
          "internalType": "struct FeeTreasury.Recipient[]",
          "name": "recipientList",
          "type": "tuple[]"
        }
      ],
      "stateMutability": "view",
      "type": "function"
    },
    {
      "inputs": [],
      "name": "getFeeSources",
      "outputs": [
        {
          "internalType": "address[]",
          "name": "sources",
          "type": "address[]"
        },
        {
          "components": [
            {
              "internalType": "address",
              "name": "source",
              "type": "address"
            },
            {
              "internalType": "string",
              "name": "description",
              "type": "string"
            },
            {
              "internalType": "uint256",
              "name": "totalFeesReceived",
              "type": "uint256"
            },
            {
              "internalType": "bool",
              "name": "active",
              "type": "bool"
            }
          ],
          "internalType": "struct FeeTreasury.FeeSource[]",
          "name": "sourceData",
          "type": "tuple[]"
        }
      ],
      "stateMutability": "view",
      "type": "function"
    },
    {
      "inputs": [
        {
          "internalType": "bytes32",
          "name": "role",
          "type": "bytes32"
        }
      ],
      "name": "getRoleAdmin",
      "outputs": [
        {
          "internalType": "bytes32",
          "name": "",
          "type": "bytes32"
        }
      ],
      "stateMutability": "view",
      "type": "function"
    },
    {
      "inputs": [],
      "name": "getTokenBalances",
      "outputs": [
        {
          "internalType": "address[]",
          "name": "tokens",
          "type": "address[]"
        },
        {
          "components": [
            {
              "internalType": "address",
              "name": "token",
              "type": "address"
            },
            {
              "internalType": "uint256",
              "name": "totalReceived",
              "type": "uint256"
            },
            {
              "internalType": "uint256",
              "name": "totalDistributed",
              "type": "uint256"
            },
            {
              "internalType": "uint256",
              "name": "currentBalance",
              "type": "uint256"
            },
            {
              "internalType": "uint256",
              "name": "lastSweepTime",
              "type": "uint256"
            }
          ],
          "internalType": "struct FeeTreasury.TokenBalance[]",
          "name": "balances",
          "type": "tuple[]"
        }
      ],
      "stateMutability": "view",
      "type": "function"
    },
    {
      "inputs": [
        {
          "internalType": "bytes32",
          "name": "role",
          "type": "bytes32"
        },
        {
          "internalType": "address",
          "name": "account",
          "type": "address"
        }
      ],
      "name": "grantRole",
      "outputs": [],
      "stateMutability": "nonpayable",
      "type": "function"
    },
    {
      "inputs": [
        {
          "internalType": "bytes32",
          "name": "role",
          "type": "bytes32"
        },
        {
          "internalType": "address",
          "name": "account",
          "type": "address"
        }
      ],
      "name": "hasRole",
      "outputs": [
        {
          "internalType": "bool",
          "name": "",
          "type": "bool"
        }
      ],
      "stateMutability": "view",
      "type": "function"
    },
    {
      "inputs": [],
      "name": "lastGlobalSweep",
      "outputs": [
        {
          "internalType": "uint256",
          "name": "",
          "type": "uint256"
        }
      ],
      "stateMutability": "view",
      "type": "function"
    },
    {
      "inputs": [],
      "name": "minimumSweepInterval",
      "outputs": [
        {
          "internalType": "uint256",
          "name": "",
          "type": "uint256"
        }
      ],
      "stateMutability": "view",
      "type": "function"
    },
    {
      "inputs": [],
      "name": "nextRecipientId",
      "outputs": [
        {
          "internalType": "uint256",
          "name": "",
          "type": "uint256"
        }
      ],
      "stateMutability": "view",
      "type": "function"
    },
    {
      "inputs": [],
      "name": "pause",
      "outputs": [],
      "stateMutability": "nonpayable",
      "type": "function"
    },
    {
      "inputs": [],
      "name": "paused",
      "outputs": [
        {
          "internalType": "bool",
          "name": "",
          "type": "bool"
        }
      ],
      "stateMutability": "view",
      "type": "function"
    },
    {
      "inputs": [
        {
          "internalType": "address",
          "name": "token",
          "type": "address"
        },
        {
          "internalType": "uint256",
          "name": "amount",
          "type": "uint256"
        },
        {
          "internalType": "string",
          "name": "sourceDescription",
          "type": "string"
        }
      ],
      "name": "receiveFees",
      "outputs": [],
      "stateMutability": "nonpayable",
      "type": "function"
    },
    {
      "inputs": [
        {
          "internalType": "uint256",
          "name": "",
          "type": "uint256"
        }
      ],
      "name": "recipientIds",
      "outputs": [
        {
          "internalType": "uint256",
          "name": "",
          "type": "uint256"
        }
      ],
      "stateMutability": "view",
      "type": "function"
    },
    {
      "inputs": [
        {
          "internalType": "uint256",
          "name": "",
          "type": "uint256"
        }
      ],
      "name": "recipients",
      "outputs": [
        {
          "internalType": "address",
          "name": "recipient",
          "type": "address"
        },
        {
          "internalType": "uint256",
          "name": "basisPoints",
          "type": "uint256"
        },
        {
          "internalType": "bool",
          "name": "active",
          "type": "bool"
        },
        {
          "internalType": "string",
          "name": "description",
          "type": "string"
        }
      ],
      "stateMutability": "view",
      "type": "function"
    },
    {
      "inputs": [
        {
          "internalType": "address",
          "name": "source",
          "type": "address"
        },
        {
          "internalType": "string",
          "name": "description",
          "type": "string"
        }
      ],
      "name": "registerFeeSource",
      "outputs": [],
      "stateMutability": "nonpayable",
      "type": "function"
    },
    {
      "inputs": [
        {
          "internalType": "bytes32",
          "name": "role",
          "type": "bytes32"
        },
        {
          "internalType": "address",
          "name": "account",
          "type": "address"
        }
      ],
      "name": "renounceRole",
      "outputs": [],
      "stateMutability": "nonpayable",
      "type": "function"
    },
    {
      "inputs": [
        {
          "internalType": "bytes32",
          "name": "role",
          "type": "bytes32"
        },
        {
          "internalType": "address",
          "name": "account",
          "type": "address"
        }
      ],
      "name": "revokeRole",
      "outputs": [],
      "stateMutability": "nonpayable",
      "type": "function"
    },
    {
      "inputs": [
        {
          "internalType": "bool",
          "name": "enabled",
          "type": "bool"
        }
      ],
      "name": "setEmergencyMode",
      "outputs": [],
      "stateMutability": "nonpayable",
      "type": "function"
    },
    {
      "inputs": [
        {
          "internalType": "address",
          "name": "newEmergencyRecipient",
          "type": "address"
        }
      ],
      "name": "setEmergencyRecipient",
      "outputs": [],
      "stateMutability": "nonpayable",
      "type": "function"
    },
    {
      "inputs": [
        {
          "internalType": "uint256",
          "name": "newInterval",
          "type": "uint256"
        }
      ],
      "name": "setMinimumSweepInterval",
      "outputs": [],
      "stateMutability": "nonpayable",
      "type": "function"
    },
    {
      "inputs": [
        {
          "internalType": "bytes4",
          "name": "interfaceId",
          "type": "bytes4"
        }
      ],
      "name": "supportsInterface",
      "outputs": [
        {
          "internalType": "bool",
          "name": "",
          "type": "bool"
        }
      ],
      "stateMutability": "view",
      "type": "function"
    },
    {
      "inputs": [],
      "name": "sweepAllTokens",
      "outputs": [],
      "stateMutability": "nonpayable",
      "type": "function"
    },
    {
      "inputs": [
        {
          "internalType": "address",
          "name": "token",
          "type": "address"
        }
      ],
      "name": "sweepToken",
      "outputs": [],
      "stateMutability": "nonpayable",
      "type": "function"
    },
    {
      "inputs": [
        {
          "internalType": "address",
          "name": "",
          "type": "address"
        }
      ],
      "name": "tokenBalances",
      "outputs": [
        {
          "internalType": "address",
          "name": "token",
          "type": "address"
        },
        {
          "internalType": "uint256",
          "name": "totalReceived",
          "type": "uint256"
        },
        {
          "internalType": "uint256",
          "name": "totalDistributed",
          "type": "uint256"
        },
        {
          "internalType": "uint256",
          "name": "currentBalance",
          "type": "uint256"
        },
        {
          "internalType": "uint256",
          "name": "lastSweepTime",
          "type": "uint256"
        }
      ],
      "stateMutability": "view",
      "type": "function"
    },
    {
      "inputs": [],
      "name": "totalAllocationBps",
      "outputs": [
        {
          "internalType": "uint256",
          "name": "",
          "type": "uint256"
        }
      ],
      "stateMutability": "view",
      "type": "function"
    },
    {
      "inputs": [
        {
          "internalType": "uint256",
          "name": "",
          "type": "uint256"
        }
      ],
      "name": "trackedTokens",
      "outputs": [
        {
          "internalType": "address",
          "name": "",
          "type": "address"
        }
      ],
      "stateMutability": "view",
      "type": "function"
    },
    {
      "inputs": [],
      "name": "unpause",
      "outputs": [],
      "stateMutability": "nonpayable",
      "type": "function"
    },
    {
      "inputs": [
        {
          "internalType": "uint256",
          "name": "recipientId",
          "type": "uint256"
        },
        {
          "internalType": "address",
          "name": "newRecipient",
          "type": "address"
        },
        {
          "internalType": "uint256",
          "name": "newBasisPoints",
          "type": "uint256"
        },
        {
          "internalType": "bool",
          "name": "active",
          "type": "bool"
        }
      ],
      "name": "updateRecipient",
      "outputs": [],
      "stateMutability": "nonpayable",
      "type": "function"
    },
    {
      "stateMutability": "payable",
      "type": "receive"
    }
  ],
  "bytecode": "0x6080604052346200061a57620038fe803803806200001d816200061f565b9283398101906060818303126200061a57620000398162000645565b620000476020830162000645565b604083015190926001600160401b0382116200061a570183601f820112156200061a5780516001600160401b038111620003e65762000090601f8201601f19166020016200061f565b94818652602082840101116200061a57620000b291602080870191016200065a565b6001805460ff191681556002819055600555610e10600b55600d805460ff60a01b191690556001600160a01b03168015801562000608575b6200052c576000818152600080516020620038de833981519152602052604090205460ff1615620005c4575b60008181527f9e5c930214a7bc8a78d251e617445bcdba028aed2ede5828cc6cd6c8261656f560205260409020547fe1dcbdb91df27212a29bc27177c840cf2f819ecf2187432e1fac86c2dd5dfca99060ff161562000581575b5060008181527ff7c9542c591017a21c74b6f3fab6263c7952fc0aaf9db4c22a2a04ddc7f8674f60205260409020547f65d7a28e3265b37a6474929f336521b332c1681b933f6cb9f3376673440d862a919060ff16156200053e575b5050600d80546001600160a01b0319166001600160a01b038316908117909155156200052c5760065461271062000203826200067f565b11620005025750600554906000198214620004ec57600182016005556040516001600160401b036080820190811190821117620003e6576080810160405260018060a01b038216815260036020820191612710835260408101600181526060820193878552866000528360205260406000209260018060a01b0390511660018060a01b0319845416178355516001830155600282019051151560ff8019835416911617905501905180519060018060401b038211620003e657825490600182811c92168015620004e1575b6020831014620004cb5781601f84931162000473575b50602090601f83116001146200040857600092620003fc575b50508160011b916000199060031b1c19161790555b6004549068010000000000000000821015620003e6576001820180600455821015620003d057827fe501ede4036d18ff60b59175b2fb42bbd2ed89a9f9a0d7f71f43f02f508aca0292600460005260206000200155620003746006546200067f565b60065560606040518092612710825260406020830152620003a587518098816040860152602086860191016200065a565b6001600160a01b031695601f01601f19168101030190a342600c5560405161322e9081620006908239f35b634e487b7160e01b600052603260045260246000fd5b634e487b7160e01b600052604160045260246000fd5b015190503880620002fd565b6000858152602081209350601f198516905b8181106200045a575090846001959493921062000440575b505050811b01905562000312565b015160001960f88460031b161c1916905538808062000432565b929360206001819287860151815501950193016200041a565b909150836000526020600020601f840160051c81019160208510620004c0575b90601f859493920160051c01905b818110620004b05750620002e4565b60008155849350600101620004a1565b909150819062000493565b634e487b7160e01b600052602260045260246000fd5b91607f1691620002ce565b634e487b7160e01b600052601160045260246000fd5b6200050f6044916200067f565b604051906378a31c0960e01b825260048201526127106024820152fd5b60405163d92e233d60e01b8152600490fd5b8160005260006020526040600020816000526020526040600020600160ff198254161790553391600080516020620038be833981519152600080a43880620001cc565b8060005260006020526040600020826000526020526040600020600160ff19825416179055813391600080516020620038be833981519152600080a43862000170565b6000818152600080516020620038de83398151915260205260408120805460ff1916600117905533908290600080516020620038be8339815191528180a462000116565b506001600160a01b03821615620000ea565b600080fd5b6040519190601f01601f191682016001600160401b03811183821017620003e657604052565b51906001600160a01b03821682036200061a57565b60005b8381106200066e5750506000910152565b81810151838201526020016200065d565b906127108201809211620004ec5756fe60806040526004361015610023575b361561001957600080fd5b610021612375565b005b60003560e01c806301853eaf1461029e57806301ffc9a7146102995780630905f560146102945780631871613b1461028f57806319fbe9d71461028a5780631b035932146102855780631be19560146102805780631eccebd61461027b578063248a9ca3146102765780632f2ff15d146102715780632ffd6c5f1461026c578063309411c41461026757806330f2c1301461026257806336568abe1461025d57806338383028146102585780633f4ba83a14610253578063523fba7f1461024e57806353b5d4b7146102495780635c975abb1461024457806375b238fc146102215780638305368a1461023f5780638456cb591461023a5780638c443eea1461023557806391d14854146102305780639ece4ea41461022b578063a1dc903114610226578063a217fddf14610221578063a85557521461021c578063b74513c114610217578063be32b3f814610212578063be9ee11f1461020d578063c10c986a14610208578063c2fb328414610203578063d11a57ec146101fe578063d1bc76a1146101f9578063d547741f146101f4578063e0e401d9146101ef578063e63ab1e9146101ea578063ed57b37c146101e55763f5b541a60361000e57611aa4565b611a57565b611a2e565b6119ec565b6119ad565b61192f565b6118f6565b611847565b611807565b6117de565b61175f565b611695565b61153f565b610e55565b6112e5565b611185565b61101b565b610fdc565b610eba565b610e71565b610e32565b610e14565b610dab565b610ccc565b610c83565b610b85565b610b67565b610a07565b610874565b6107be565b61078f565b610771565b61069d565b610657565b610639565b6104c6565b6103f5565b61039f565b3461039a57600080600319360112610397576102b8611adf565b60016102c860ff8254161561200b565b6102d660028054141561204a565b60028055600d5460a01c60ff166103855781815b610306575b826102f942600c55565b6103036001600255565b80f35b600854811015610380578061033561032061034b93610c2d565b905460039190911b1c6001600160a01b031690565b61033e81612a3a565b80610351575b505061246b565b816102ea565b61036a600461035f84610d60565b0154600b5490611e01565b42106103445761037991612b80565b3880610344565b6102ef565b6040516319e1bef560e01b8152600490fd5b80fd5b600080fd5b3461039a57602036600319011261039a5760043563ffffffff60e01b811680910361039a57602090637965db0b60e01b81149081156103e4575b506040519015158152f35b6301ffc9a760e01b149050386103d9565b3461039a57600036600319011261039a57602060ff600d5460a01c166040519015158152f35b6001600160a01b031690565b600435906001600160a01b038216820361039a57565b602435906001600160a01b038216820361039a57565b9181601f8401121561039a578235916001600160401b03831161039a576020838186019501011161039a57565b606060031982011261039a576004356001600160a01b038116810361039a579160243591604435906001600160401b03821161039a576104c291600401610453565b9091565b3461039a576104e96104d736610480565b6104e2949294611bba565b3691612096565b6001600160a01b038216928315610627578015801561061c575b610602576006546127106105178383611e01565b116105ca5750907fe501ede4036d18ff60b59175b2fb42bbd2ed89a9f9a0d7f71f43f02f508aca0291610599600554946105586105538761246b565b600555565b610572610563611e0e565b6001600160a01b039092168252565b8260208201526105856040820160019052565b8360608201526105948661191f565b6125c2565b6105a2846126c8565b6105b66105b182600654611e01565b600655565b6105c5604051928392836126fe565b0390a3005b6105fe916105d791611e01565b6040516378a31c0960e01b8152600481019190915261271060248201529081906044820190565b0390fd5b604051630cbf8cb160e11b81526004810191909152602490fd5b506127108111610503565b60405163d92e233d60e01b8152600490fd5b3461039a57600036600319011261039a576020600c54604051908152f35b3461039a57602036600319011261039a57610670610427565b610678611bba565b6001600160a01b0316801561062757600d80546001600160a01b031916919091179055005b3461039a57602036600319011261039a576106b6610427565b6106be611adf565b6106cd60ff600154161561200b565b6106db60028054141561204a565b60028055600d5460a01c60ff16610385576106f581612a3a565b801561075057600461070683610d60565b015491600b54926107178482611e01565b4210610731576107278383612b80565b6100216001600255565b6040516301a4d2dd60e21b81529081906105fe9086906004840161245a565b6040516373b9f10160e11b81526001600160a01b0383166004820152602490fd5b3461039a57600036600319011261039a576020600554604051908152f35b3461039a57602036600319011261039a5760043560005260006020526020600160406000200154604051908152f35b3461039a57604036600319011261039a576004356107da61043d565b600091808352826020526107f46001604085200154611c7e565b8083528260205260ff61080a8360408620610d94565b541615610815578280f35b808352826020526108298260408520610d94565b805460ff1916600117905533916001600160a01b0316907f2f8788117e7eff1d82e926ec794901d17c78024a50270940304540a733656f0d8480a438808280f35b8015150361039a57565b3461039a57608036600319011261039a5760043561089061043d565b906064356044356108a08261086a565b6108a8611bba565b6001600160a01b03806108ca6108bd8661191f565b546001600160a01b031690565b16156109ee578416938415610627576127108083116109d5578360016108ef8761191f565b015461090760026108ff8961191f565b015460ff1690565b6109c0575b50610984575b50906109487f9a329ee47b7d150789a0f04635fce750ff72409cc248b708fdc76972e2f45a8493926109438661191f565b61254f565b8060016109548661191f565b015561096b8260026109658761191f565b01611d50565b60408051918252911515602082015290819081016105c5565b6109936105b184600654611e01565b60065490811115610912576040516378a31c0960e01b815260048101919091526127106024820152604490fd5b6105b16109cf91600654612542565b3861090c565b604051630cbf8cb160e11b815260048101849052602490fd5b604051633358afa760e01b815260048101859052602490fd5b3461039a57602036600319011261039a57610a20610427565b610a28611bba565b610a3660028054141561204a565b60028055600d5490610a4d60ff8360a01c1661247a565b610a5681612a3a565b9081610a66576100216001600255565b6001600160a01b03808216936000805160206131d983398151915293610b51939092610ac09290849088610b5c5750610abb9150600080808093610aab600d5461041b565b5af1610ab5612305565b506124c2565b610d60565b60028101610acf838254611e01565b90556000600382015560044291015583610af2610aed600d5461041b565b61041b565b6000805160206130f983398151915260405180610b40868260a09181526000602082015260606040820152600f60608201526e0456d657267656e637920737765657608c1b60808201520190565b0390a360405191829142908361245a565b0390a2388080610727565b610abb921688612504565b3461039a57600036600319011261039a576020600654604051908152f35b3461039a57604036600319011261039a57610b9e61043d565b336001600160a01b03821603610bba5761002190600435611d61565b60405162461bcd60e51b815260206004820152602f60248201527f416363657373436f6e74726f6c3a2063616e206f6e6c792072656e6f756e636560448201526e103937b632b9903337b91039b2b63360891b6064820152608490fd5b634e487b7160e01b600052603260045260246000fd5b600854811015610c4857600860005260206000200190600090565b610c17565b600a54811015610c4857600a60005260206000200190600090565b600454811015610c4857600460005260206000200190600090565b3461039a57602036600319011261039a57600435600a5481101561039a57600a6000526000805160206130d983398151915201546040516001600160a01b039091168152602090f35b3461039a57600036600319011261039a57610ce5611bba565b60015460ff811615610d245760ff19166001557f5db9ee0a495bf2e6ff9c91a7834c1ba4fdd244a5e8aa4e537bd38aeae4b073aa6020604051338152a1005b60405162461bcd60e51b815260206004820152601460248201527314185d5cd8589b194e881b9bdd081c185d5cd95960621b6044820152606490fd5b6001600160a01b0316600090815260076020526040902090565b6001600160a01b0316600090815260096020526040902090565b9060018060a01b0316600052602052604060002090565b3461039a57602036600319011261039a5760a06001600160a01b0380610dcf610427565b16600052600760205260406000209081541690600181015490600281015460046003830154920154926040519485526020850152604084015260608301526080820152f35b3461039a57600036600319011261039a576020600b54604051908152f35b3461039a57600036600319011261039a57602060ff600154166040519015158152f35b3461039a57600036600319011261039a57602060405160008152f35b3461039a57602036600319011261039a5760043560085481101561039a57600860005260008051602061313983398151915201546040516001600160a01b039091168152602090f35b3461039a576000806003193601126103975760008051602061311983398151915281528060205260ff610ef03360408420610d94565b541615610f3d5760018054610f0860ff82161561200b565b60ff1916176001557f62e78cea01bee320cd4e420270b5ea74000d11b0c9f74754ebdbfc544b05a2586020604051338152a180f35b6105fe6048610fc4610f4e33611efc565b610fb6610f59611f8c565b60405194859376020b1b1b2b9b9a1b7b73a3937b61d1030b1b1b7bab73a1604d1b6020860152610f93815180926020603789019101611098565b84017001034b99036b4b9b9b4b733903937b6329607d1b60378201520190611d25565b03601f19810183528261151c565b60405162461bcd60e51b815291829160048301611d3c565b3461039a57602036600319011261039a5760043560045481101561039a5760046000526000805160206131798339815191520154604051908152602090f35b3461039a57604036600319011261039a57602060ff61104f61103b61043d565b600435600052600084526040600020610d94565b54166040519015158152f35b90815180825260208080930193019160005b82811061107b575050505090565b83516001600160a01b03168552938101939281019260010161106d565b60005b8381106110ab5750506000910152565b818101518382015260200161109b565b906020916110d481518092818552858086019101611098565b601f01601f1916010190565b6110f26040928383528383019061105b565b906020908181840391015283519182815281810182808560051b8401019601946000925b858410611127575050505050505090565b909192939495968580600192601f198582030187528a5190848060a01b03825116815261116083830151608080868501528301906110bb565b9187810151888301526060809101511515910152990194019401929594939190611116565b3461039a576000806003193601126103975761119f612ec0565b600a54916111ac83612dda565b926040916111bc8351958661151c565b818552601f196111cb83612dda565b01815b8181106112335750505b8181106111f35750506111ef9051928392836110e0565b0390f35b8061121361120e61120961032061122e95610c4d565b610d7a565b612fb7565b61121d8288612e5d565b526112288187612e5d565b5061246b565b6111d8565b6020908551611241816114c6565b84815260608584918083850152818a850152830152828a010152016111ce565b6112736040928383528383019061105b565b90602090818184039101528080855193848152019401926000905b83821061129d57505050505090565b845180516001600160a01b0316875280840151878501528082015187830152606080820151908801526080908101519087015260a0909501949382019360019091019061128e565b3461039a57600080600319360112610397576112ff612f19565b6008549161130c83612dda565b9260409161131c8351958661151c565b818552601f1961132b83612dda565b01815b8181106113ad5750505b81811061134f5750506111ef905192839283611261565b8061136a611365610abb6103206113a895610c2d565b612f72565b6113748288612e5d565b5261137f8187612e5d565b5061139461138f61032083610c2d565b612a3a565b60606113a08389612e5d565b51015261246b565b611338565b60209085516113bb816114e6565b8481528285818301528588830152856060830152856080830152828a0101520161132e565b90600182811c92168015611410575b60208310146113fa57565b634e487b7160e01b600052602260045260246000fd5b91607f16916113ef565b906000929180549161142b836113e0565b91828252600193848116908160001461148d575060011461144d575b50505050565b90919394506000526020928360002092846000945b838610611479575050505001019038808080611447565b805485870183015294019385908201611462565b9294505050602093945060ff191683830152151560051b01019038808080611447565b634e487b7160e01b600052604160045260246000fd5b608081019081106001600160401b038211176114e157604052565b6114b0565b60a081019081106001600160401b038211176114e157604052565b604081019081106001600160401b038211176114e157604052565b601f909101601f19168101906001600160401b038211908210176114e157604052565b3461039a57602036600319011261039a576001600160a01b0380611561610427565b1660005260096020526040600020908154166040519161158f83611588816001850161141a565b038461151c565b60ff60036002830154920154166115b860405194859485526080602086015260808501906110bb565b916040840152151560608301520390f35b60409182820183835281518091526060928381019160208094019060005b81811061168157505050828183039101528451928382528282019083808660051b8501019701956000935b86851061162457505050505050505090565b9091929394959697868061166f600193601f19868203018952878d51868060a01b038151168352848101518584015288810151151589840152015190608090818a82015201906110bb565b9a019501950193969594929190611612565b8251855293850193918501916001016115e7565b3461039a57600080600319360112610397576040516004805480835290835260008051602061317983398151915282602080820190865b8581106117485750506116e19250038361151c565b6116ea81612df1565b925b8181106117045750506111ef604051928392836115c9565b8061172e61172961172461171a61174395610c68565b90549060031b1c90565b61191f565b612e71565b6117388287612e5d565b526112288186612e5d565b6116ec565b8454835260019485019487945092820192016116cc565b3461039a57602036600319011261039a577fc35ed978e97c366b3a5f9375508bcfbca850fca66bf334b9477118918e6eaa40604060043561179f8161086a565b6117a7611bba565b600d805460ff60a01b19811692151560a081901b60ff60a01b169390931790915582519182526001600160a01b03166020820152a1005b3461039a57600036600319011261039a57600d546040516001600160a01b039091168152602090f35b3461039a57602036600319011261039a57611828611823610427565b613034565b906111ef604051928392151583526040602084015260408301906110bb565b3461039a57602036600319011261039a57600435611863611bba565b610258811015806118e9575b156118b1577f71b14cf5694bf938256c8b275389a4af90356a0d4571469d499361561116ed9190600b5481600b556118ac6040519283928361245a565b0390a1005b60405162461bcd60e51b815260206004820152601060248201526f125b9d985b1a59081a5b9d195c9d985b60821b6044820152606490fd5b5062093a8081111561186f565b3461039a57600036600319011261039a5760206040516000805160206131998339815191528152f35b6000526003602052604060002090565b3461039a57602036600319011261039a576004356000526003602052604060002060018060a01b038154166111ef600360018401549361198860ff60028301541691611981604051809581930161141a565b038361151c565b60405194859485526020850152151560408401526080606084015260808301906110bb565b3461039a57604036600319011261039a576100216004356119cc61043d565b908060005260006020526119e7600160406000200154611c7e565b611d61565b3461039a57611a276119fd36610480565b92611a1060ff600194939454161561200b565b611a1e60028054141561204a565b600280556120fb565b6001600255005b3461039a57600036600319011261039a5760206040516000805160206131198339815191528152f35b3461039a57604036600319011261039a57611a70610427565b602435906001600160401b03821161039a57611a9e611a96610021933690600401610453565b6104e2611bba565b906127aa565b3461039a57600036600319011261039a5760206040517f97667070c54ef182b0f5858b034beac1b6f3089aa2d3188bb1e8929f4fa9b9298152f35b600080516020613199833981519152600081815260205260ff611b22337f9e5c930214a7bc8a78d251e617445bcdba028aed2ede5828cc6cd6c8261656f5610d94565b541615611b2c5750565b611b3533611efc565b611b3d611e5b565b916030611b4984611e76565b536078611b5584611e83565b5360415b60018111611b78576105fe6048610fc485610fb688610f598815611eb1565b90600f8116906010821015610c4857611bb5916f181899199a1a9b1b9c1cb0b131b232b360811b901a611bab8487611e93565b5360041c91611ea4565b611b59565b600080805260205260ff611bee337fad3228b676f7d3cd4284a5443f17f1962b36e491b30a40b2405849e597ba5fb5610d94565b541615611bf757565b611c0033611efc565b600090611c0b611e5b565b916030611c1784611e76565b536078611c2384611e83565b5360415b60018111611c46576105fe6048610fc485610fb688610f598815611eb1565b90600f8116906010821015610c4857611c79916f181899199a1a9b1b9c1cb0b131b232b360811b901a611bab8487611e93565b611c27565b80600052600060205260ff611c97336040600020610d94565b541615611ca15750565b611caa33611efc565b611cb2611e5b565b916030611cbe84611e76565b536078611cca84611e83565b5360415b60018111611ced576105fe6048610fc485610fb688610f598815611eb1565b90600f8116906010821015610c4857611d20916f181899199a1a9b1b9c1cb0b131b232b360811b901a611bab8487611e93565b611cce565b90611d3860209282815194859201611098565b0190565b906020611d4d9281815201906110bb565b90565b9060ff801983541691151516179055565b6000908082528160205260ff611d7a8460408520610d94565b5416611d8557505050565b80825281602052611d998360408420610d94565b805460ff1916905533926001600160a01b0316917ff6391f5c32d9c69d2a47ea670b442974b53935d1edc7fd64eb21e047a839171b9080a4565b634e487b7160e01b600052601160045260246000fd5b81810292918115918404141715611dfc57565b611dd3565b91908201809211611dfc57565b60405190611e1b826114c6565b565b6001600160401b0381116114e157601f01601f191660200190565b60405190602082016001600160401b038111838210176114e15760405260008252565b60405190611e68826114c6565b604282526060366020840137565b805115610c485760200190565b805160011015610c485760210190565b908151811015610c48570160200190565b8015611dfc576000190190565b15611eb857565b606460405162461bcd60e51b815260206004820152602060248201527f537472696e67733a20686578206c656e67746820696e73756666696369656e746044820152fd5b60405190606082016001600160401b038111838210176114e157604052602a825260403660208401376030611f3083611e76565b536078611f3c83611e83565b536029905b60018211611f5457611d4d915015611eb1565b600f8116906010821015610c4857611f86916f181899199a1a9b1b9c1cb0b131b232b360811b901a611bab8486611e93565b90611f41565b600080516020613119833981519152611fa3611e5b565b906030611faf83611e76565b536078611fbb83611e83565b536041905b60018211611fd357611d4d915015611eb1565b600f8116906010821015610c4857612005916f181899199a1a9b1b9c1cb0b131b232b360811b901a611bab8486611e93565b90611fc0565b1561201257565b60405162461bcd60e51b815260206004820152601060248201526f14185d5cd8589b194e881c185d5cd95960821b6044820152606490fd5b1561205157565b60405162461bcd60e51b815260206004820152601f60248201527f5265656e7472616e637947756172643a207265656e7472616e742063616c6c006044820152606490fd5b9291926120a282611e1d565b916120b0604051938461151c565b82948184528183011161039a578281602093846000960137010152565b91926060938192845260406020850152816040850152848401376000828201840152601f01601f1916010190565b6001600160a01b0380821694929390929185156106275784156121b4578461217b916000805160206131598339815191529561213633610d7a565b54161561219b575b6121766040516323b872dd60e01b602082015233602482015230604482015283606482015260648152612170816114e6565b89612230565b612960565b6121858433612a11565b6121966040519283923396846120cd565b0390a3565b6121af6121a9368787612096565b336127aa565b61213e565b505050505050565b9081602091031261039a5751611d4d8161086a565b156121d857565b60405162461bcd60e51b815260206004820152602a60248201527f5361666545524332303a204552433230206f7065726174696f6e20646964206e6044820152691bdd081cdd58d8d9595960b21b6064820152608490fd5b6040516001600160a01b03919091169161224982611501565b6020928383527f5361666545524332303a206c6f772d6c6576656c2063616c6c206661696c656484840152803b156122c0576000828192828761229b9796519301915af1612295612305565b90612335565b805190816122a857505050565b82611e1b936122bb9383010191016121bc565b6121d1565b60405162461bcd60e51b815260048101859052601d60248201527f416464726573733a2063616c6c20746f206e6f6e2d636f6e74726163740000006044820152606490fd5b3d15612330573d9061231682611e1d565b91612324604051938461151c565b82523d6000602084013e565b606090565b90919015612341575090565b8151156123515750805190602001fd5b60405162461bcd60e51b8152602060048201529081906105fe9060248301906110bb565b61238460ff600154161561200b565b3461238b57565b6000805260076020527f6d5257204ebe7d88fd91ae87941cb2dd9d8062b64ae5a2bd2d28ec40b9fbf6df80546001600160a01b0381161580612452575b612438575b5060018101908154348101809111611dfc576003925501805490348201809211611dfc57556123fc3433612a11565b60006040513481526040602082015260076040820152664554482066656560c81b606082015260008051602061315983398151915260803392a3565b6001600160a01b031916815561244c612767565b386123cd565b5060006123c8565b908152602081019190915260400190565b6000198114611dfc5760010190565b1561248157565b60405162461bcd60e51b8152602060048201526019602482015278456d657267656e6379206d6f6465206e6f742061637469766560381b6044820152606490fd5b156124c957565b60405162461bcd60e51b8152602060048201526013602482015272115512081d1c985b9cd9995c8819985a5b1959606a1b6044820152606490fd5b60405163a9059cbb60e01b60208201526001600160a01b039092166024830152604480830193909352918152611e1b9161253d826114c6565b612230565b91908203918211611dfc57565b80546001600160a01b0319166001600160a01b03909216919091179055565b90601f811161257c57505050565b600091825260208220906020601f850160051c830194106125b8575b601f0160051c01915b8281106125ad57505050565b8181556001016125a1565b9092508290612598565b81516125d7906001600160a01b03168261254f565b6020606060038285015193600194858201556125fc6040870151151560028301611d50565b019301519081519160018060401b0383116114e1576126258361261f87546113e0565b8761256e565b81601f841160011461265e5750928293918392600094612653575b50501b916000199060031b1c1916179055565b015192503880612640565b919083601f19811661267588600052602060002090565b946000905b888383106126ae5750505010612695575b505050811b019055565b015160001960f88460031b161c1916905538808061268b565b85870151885590960195948501948793509081019061267a565b600454600160401b8110156114e1576001810180600455811015610c485760046000526000805160206131798339815191520155565b604090611d4d9392815281602082015201906110bb565b600a54600160401b8110156114e1576001810180600a55811015610c4857600a6000526000805160206130d98339815191520180546001600160a01b0319166001600160a01b03909216919091179055565b600854600160401b8110156114e1576001810180600855811015610c485760086000526000805160206131398339815191520180546001600160a01b0319169055565b9060018060a01b0391828116926000908482526020906009825280604084205416156127d857505050505050565b604051926127e5846114c6565b868452828401908682526040850192818452606086019461281760019283885261280e8a610d7a565b9851168861254f565b818701935180519360018060401b0385116114e1576128408561283a88546113e0565b8861256e565b82601f86116001146128cc5750956128a29585806000805160206131b98339815191529d9b9760039761289b976128b39f9c976128a79e98946128c1575b50501b9160001990881b1c19161790555b51600285015551151590565b9101611d50565b612715565b60405191829182611d3c565b0390a23880808080806121b4565b01519250388061287e565b601f95949593929193198516906128e888600052602060002090565b94905b828210612949575050956000805160206131b98339815191529b99958561289b956128a79b956128b39e9b956003996128a29c10612931575b505050811b01905561288f565b0151600019838a1b60f8161c19169055388080612924565b8088869782949787015181550196019401906128eb565b6001600160a01b038181166000818152600760205260409020805490939192161580612a08575b6129b3575b505060018101908154838101809111611dfc5760039255018054918201809211611dfc5755565b6129bd908361254f565b600854600160401b8110156114e1576001810180600855811015610c485760086000526000805160206131398339815191520180546001600160a01b0319169091179055388061298c565b50811515612987565b6001600160a01b031660009081526009602052604090206002018054918201918210611dfc5755565b6001600160a01b031680612a4d57504790565b6020602491604051928380926370a0823160e01b82523060048301525afa908115612aab57600091612a7d575090565b906020823d8211612aa3575b81612a966020938361151c565b8101031261039757505190565b3d9150612a89565b6040513d6000823e3d90fd5b15612abe57565b60405162461bcd60e51b81526020600482015260176024820152764e6f20616d6f756e7420746f206469737472696275746560481b6044820152606490fd5b8115612b07570490565b634e487b7160e01b600052601260045260246000fd5b611d4d939260609282526020820152816040820152019061141a565b15612b4057565b60405162461bcd60e51b8152602060048201526018602482015277111d5cdd08115512081d1c985b9cd9995c8819985a5b195960421b6044820152606490fd5b90612b8c811515612ab7565b600090815b600454811015612c9157612ba761171a82610c68565b612bb08161191f565b600281015460ff1680612c84575b612bd3575b5050612bce9061246b565b612b91565b612bed612be4600183015486611de9565b60065490612afd565b9182612bfa575b50612bc3565b9194612bce93926001600160a01b0388811693926000805160206130f98339815191529290612c6690612c48908b9087828a612c7157600080808093610aab612c43965461041b565b611e01565b99612c53865461041b565b9260036040519586951697019184612b1d565b0390a3903880612bf4565b612c7e612c43925461041b565b8b612504565b5060018101541515612bbe565b509190612c9e9083612542565b80151580612dcf575b612d0a575b50612d0581612cc96000805160206131d983398151915293610d60565b60028101612cd8868254611e01565b9055612ce382612a3a565b600382015560044291015560405191829160018060a01b03169442908361245a565b0390a2565b92909160005b600454811015612db257612d2961172461171a83610c68565b600281015460ff16612d445750612d3f9061246b565b612d10565b929491936000805160206131d983398151915293612d0593919250906001600160a01b03831680612d9a5750600080808093612d83612d93965461041b565b5af1612d8d612305565b50612b39565b9150612cac565b612da7612dad935461041b565b90612504565b612d93565b50916000805160206131d9833981519152919350612d0590612d93565b506004541515612ca7565b6001600160401b0381116114e15760051b60200190565b90612dfb82612dda565b604090612e0a8251918261151c565b8381528093612e1b601f1991612dda565b0191600091825b848110612e30575050505050565b6020908351612e3e816114c6565b8581528286818301528686830152606080830152828501015201612e22565b8051821015610c485760209160051b010190565b9060036060604051612e82816114c6565b612ebc819560018060a01b0381541683526001810154602084015260ff60028201541615156040840152611588604051809681930161141a565b0152565b60405190600a548083528260209182820190600a60005283600020936000905b828210612ef657505050611e1b9250038361151c565b85546001600160a01b031684526001958601958895509381019390910190612ee0565b604051906008548083528260209182820190600860005283600020936000905b828210612f4f57505050611e1b9250038361151c565b85546001600160a01b031684526001958601958895509381019390910190612f39565b90604051612f7f816114e6565b82546001600160a01b031681526001830154602082015260028301546040820152600383015460608201526004909201546080830152565b90604051612fc4816114c6565b606060ff6003839560018060a01b038154168552604051612ff381612fec816001860161141a565b038261151c565b6020860152600281015460408601520154161515910152565b6040519061301982611501565b600c82526b151bdbc8199c995c5d595b9d60a21b6020830152565b60ff600d5460a01c166130a35761304a81612a3a565b1561307957600461035f61305d92610d60565b421061306e57600190611d4d611e38565b600090611d4d61300c565b5060009060405161308981611501565b600a8152694e6f2062616c616e636560b01b602082015290565b506000906040516130b381611501565b6015815274456d657267656e6379206d6f64652061637469766560581b60208201529056fec65a7bb8d6351c1cf70c95a316cc6a92839c986682d98bc35f958f4883f9d2a898fbf8a29704fcbfdd58ba246b1ad065b560082cd2bce4a5079dbb7f5e1545f865d7a28e3265b37a6474929f336521b332c1681b933f6cb9f3376673440d862af3f7a9fe364faab93b216da50a3214154f22a0a2b415b23a84c8169e8b636ee35bb20974b726a1051d8699e401824ad922dc068b1be7eb44c493ee509b6cfd688a35acfbc15ff81a39ae7d344fd709f28e8600b4aa8c65c6b64bfe7fe36bd19be1dcbdb91df27212a29bc27177c840cf2f819ecf2187432e1fac86c2dd5dfca9d8741ff33186e73a792f452832f9739d782539ff04f7dc132366ce53a5c5d57b3661bac89c3ea626ca01b086d5318887ed39ba827c11d06622e519fbad882c22a26469706673582212203f8e23d4e6ed4a3ba49c755c927b3268ad09255fa4dab1baf367a291fc847f9964736f6c634300081400332f8788117e7eff1d82e926ec794901d17c78024a50270940304540a733656f0dad3228b676f7d3cd4284a5443f17f1962b36e491b30a40b2405849e597ba5fb5",
  "linkReferences": {},
  "deployedLinkReferences": {}
}