{
  "_format": "hh-sol-artifact-1",
  "contractName": "OracleRouter",
  "sourceName": "contracts/oracles/OracleRouter.sol",
  "abi": [
    {
      "inputs": [
        {
          "internalType": "address",
          "name": "_oraklFeed",
          "type": "address"
        },
        {
          "internalType": "address",
          "name": "_dinoOracle",
          "type": "address"
        },
        {
          "internalType": "address",
          "name": "_admin",
          "type": "address"
        }
      ],
      "stateMutability": "nonpayable",
      "type": "constructor"
    },
    {
      "inputs": [
        {
          "internalType": "bytes32",
          "name": "identifier",
          "type": "bytes32"
        }
      ],
      "name": "EmergencyModeActive",
      "type": "error"
    },
    {
      "inputs": [
        {
          "internalType": "bytes32",
          "name": "identifier",
          "type": "bytes32"
        }
      ],
      "name": "IdentifierNotConfigured",
      "type": "error"
    },
    {
      "inputs": [],
      "name": "InvalidConfiguration",
      "type": "error"
    },
    {
      "inputs": [
        {
          "internalType": "bytes32",
          "name": "identifier",
          "type": "bytes32"
        }
      ],
      "name": "NoValidPrice",
      "type": "error"
    },
    {
      "inputs": [
        {
          "internalType": "enum OracleRouter.OracleType",
          "name": "oracleType",
          "type": "uint8"
        }
      ],
      "name": "OracleNotAvailable",
      "type": "error"
    },
    {
      "inputs": [
        {
          "internalType": "uint256",
          "name": "deviation",
          "type": "uint256"
        },
        {
          "internalType": "uint256",
          "name": "maxDeviation",
          "type": "uint256"
        }
      ],
      "name": "PriceDeviationTooHigh",
      "type": "error"
    },
    {
      "inputs": [
        {
          "internalType": "uint256",
          "name": "lastUpdate",
          "type": "uint256"
        },
        {
          "internalType": "uint256",
          "name": "maxStaleness",
          "type": "uint256"
        }
      ],
      "name": "PriceTooStale",
      "type": "error"
    },
    {
      "inputs": [],
      "name": "ZeroAddress",
      "type": "error"
    },
    {
      "anonymous": false,
      "inputs": [
        {
          "indexed": true,
          "internalType": "bytes32",
          "name": "identifier",
          "type": "bytes32"
        },
        {
          "indexed": false,
          "internalType": "bool",
          "name": "enabled",
          "type": "bool"
        }
      ],
      "name": "EmergencyModeToggled",
      "type": "event"
    },
    {
      "anonymous": false,
      "inputs": [
        {
          "indexed": true,
          "internalType": "bytes32",
          "name": "identifier",
          "type": "bytes32"
        },
        {
          "indexed": false,
          "internalType": "enum OracleRouter.OracleType",
          "name": "failedType",
          "type": "uint8"
        },
        {
          "indexed": false,
          "internalType": "enum OracleRouter.OracleType",
          "name": "fallbackType",
          "type": "uint8"
        },
        {
          "indexed": false,
          "internalType": "string",
          "name": "reason",
          "type": "string"
        }
      ],
      "name": "FallbackTriggered",
      "type": "event"
    },
    {
      "anonymous": false,
      "inputs": [
        {
          "indexed": true,
          "internalType": "bytes32",
          "name": "identifier",
          "type": "bytes32"
        },
        {
          "indexed": false,
          "internalType": "uint256",
          "name": "timestamp",
          "type": "uint256"
        },
        {
          "indexed": false,
          "internalType": "uint256",
          "name": "price",
          "type": "uint256"
        },
        {
          "indexed": false,
          "internalType": "address",
          "name": "setter",
          "type": "address"
        }
      ],
      "name": "ManualPriceSet",
      "type": "event"
    },
    {
      "anonymous": false,
      "inputs": [
        {
          "indexed": true,
          "internalType": "bytes32",
          "name": "identifier",
          "type": "bytes32"
        },
        {
          "indexed": false,
          "internalType": "enum OracleRouter.OracleType",
          "name": "primaryType",
          "type": "uint8"
        },
        {
          "indexed": false,
          "internalType": "enum OracleRouter.FallbackStrategy",
          "name": "fallbackStrategy",
          "type": "uint8"
        },
        {
          "indexed": false,
          "internalType": "uint256",
          "name": "maxDeviationBps",
          "type": "uint256"
        },
        {
          "indexed": false,
          "internalType": "uint256",
          "name": "maxStaleness",
          "type": "uint256"
        }
      ],
      "name": "OracleConfigured",
      "type": "event"
    },
    {
      "anonymous": false,
      "inputs": [
        {
          "indexed": false,
          "internalType": "address",
          "name": "account",
          "type": "address"
        }
      ],
      "name": "Paused",
      "type": "event"
    },
    {
      "anonymous": false,
      "inputs": [
        {
          "indexed": true,
          "internalType": "bytes32",
          "name": "identifier",
          "type": "bytes32"
        },
        {
          "indexed": false,
          "internalType": "uint256",
          "name": "oraklPrice",
          "type": "uint256"
        },
        {
          "indexed": false,
          "internalType": "uint256",
          "name": "dinoPrice",
          "type": "uint256"
        },
        {
          "indexed": false,
          "internalType": "uint256",
          "name": "deviationBps",
          "type": "uint256"
        }
      ],
      "name": "PriceDeviationAlert",
      "type": "event"
    },
    {
      "anonymous": false,
      "inputs": [
        {
          "indexed": true,
          "internalType": "bytes32",
          "name": "identifier",
          "type": "bytes32"
        },
        {
          "indexed": false,
          "internalType": "uint256",
          "name": "timestamp",
          "type": "uint256"
        },
        {
          "indexed": false,
          "internalType": "enum OracleRouter.OracleType",
          "name": "requestedType",
          "type": "uint8"
        }
      ],
      "name": "PriceRequested",
      "type": "event"
    },
    {
      "anonymous": false,
      "inputs": [
        {
          "indexed": true,
          "internalType": "bytes32",
          "name": "identifier",
          "type": "bytes32"
        },
        {
          "indexed": false,
          "internalType": "uint256",
          "name": "price",
          "type": "uint256"
        },
        {
          "indexed": false,
          "internalType": "uint256",
          "name": "timestamp",
          "type": "uint256"
        },
        {
          "indexed": false,
          "internalType": "enum OracleRouter.OracleType",
          "name": "source",
          "type": "uint8"
        }
      ],
      "name": "PriceRetrieved",
      "type": "event"
    },
    {
      "anonymous": false,
      "inputs": [
        {
          "indexed": true,
          "internalType": "bytes32",
          "name": "role",
          "type": "bytes32"
        },
        {
          "indexed": true,
          "internalType": "bytes32",
          "name": "previousAdminRole",
          "type": "bytes32"
        },
        {
          "indexed": true,
          "internalType": "bytes32",
          "name": "newAdminRole",
          "type": "bytes32"
        }
      ],
      "name": "RoleAdminChanged",
      "type": "event"
    },
    {
      "anonymous": false,
      "inputs": [
        {
          "indexed": true,
          "internalType": "bytes32",
          "name": "role",
          "type": "bytes32"
        },
        {
          "indexed": true,
          "internalType": "address",
          "name": "account",
          "type": "address"
        },
        {
          "indexed": true,
          "internalType": "address",
          "name": "sender",
          "type": "address"
        }
      ],
      "name": "RoleGranted",
      "type": "event"
    },
    {
      "anonymous": false,
      "inputs": [
        {
          "indexed": true,
          "internalType": "bytes32",
          "name": "role",
          "type": "bytes32"
        },
        {
          "indexed": true,
          "internalType": "address",
          "name": "account",
          "type": "address"
        },
        {
          "indexed": true,
          "internalType": "address",
          "name": "sender",
          "type": "address"
        }
      ],
      "name": "RoleRevoked",
      "type": "event"
    },
    {
      "anonymous": false,
      "inputs": [
        {
          "indexed": false,
          "internalType": "address",
          "name": "account",
          "type": "address"
        }
      ],
      "name": "Unpaused",
      "type": "event"
    },
    {
      "inputs": [],
      "name": "ADMIN_ROLE",
      "outputs": [
        {
          "internalType": "bytes32",
          "name": "",
          "type": "bytes32"
        }
      ],
      "stateMutability": "view",
      "type": "function"
    },
    {
      "inputs": [],
      "name": "DEFAULT_ADMIN_ROLE",
      "outputs": [
        {
          "internalType": "bytes32",
          "name": "",
          "type": "bytes32"
        }
      ],
      "stateMutability": "view",
      "type": "function"
    },
    {
      "inputs": [],
      "name": "OPERATOR_ROLE",
      "outputs": [
        {
          "internalType": "bytes32",
          "name": "",
          "type": "bytes32"
        }
      ],
      "stateMutability": "view",
      "type": "function"
    },
    {
      "inputs": [
        {
          "internalType": "bytes32",
          "name": "identifier",
          "type": "bytes32"
        }
      ],
      "name": "comparePrices",
      "outputs": [
        {
          "components": [
            {
              "internalType": "uint256",
              "name": "price",
              "type": "uint256"
            },
            {
              "internalType": "uint256",
              "name": "timestamp",
              "type": "uint256"
            },
            {
              "internalType": "enum OracleRouter.OracleType",
              "name": "source",
              "type": "uint8"
            },
            {
              "internalType": "bool",
              "name": "valid",
              "type": "bool"
            },
            {
              "internalType": "string",
              "name": "error",
              "type": "string"
            }
          ],
          "internalType": "struct OracleRouter.PriceResult",
          "name": "oraklResult",
          "type": "tuple"
        },
        {
          "components": [
            {
              "internalType": "uint256",
              "name": "price",
              "type": "uint256"
            },
            {
              "internalType": "uint256",
              "name": "timestamp",
              "type": "uint256"
            },
            {
              "internalType": "enum OracleRouter.OracleType",
              "name": "source",
              "type": "uint8"
            },
            {
              "internalType": "bool",
              "name": "valid",
              "type": "bool"
            },
            {
              "internalType": "string",
              "name": "error",
              "type": "string"
            }
          ],
          "internalType": "struct OracleRouter.PriceResult",
          "name": "dinoResult",
          "type": "tuple"
        },
        {
          "internalType": "uint256",
          "name": "deviation",
          "type": "uint256"
        }
      ],
      "stateMutability": "view",
      "type": "function"
    },
    {
      "inputs": [
        {
          "internalType": "bytes32",
          "name": "identifier",
          "type": "bytes32"
        },
        {
          "internalType": "enum OracleRouter.OracleType",
          "name": "primaryType",
          "type": "uint8"
        },
        {
          "internalType": "enum OracleRouter.FallbackStrategy",
          "name": "fallbackStrategy",
          "type": "uint8"
        },
        {
          "internalType": "uint256",
          "name": "maxDeviationBps",
          "type": "uint256"
        },
        {
          "internalType": "uint256",
          "name": "maxStaleness",
          "type": "uint256"
        },
        {
          "internalType": "string",
          "name": "description",
          "type": "string"
        }
      ],
      "name": "configureOracle",
      "outputs": [],
      "stateMutability": "nonpayable",
      "type": "function"
    },
    {
      "inputs": [
        {
          "internalType": "uint256",
          "name": "",
          "type": "uint256"
        }
      ],
      "name": "configuredIdentifiers",
      "outputs": [
        {
          "internalType": "bytes32",
          "name": "",
          "type": "bytes32"
        }
      ],
      "stateMutability": "view",
      "type": "function"
    },
    {
      "inputs": [
        {
          "internalType": "bytes32",
          "name": "identifier",
          "type": "bytes32"
        }
      ],
      "name": "deactivateOracle",
      "outputs": [],
      "stateMutability": "nonpayable",
      "type": "function"
    },
    {
      "inputs": [],
      "name": "dinoOracle",
      "outputs": [
        {
          "internalType": "contract DinoOracle",
          "name": "",
          "type": "address"
        }
      ],
      "stateMutability": "view",
      "type": "function"
    },
    {
      "inputs": [
        {
          "internalType": "bytes32",
          "name": "",
          "type": "bytes32"
        }
      ],
      "name": "emergencyMode",
      "outputs": [
        {
          "internalType": "bool",
          "name": "",
          "type": "bool"
        }
      ],
      "stateMutability": "view",
      "type": "function"
    },
    {
      "inputs": [],
      "name": "getConfiguredIdentifiers",
      "outputs": [
        {
          "internalType": "bytes32[]",
          "name": "",
          "type": "bytes32[]"
        }
      ],
      "stateMutability": "view",
      "type": "function"
    },
    {
      "inputs": [
        {
          "internalType": "bytes32",
          "name": "identifier",
          "type": "bytes32"
        }
      ],
      "name": "getOracleConfig",
      "outputs": [
        {
          "components": [
            {
              "internalType": "enum OracleRouter.OracleType",
              "name": "primaryType",
              "type": "uint8"
            },
            {
              "internalType": "enum OracleRouter.FallbackStrategy",
              "name": "fallbackStrategy",
              "type": "uint8"
            },
            {
              "internalType": "uint256",
              "name": "maxPriceDeviationBps",
              "type": "uint256"
            },
            {
              "internalType": "uint256",
              "name": "maxStaleness",
              "type": "uint256"
            },
            {
              "internalType": "bool",
              "name": "active",
              "type": "bool"
            },
            {
              "internalType": "string",
              "name": "description",
              "type": "string"
            }
          ],
          "internalType": "struct OracleRouter.OracleConfig",
          "name": "",
          "type": "tuple"
        }
      ],
      "stateMutability": "view",
      "type": "function"
    },
    {
      "inputs": [
        {
          "internalType": "bytes32",
          "name": "identifier",
          "type": "bytes32"
        }
      ],
      "name": "getPrice",
      "outputs": [
        {
          "components": [
            {
              "internalType": "uint256",
              "name": "price",
              "type": "uint256"
            },
            {
              "internalType": "uint256",
              "name": "timestamp",
              "type": "uint256"
            },
            {
              "internalType": "enum OracleRouter.OracleType",
              "name": "source",
              "type": "uint8"
            },
            {
              "internalType": "bool",
              "name": "valid",
              "type": "bool"
            },
            {
              "internalType": "string",
              "name": "error",
              "type": "string"
            }
          ],
          "internalType": "struct OracleRouter.PriceResult",
          "name": "result",
          "type": "tuple"
        }
      ],
      "stateMutability": "view",
      "type": "function"
    },
    {
      "inputs": [
        {
          "internalType": "bytes32",
          "name": "identifier",
          "type": "bytes32"
        },
        {
          "internalType": "uint256",
          "name": "timestamp",
          "type": "uint256"
        }
      ],
      "name": "getPriceAtTimestamp",
      "outputs": [
        {
          "components": [
            {
              "internalType": "uint256",
              "name": "price",
              "type": "uint256"
            },
            {
              "internalType": "uint256",
              "name": "timestamp",
              "type": "uint256"
            },
            {
              "internalType": "enum OracleRouter.OracleType",
              "name": "source",
              "type": "uint8"
            },
            {
              "internalType": "bool",
              "name": "valid",
              "type": "bool"
            },
            {
              "internalType": "string",
              "name": "error",
              "type": "string"
            }
          ],
          "internalType": "struct OracleRouter.PriceResult",
          "name": "result",
          "type": "tuple"
        }
      ],
      "stateMutability": "view",
      "type": "function"
    },
    {
      "inputs": [
        {
          "internalType": "bytes32",
          "name": "role",
          "type": "bytes32"
        }
      ],
      "name": "getRoleAdmin",
      "outputs": [
        {
          "internalType": "bytes32",
          "name": "",
          "type": "bytes32"
        }
      ],
      "stateMutability": "view",
      "type": "function"
    },
    {
      "inputs": [
        {
          "internalType": "bytes32",
          "name": "role",
          "type": "bytes32"
        },
        {
          "internalType": "address",
          "name": "account",
          "type": "address"
        }
      ],
      "name": "grantRole",
      "outputs": [],
      "stateMutability": "nonpayable",
      "type": "function"
    },
    {
      "inputs": [
        {
          "internalType": "bytes32",
          "name": "role",
          "type": "bytes32"
        },
        {
          "internalType": "address",
          "name": "account",
          "type": "address"
        }
      ],
      "name": "hasRole",
      "outputs": [
        {
          "internalType": "bool",
          "name": "",
          "type": "bool"
        }
      ],
      "stateMutability": "view",
      "type": "function"
    },
    {
      "inputs": [
        {
          "internalType": "bytes32",
          "name": "identifier",
          "type": "bytes32"
        }
      ],
      "name": "isConfigured",
      "outputs": [
        {
          "internalType": "bool",
          "name": "",
          "type": "bool"
        }
      ],
      "stateMutability": "view",
      "type": "function"
    },
    {
      "inputs": [
        {
          "internalType": "bytes32",
          "name": "",
          "type": "bytes32"
        }
      ],
      "name": "lastDinoPrice",
      "outputs": [
        {
          "internalType": "uint256",
          "name": "",
          "type": "uint256"
        }
      ],
      "stateMutability": "view",
      "type": "function"
    },
    {
      "inputs": [
        {
          "internalType": "bytes32",
          "name": "",
          "type": "bytes32"
        }
      ],
      "name": "lastOraklPrice",
      "outputs": [
        {
          "internalType": "uint256",
          "name": "",
          "type": "uint256"
        }
      ],
      "stateMutability": "view",
      "type": "function"
    },
    {
      "inputs": [
        {
          "internalType": "bytes32",
          "name": "",
          "type": "bytes32"
        }
      ],
      "name": "lastPriceUpdate",
      "outputs": [
        {
          "internalType": "uint256",
          "name": "",
          "type": "uint256"
        }
      ],
      "stateMutability": "view",
      "type": "function"
    },
    {
      "inputs": [
        {
          "internalType": "bytes32",
          "name": "",
          "type": "bytes32"
        },
        {
          "internalType": "uint256",
          "name": "",
          "type": "uint256"
        }
      ],
      "name": "manualPrices",
      "outputs": [
        {
          "internalType": "uint256",
          "name": "",
          "type": "uint256"
        }
      ],
      "stateMutability": "view",
      "type": "function"
    },
    {
      "inputs": [
        {
          "internalType": "bytes32",
          "name": "",
          "type": "bytes32"
        }
      ],
      "name": "oracleConfigs",
      "outputs": [
        {
          "internalType": "enum OracleRouter.OracleType",
          "name": "primaryType",
          "type": "uint8"
        },
        {
          "internalType": "enum OracleRouter.FallbackStrategy",
          "name": "fallbackStrategy",
          "type": "uint8"
        },
        {
          "internalType": "uint256",
          "name": "maxPriceDeviationBps",
          "type": "uint256"
        },
        {
          "internalType": "uint256",
          "name": "maxStaleness",
          "type": "uint256"
        },
        {
          "internalType": "bool",
          "name": "active",
          "type": "bool"
        },
        {
          "internalType": "string",
          "name": "description",
          "type": "string"
        }
      ],
      "stateMutability": "view",
      "type": "function"
    },
    {
      "inputs": [],
      "name": "oraklFeed",
      "outputs": [
        {
          "internalType": "contract OraklPriceFeed",
          "name": "",
          "type": "address"
        }
      ],
      "stateMutability": "view",
      "type": "function"
    },
    {
      "inputs": [],
      "name": "pause",
      "outputs": [],
      "stateMutability": "nonpayable",
      "type": "function"
    },
    {
      "inputs": [],
      "name": "paused",
      "outputs": [
        {
          "internalType": "bool",
          "name": "",
          "type": "bool"
        }
      ],
      "stateMutability": "view",
      "type": "function"
    },
    {
      "inputs": [
        {
          "internalType": "bytes32",
          "name": "role",
          "type": "bytes32"
        },
        {
          "internalType": "address",
          "name": "account",
          "type": "address"
        }
      ],
      "name": "renounceRole",
      "outputs": [],
      "stateMutability": "nonpayable",
      "type": "function"
    },
    {
      "inputs": [
        {
          "internalType": "bytes32",
          "name": "role",
          "type": "bytes32"
        },
        {
          "internalType": "address",
          "name": "account",
          "type": "address"
        }
      ],
      "name": "revokeRole",
      "outputs": [],
      "stateMutability": "nonpayable",
      "type": "function"
    },
    {
      "inputs": [
        {
          "internalType": "bytes32",
          "name": "identifier",
          "type": "bytes32"
        },
        {
          "internalType": "bool",
          "name": "enabled",
          "type": "bool"
        }
      ],
      "name": "setEmergencyMode",
      "outputs": [],
      "stateMutability": "nonpayable",
      "type": "function"
    },
    {
      "inputs": [
        {
          "internalType": "bytes32",
          "name": "identifier",
          "type": "bytes32"
        },
        {
          "internalType": "uint256",
          "name": "timestamp",
          "type": "uint256"
        },
        {
          "internalType": "uint256",
          "name": "price",
          "type": "uint256"
        }
      ],
      "name": "setManualPrice",
      "outputs": [],
      "stateMutability": "nonpayable",
      "type": "function"
    },
    {
      "inputs": [
        {
          "internalType": "bytes4",
          "name": "interfaceId",
          "type": "bytes4"
        }
      ],
      "name": "supportsInterface",
      "outputs": [
        {
          "internalType": "bool",
          "name": "",
          "type": "bool"
        }
      ],
      "stateMutability": "view",
      "type": "function"
    },
    {
      "inputs": [],
      "name": "unpause",
      "outputs": [],
      "stateMutability": "nonpayable",
      "type": "function"
    }
  ],
  "bytecode": "0x60c034620001df57601f62002c9e38819003918201601f191683019291906001600160401b03841183851017620001e4578160609284926040968752833981010312620001df576200005181620001fa565b9060206200006e8462000066838501620001fa565b9301620001fa565b9160ff1990816001541660015560018060a01b0380951680158015620001d4575b8015620001c9575b620001b857608052841660a0526000808052808352858120939094168085529282528484205460ff161562000182575b7f97667070c54ef182b0f5858b034beac1b6f3089aa2d3188bb1e8929f4fa9b92991828552848152858520848652815260ff86862054161562000149575b8551612a6e9081620002108239608051818181610d8d01528181610e6901526121e8015260a0518181816109f701528181610ed901528181611da401526124150152f35b828552848152858520908486525260018585209182541617905560008051602062002c7e833981519152339380a4388080808062000105565b838052838252848420838552825284842060018282541617905533838560008051602062002c7e8339815191528180a4620000c7565b865163d92e233d60e01b8152600490fd5b508585161562000097565b50858216156200008f565b600080fd5b634e487b7160e01b600052604160045260246000fd5b51906001600160a01b0382168203620001df5756fe6080604052600436101561001257600080fd5b60003560e01c8062cfe1571461132557806301ffc9a7146112cf5780630ccbd8281461129e5780631579d78a14610df45780631adb852814610dbc5780631f07946814610d77578063248a9ca314610d485780632f2ff15d14610ca357806331d98b3f14610c6c57806336568abe14610be85780633f4ba83a14610b545780635c975abb14610b3157806375b238fc1461091257806379793cfc14610a265780637acb2cef146109e1578063828a1a5c146109b55780638456cb591461095757806391d1485414610917578063a217fddf14610912578063a7b18d9b146108df578063b3b36f8b14610552578063b528d3921461050c578063b996be53146104d8578063c52daebb146104ac578063d547741f1461047b578063deee4135146103e8578063dfc9d5141461034f578063f229fece146102da578063f5b541a61461029f578063f83c26b8146101a15763fb512cb31461017057600080fd5b3461019c57602036600319011261019c5760043560005260086020526020604060002054604051908152f35b600080fd5b3461019c57602036600319011261019c576004356101bd611676565b80600052600260205260038060406000200160ff19815416905560005b81548082101561029d57836101ee8361143b565b905490851b1c14610208575061020390611b19565b6101da565b6000199350838101908111610287576102326102266102499261143b565b905490851b1c9261143b565b819391549060031b91821b91600019901b19161790565b9055805480156102715782019161025f8361143b565b9091825491841b1b1916905555600080f35b634e487b7160e01b600052603160045260246000fd5b634e487b7160e01b600052601160045260246000fd5b005b3461019c57600036600319011261019c5760206040517f97667070c54ef182b0f5858b034beac1b6f3089aa2d3188bb1e8929f4fa9b9298152f35b3461019c57606036600319011261019c576004357f8e8ae6a3fe913f02195cd829c302037873420417bfbe15ad5cd832afcc782177606060243560443561031f611676565b846000526004602052604060002082600052602052806040600020556040519182526020820152336040820152a2005b3461019c57600036600319011261019c5760405180600354808352602080930180916003600052846000209060005b868282106103d4578686610394828803836115ad565b604051928392818401908285525180915260408401929160005b8281106103bd57505050500390f35b8351855286955093810193928101926001016103ae565b83548552909301926001928301920161037e565b3461019c57602036600319011261019c57600435600052600260205261045560406000206104778154916001810154906002810154610431600460ff60038501541693016115d0565b9260405196866104458960ff819a1661139e565b60ff602089019160081c166114ae565b604086015260608501521515608084015260c060a084015260c08301906113ce565b0390f35b3461019c5761029d61048c3661146c565b908060005260006020526104a760016040600020015461185e565b611968565b3461019c57602036600319011261019c5760043560005260066020526020604060002054604051908152f35b3461019c57602036600319011261019c576004356000526002602052602060ff600360406000200154166040519015158152f35b3461019c5761047761053e610520366114bb565b90610529611b35565b5061053960ff6001541615611b63565b611c9d565b6040519182916020835260208301906113f3565b3461019c5760c036600319011261019c57602435600381101561019c57604435600481101561019c5760843590606435906001600160401b0360a4351161019c5736602360a43501121561019c576001600160401b03600460a43501351161019c5736602460a4356004013560a43501011161019c576105d0611676565b61271082116108cd5782156108cd57600435600052600260205260ff6003604060002001541615610888575b6040516106088161150b565b6106128582611b01565b61061f8260208301611b0d565b8260408201528360608201526001608082015261064160a435600401356119e9565b9061064f60405192836115ad565b60a43560048101358084529060240160208401376000602060a435600401358401015260a08101918252600435600052600260205260406000208151916003831015610872578154906020810151906004821015610872576004946106f39360ff61ff0060809560081b1692169061ffff191617178455604081015160018501556060810151600285015501511515600383019060ff801983541691151516179055565b9151805191909201916001600160401b03821161085c5761071483546114d1565b601f8111610814575b50602090601f83116001146107a757610768949392916000918361079c575b50508160011b916000199060031b1c19161790555b61075e604051809661139e565b60208501906114ae565b604083015260608201527f7429ea71474749e3257410752b09236e8d6d31981ffc0b0baee52f7273400a4e608060043592a2005b01519050888061073c565b90601f198316918460005260206000209260005b8181106107fc575091600193918561076898979694106107e3575b505050811b019055610751565b015160001960f88460031b161c191690558880806107d6565b929360206001819287860151815501950193016107bb565b836000526020600020601f840160051c81019160208510610852575b601f0160051c01905b818110610846575061071d565b60008155600101610839565b9091508190610830565b634e487b7160e01b600052604160045260246000fd5b634e487b7160e01b600052602160045260246000fd5b600354600160401b81101561085c576108aa8160016108c6930160035561143b565b6004929192359083549060031b91821b91600019901b19161790565b90556105fc565b60405163c52a9bd360e01b8152600490fd5b3461019c576108ed366114bb565b9060005260046020526040600020906000526020526020604060002054604051908152f35b611492565b3461019c576109253661146c565b90600052600060205260406000209060018060a01b0316600052602052602060ff604060002054166040519015158152f35b3461019c57600036600319011261019c57610970611676565b6001805461098160ff821615611b63565b60ff1916176001557f62e78cea01bee320cd4e420270b5ea74000d11b0c9f74754ebdbfc544b05a2586020604051338152a1005b3461019c57602036600319011261019c5760043560005260076020526020604060002054604051908152f35b3461019c57600036600319011261019c576040517f00000000000000000000000000000000000000000000000000000000000000006001600160a01b03168152602090f35b3461019c5760208060031936011261019c57606060a0604051610a488161150b565b60008152600084820152600060408201526000838201526000608082015201526004356000526002815260406000209061047760405192610a888461150b565b805490610a9860ff831686611b01565b610aab60ff8587019360081c1683611b0d565b60018101546040860190815260028201549060608701918252610b0c610ae4600460ff6003870154169560808b019615158752016115d0565b9460a08901958652610b0160405199898b9a8b528a01905161139e565b5160408801906114ae565b51606086015251608085015251151560a08401525160c08084015260e08301906113ce565b3461019c57600036600319011261019c57602060ff600154166040519015158152f35b3461019c57600036600319011261019c57610b6d611676565b60015460ff811615610bac5760ff19166001557f5db9ee0a495bf2e6ff9c91a7834c1ba4fdd244a5e8aa4e537bd38aeae4b073aa6020604051338152a1005b60405162461bcd60e51b815260206004820152601460248201527314185d5cd8589b194e881b9bdd081c185d5cd95960621b6044820152606490fd5b3461019c57610bf63661146c565b336001600160a01b03821603610c0f5761029d91611968565b60405162461bcd60e51b815260206004820152602f60248201527f416363657373436f6e74726f6c3a2063616e206f6e6c792072656e6f756e636560448201526e103937b632b9903337b91039b2b63360891b6064820152608490fd5b3461019c57602036600319011261019c57610c85611b35565b50610c9560ff6001541615611b63565b61047761053e600435611ba2565b3461019c57610cb13661146c565b816000526000602052610ccb60016040600020015461185e565b81600052600060205260406000209060018060a01b0316908160005260205260ff6040600020541615610cfa57005b8160005260006020526040600020816000526020526040600020600160ff1982541617905533917f2f8788117e7eff1d82e926ec794901d17c78024a50270940304540a733656f0d600080a4005b3461019c57602036600319011261019c5760043560005260006020526020600160406000200154604051908152f35b3461019c57600036600319011261019c576040517f00000000000000000000000000000000000000000000000000000000000000006001600160a01b03168152602090f35b3461019c57602036600319011261019c5760043560035481101561019c57610de560209161143b565b90549060031b1c604051908152f35b3461019c5760208060031936011261019c57600435610e11611b35565b50610e1a611b35565b50600090610e26611b35565b91610e3082612801565b936040519463f66a1b7160e01b865281600487015285610e5660809260248301906113ce565b6001600160a01b039791839183919003817f00000000000000000000000000000000000000000000000000000000000000008b165afa60009181611229575b5061118157506001610ea5612117565b6308c379a01461111d575b6110eb575b6040610ebf611b35565b94602482518099819363b2ee2f0160e01b835260048301527f0000000000000000000000000000000000000000000000000000000000000000165afa95866000916000916110b1575b50610f5a9761102c5750506001610f1d612117565b6308c379a014610fc9575b610f97575b505b6060840151151580610f8a575b610f71575b610f6791926040519586956060875260608701906113f3565b91858303908601526113f3565b9060408301520390f35b610f679150610f838451845190612785565b9150610f41565b5060608301511515610f3c565b60405190610fa48261155c565b601082526f11125393c818d85b1b0819985a5b195960821b8383015284015285610f2d565b610fd1612135565b80610fdd575b50610f28565b9050600090611022602c60405180936b02224a7279032b93937b91d160a51b88830152611012815180928a86860191016113ab565b810103600c8101845201826115ad565b8286015287610fd7565b909294831515806110a9575b1561107957506040519261104b84611526565b83528483015260016040830152600160608301526040519061106c82611577565b6000825282015291610f2f565b949250506040519061108a8261155c565b60188252600080516020612a1983398151915283830152840152610f2f565b506001611038565b9150506040813d6040116110e3575b816110cd604093836115ad565b8101031261019c57805190830151610f5a610f08565b3d91506110c0565b6040516110f78161155c565b601181527013dc985adb0818d85b1b0819985a5b1959607a1b8382015281860152610eb5565b611125612135565b80611131575b50610eb0565b9050600090611177602d60405180936c027b930b5b61032b93937b91d1609d1b88830152611167815180928a86860191016113ab565b810103600d8101845201826115ad565b828701528761112b565b90946060820151151580611210575b156111d75750818151910151604051916111a983611526565b82528282015260006040820152600160608201526040516111c981611577565b600081528582015293610eb5565b9490506040516111e68161155c565b60158152744f72616b6c20707269636520746f6f207374616c6560581b8382015281860152610eb5565b5082820151610e10810180911161028757421115611190565b9091508281813d8311611297575b61124181836115ad565b8101031261019c576040519061125682611541565b8051825284810151858301526040810151906001600160501b038216820361019c5760609160408401520151801515810361019c5760608201529088610e95565b503d611237565b3461019c57602036600319011261019c576004356000526005602052602060ff604060002054166040519015158152f35b3461019c57602036600319011261019c5760043563ffffffff60e01b811680910361019c57602090637965db0b60e01b8114908115611314575b506040519015158152f35b6301ffc9a760e01b14905082611309565b3461019c57604036600319011261019c576004356024358015159081810361019c577f0f9a0d0a69589a09e7324311068c75edb0e72c1d5fe1fe87ecbdd0c22f09ae3991611395602092611377611676565b856000526005845260406000209060ff801983541691151516179055565b604051908152a2005b9060038210156108725752565b60005b8381106113be5750506000910152565b81810151838201526020016113ae565b906020916113e7815180928185528580860191016113ab565b601f01601f1916010190565b9060a0608061143893805184526020810151602085015261141c6040820151604086019061139e565b60608101511515606085015201519181608082015201906113ce565b90565b60035481101561145657600360005260206000200190600090565b634e487b7160e01b600052603260045260246000fd5b604090600319011261019c57600435906024356001600160a01b038116810361019c5790565b3461019c57600036600319011261019c57602060405160008152f35b9060048210156108725752565b604090600319011261019c576004359060243590565b90600182811c92168015611501575b60208310146114eb57565b634e487b7160e01b600052602260045260246000fd5b91607f16916114e0565b60c081019081106001600160401b0382111761085c57604052565b60a081019081106001600160401b0382111761085c57604052565b608081019081106001600160401b0382111761085c57604052565b604081019081106001600160401b0382111761085c57604052565b602081019081106001600160401b0382111761085c57604052565b606081019081106001600160401b0382111761085c57604052565b601f909101601f19168101906001600160401b0382119082101761085c57604052565b90604051918260008254926115e4846114d1565b9081845260019485811690816000146116535750600114611610575b505061160e925003836115ad565b565b9093915060005260209081600020936000915b81831061163b57505061160e93508201013880611600565b85548884018501529485019487945091830191611623565b91505061160e94506020925060ff191682840152151560051b8201013880611600565b3360009081527fad3228b676f7d3cd4284a5443f17f1962b36e491b30a40b2405849e597ba5fb5602090815260408083205490929060ff16156116b857505050565b6116c133611a15565b90808451906116cf82611541565b6042825284820192606036853782511561184a576030845382519060019182101561184a5790607860218501536041915b8183116117dc575050506117ac5760486117a893869361178c9361177d985198899376020b1b1b2b9b9a1b7b73a3937b61d1030b1b1b7bab73a1604d1b8a860152611754815180928c6037890191016113ab565b8401917001034b99036b4b9b9b4b733903937b6329607d1b6037840152518093868401906113ab565b010360288101875201856115ad565b5192839262461bcd60e51b8452600484015260248301906113ce565b0390fd5b60648486519062461bcd60e51b825280600483015260248201526000805160206129f98339815191526044820152fd5b909192600f81166010811015611836576f181899199a1a9b1b9c1cb0b131b232b360811b901a61180c8587611a04565b5360041c92801561182257600019019190611700565b634e487b7160e01b82526011600452602482fd5b634e487b7160e01b83526032600452602483fd5b634e487b7160e01b81526032600452602490fd5b600090808252602090828252604092838120338252835260ff8482205416156118875750505050565b61189033611a15565b9184519061189d82611541565b6042825284820192606036853782511561184a576030845382519060019182101561184a5790607860218501536041915b818311611922575050506117ac5760486117a893869361178c9361177d985198899376020b1b1b2b9b9a1b7b73a3937b61d1030b1b1b7bab73a1604d1b8a860152611754815180928c6037890191016113ab565b909192600f81166010811015611836576f181899199a1a9b1b9c1cb0b131b232b360811b901a6119528587611a04565b5360041c928015611822576000190191906118ce565b9060009180835282602052604083209160018060a01b03169182845260205260ff60408420541661199857505050565b80835282602052604083208284526020526040832060ff1981541690557ff6391f5c32d9c69d2a47ea670b442974b53935d1edc7fd64eb21e047a839171b339380a4565b9190820180921161028757565b6001600160401b03811161085c57601f01601f191660200190565b908151811015611456570160200190565b60405190611a2282611592565b602a82526020820160403682378251156114565760309053815160019081101561145657607860218401536029905b808211611a93575050611a615790565b606460405162461bcd60e51b815260206004820152602060248201526000805160206129f98339815191526044820152fd5b9091600f81166010811015611aec576f181899199a1a9b1b9c1cb0b131b232b360811b901a611ac28486611a04565b5360041c918015611ad7576000190190611a51565b60246000634e487b7160e01b81526011600452fd5b60246000634e487b7160e01b81526032600452fd5b60038210156108725752565b60048210156108725752565b60001981146102875760010190565b9190820391821161028757565b60405190611b4282611526565b60606080836000815260006020820152600060408201526000838201520152565b15611b6a57565b60405162461bcd60e51b815260206004820152601060248201526f14185d5cd8589b194e881c185d5cd95960821b6044820152606490fd5b60008181526002602052604081209060405191611bbe8361150b565b611bde60ff8254611bd182821687611b01565b60081c1660208501611b0d565b6001810154604084015260028101549060608401918252611c12600460ff60038401541692608087019315158452016115d0565b60a08501525115611c8457838252600560205260ff604083205416611c76578251916003831015611c62575051611c4991846120a7565b916060830151611c5d5761143892506125a4565b505090565b634e487b7160e01b81526021600452602490fd5b5050506114389042906126f5565b604051633950759160e21b815260048101859052602490fd5b919091600081815260206002815260409081832095825191611cbe8361150b565b8754611ccd60ff821685611b01565b611ce060ff8386019260081c1682611b0d565b600194858a01548186015260028a0154956060860196875260ff60038c015416926080938488019015158152611d196004809e016115d0565b60a08901525115612090578989526005855260ff838a20541661207b5786516003811015612068578214908115612042575b50611d82575b505050505051916003831015611d6f575061143893945051916120a7565b634e487b7160e01b815260218652602490fd5b878b611d8c611b35565b845163b2ee2f0160e01b81528281018d9052909790917f00000000000000000000000000000000000000000000000000000000000000006001600160a01b031691908d908785602481875afa869581612005575b50611ea457505050505050611df3612117565b6308c379a014611e53575b611e21575b5050505b6060810151611e195780808080611d51565b955050505050565b6f11125393c818d85b1b0819985a5b195960821b905192611e418461155c565b60108452830152820152388080611e03565b611e5b612135565b80611e67575b50611dfe565b90508790611e9a602c845180936b02224a7279032b93937b91d160a51b89830152611012815180928b86860191016113ab565b8386015238611e61565b859a949697989995151580611ff4575b15611eef575050505050835195611eca87611526565b8652850152808285015260608401525190611ee482611577565b858252820152611e07565b909180949a5085999897959396501515600014611fc45760449087519687938492636494078360e11b84528301528560248301525afa8a9381611f91575b50611f7f57505050807f44494e4f207072696365206e6f7420617661696c61626c6520666f722074696d650657374616d760d41b925194611f6d86611592565b60268652850152830152820152611e07565b919550919293835195611eca87611526565b9093508681813d8311611fbd575b611fa981836115ad565b81010312611fb957519238611f2d565b8a80fd5b503d611f9f565b505050505050600080516020612a19833981519152905192611fe58461155c565b60188452830152820152611e07565b50821580611eb45750828714611eb4565b9650945050508584813d831161203b575b61202081836115ad565b81010312612037578c8f8986519601519438611de0565b8b80fd5b503d612016565b9050518b81101561205557811438611d4b565b634e487b7160e01b895260218c52602489fd5b634e487b7160e01b8a5260218d5260248afd5b505050505093925050506114389293506126f5565b8251633950759160e21b8152808d018b9052602490fd5b929190926120b3611b35565b93600381101561087257806120ce57506114389293506121a3565b9091506001036120e3576114389192506123ed565b506040516120f08161155c565b6013815272496e76616c6964206f7261636c65207479706560681b60208201526080830152565b60009060033d1161212457565b905060046000803e60005160e01c90565b600060443d1061143857604051600319913d83016004833e81516001600160401b03918282113d6024840111176121925781840194855193841161219a573d850101602084870101116121925750611438929101602001906115ad565b949350505050565b50949350505050565b91906121e46121b96121b3611b35565b94612801565b9160409081519063f66a1b7160e01b82526020948560048401528280608096879360248301906113ce565b03817f00000000000000000000000000000000000000000000000000000000000000006001600160a01b03165afa60009281612375575b506122c0575050600161222c612117565b6308c379a01461226d575b61224057505050565b7013dc985adb0818d85b1b0819985a5b1959607a1b9051926122618461155c565b60118452830152830152565b612275612135565b80612281575b50612237565b90506000906122b6602d845180936c027b930b5b61032b93937b91d1609d1b89830152611167815180928b86860191016113ab565b838701523861227b565b6060829697929593949501511515908161234c575b50156123165750808451940151908251946122ef86611526565b855284015260008184015260016060840152519061230c82611577565b6000825282015290565b9493509190744f72616b6c20707269636520746f6f207374616c6560581b9051926123408461155c565b60158452830152830152565b80159150811561235e575b50386122d5565b61236c9150838701516119dc565b42111538612357565b90928582813d83116123e6575b61238c81836115ad565b810103126123df578451916123a083611541565b805183528781015188840152858101516001600160501b03811681036123e25783870152606001519081151582036123df57506060820152913861221b565b80fd5b8280fd5b503d612382565b906123f6611b35565b6040805163b2ee2f0160e01b81526004810194909452909281816024817f00000000000000000000000000000000000000000000000000000000000000006001600160a01b03165afa80600092839261256d575b506124f0575050600161245b612117565b6308c379a01461249b575b61246d5750565b516124778161155c565b601081526f11125393c818d85b1b0819985a5b195960821b60208201526080830152565b6124a3612135565b806124af575b50612466565b90506000906124e5602c845180936b02224a7279032b93937b91d160a51b602083015261101281518092602086860191016113ab565b6080850152386124a9565b90929383151580612565575b15612538575081519261250e84611526565b83526020830152600181830152600160608301525161252c81611577565b60008152608082015290565b93925050516125468161155c565b60188152600080516020612a1983398151915260208201526080830152565b5060016124fc565b929091508383813d831161259d575b61258681836115ad565b810103126123df575060208251920151903861244a565b503d61257c565b6125ac611b35565b6020830190815191600492838110156126e05761260457505082519060038210156125ef5750156125e5576060611438920151906121a3565b61143891506123ed565b602190634e487b7160e01b6000525260246000fd5b8051838110156126e05760010361264357505082519060038210156125ef57506001146126355761143891506123ed565b6060611438920151906121a3565b51909493509150808210156125ef57506002036126a85760405161266681611592565b602881527f426f7468206f7261636c657320726571756972656420627574207072696d61726020820152671e4819985a5b195960c21b60408201526080830152565b6040516126b48161155c565b601881527713585b9d585b081bdd995c9c9a5919481c995c5d5a5c995960421b60208201526080830152565b602184634e487b7160e01b6000525260246000fd5b906126fe611b35565b9160005260046020526040908160002081600052602052816000205492831515600014612750575081519261273284611526565b83526020830152600281830152600160608301525161252c81611577565b939250505161275e8161155c565b6013815272139bc81b585b9d585b081c1c9a58d9481cd95d606a1b60208201526080830152565b90811580156127f9575b6127f1576127af90808311156127e7576127a98184611b28565b926119dc565b60011c90612710908181029181830414901517156102875781156127d1570490565b634e487b7160e01b600052601260045260246000fd5b6127a98382611b28565b505061271090565b50801561278f565b907fa92bcb5bc51aa5535ed0cc3f522992dd9a6fb2e8dd6dcf484705d93eb3cd167a82146129d2577f7020b52841bb268cbc78137a54d4bf1f5305eed1039fb5d003ba95b8ededc46c82146129ac577f9c739e387c7fb94a1e70c920b5940eec19fc78d45854b3929572ae40ec09a9c4821461298557604051916128848361155c565b60209081845281368186013760005b82811061296f5750506000805b8281106129345750801561291d576128b7816119e9565b916128c560405193846115ad565b818352601f196128d4836119e9565b0190369084013760005b8181106128ec575090925050565b612918906001600160f81b03196129038288611a04565b511660001a6129128286611a04565b53611b19565b6128de565b5050905060405161292d81611577565b6000815290565b6001600160f81b03196129478287611a04565b511661295c575b61295790611b19565b6128a0565b905060018101808211610287579061294e565b8082612980921a6129128288611a04565b612893565b90506040516129938161155c565b600981526812d052504b5554d11560ba1b602082015290565b90506040516129ba8161155c565b60088152671155120b5554d11560c21b602082015290565b90506040516129e08161155c565b6008815267109510cb5554d11560c21b60208201529056fe537472696e67733a20686578206c656e67746820696e73756666696369656e7444494e4f207072696365206e6f7420617661696c61626c650000000000000000a26469706673582212201d5e501ad463fe9ff57232e13051ff380db450a7a831e5a5c9d7fa5522b2e50b64736f6c634300081400332f8788117e7eff1d82e926ec794901d17c78024a50270940304540a733656f0d",
  "linkReferences": {},
  "deployedLinkReferences": {}
}