{
  "_format": "hh-sol-artifact-1",
  "contractName": "OraklPriceFeed",
  "sourceName": "contracts/oracles/OraklPriceFeed.sol",
  "abi": [
    {
      "inputs": [
        {
          "internalType": "address",
          "name": "_admin",
          "type": "address"
        }
      ],
      "stateMutability": "nonpayable",
      "type": "constructor"
    },
    {
      "inputs": [
        {
          "internalType": "bytes32",
          "name": "feedId",
          "type": "bytes32"
        }
      ],
      "name": "FeedAlreadyExists",
      "type": "error"
    },
    {
      "inputs": [
        {
          "internalType": "bytes32",
          "name": "feedId",
          "type": "bytes32"
        }
      ],
      "name": "FeedNotActive",
      "type": "error"
    },
    {
      "inputs": [
        {
          "internalType": "bytes32",
          "name": "feedId",
          "type": "bytes32"
        }
      ],
      "name": "FeedNotFound",
      "type": "error"
    },
    {
      "inputs": [
        {
          "internalType": "uint8",
          "name": "decimals",
          "type": "uint8"
        }
      ],
      "name": "InvalidDecimals",
      "type": "error"
    },
    {
      "inputs": [
        {
          "internalType": "address",
          "name": "feedProxyAddress",
          "type": "address"
        }
      ],
      "name": "InvalidFeedAddress",
      "type": "error"
    },
    {
      "inputs": [
        {
          "internalType": "uint32",
          "name": "heartbeat",
          "type": "uint32"
        }
      ],
      "name": "InvalidHeartbeat",
      "type": "error"
    },
    {
      "inputs": [
        {
          "internalType": "int256",
          "name": "price",
          "type": "int256"
        }
      ],
      "name": "InvalidPriceData",
      "type": "error"
    },
    {
      "inputs": [
        {
          "internalType": "uint256",
          "name": "lastUpdate",
          "type": "uint256"
        },
        {
          "internalType": "uint256",
          "name": "maxStaleness",
          "type": "uint256"
        }
      ],
      "name": "StalePriceData",
      "type": "error"
    },
    {
      "inputs": [],
      "name": "ZeroAddress",
      "type": "error"
    },
    {
      "anonymous": false,
      "inputs": [
        {
          "indexed": false,
          "internalType": "address",
          "name": "account",
          "type": "address"
        }
      ],
      "name": "Paused",
      "type": "event"
    },
    {
      "anonymous": false,
      "inputs": [
        {
          "indexed": true,
          "internalType": "bytes32",
          "name": "feedId",
          "type": "bytes32"
        },
        {
          "indexed": false,
          "internalType": "string",
          "name": "symbol",
          "type": "string"
        },
        {
          "indexed": false,
          "internalType": "uint256",
          "name": "currentPrice",
          "type": "uint256"
        },
        {
          "indexed": false,
          "internalType": "uint256",
          "name": "previousPrice",
          "type": "uint256"
        },
        {
          "indexed": false,
          "internalType": "uint256",
          "name": "deviation",
          "type": "uint256"
        }
      ],
      "name": "PriceDeviationDetected",
      "type": "event"
    },
    {
      "anonymous": false,
      "inputs": [
        {
          "indexed": true,
          "internalType": "bytes32",
          "name": "feedId",
          "type": "bytes32"
        },
        {
          "indexed": false,
          "internalType": "string",
          "name": "symbol",
          "type": "string"
        },
        {
          "indexed": false,
          "internalType": "address",
          "name": "feedProxyAddress",
          "type": "address"
        },
        {
          "indexed": false,
          "internalType": "uint8",
          "name": "decimals",
          "type": "uint8"
        },
        {
          "indexed": false,
          "internalType": "uint32",
          "name": "heartbeat",
          "type": "uint32"
        }
      ],
      "name": "PriceFeedAdded",
      "type": "event"
    },
    {
      "anonymous": false,
      "inputs": [
        {
          "indexed": true,
          "internalType": "bytes32",
          "name": "feedId",
          "type": "bytes32"
        },
        {
          "indexed": false,
          "internalType": "string",
          "name": "symbol",
          "type": "string"
        }
      ],
      "name": "PriceFeedDeactivated",
      "type": "event"
    },
    {
      "anonymous": false,
      "inputs": [
        {
          "indexed": true,
          "internalType": "bytes32",
          "name": "feedId",
          "type": "bytes32"
        },
        {
          "indexed": false,
          "internalType": "address",
          "name": "oldFeedAddress",
          "type": "address"
        },
        {
          "indexed": false,
          "internalType": "address",
          "name": "newFeedAddress",
          "type": "address"
        },
        {
          "indexed": false,
          "internalType": "uint32",
          "name": "newHeartbeat",
          "type": "uint32"
        },
        {
          "indexed": false,
          "internalType": "uint8",
          "name": "newDecimals",
          "type": "uint8"
        },
        {
          "indexed": false,
          "internalType": "string",
          "name": "newDescription",
          "type": "string"
        }
      ],
      "name": "PriceFeedUpdated",
      "type": "event"
    },
    {
      "anonymous": false,
      "inputs": [
        {
          "indexed": true,
          "internalType": "bytes32",
          "name": "feedId",
          "type": "bytes32"
        },
        {
          "indexed": false,
          "internalType": "string",
          "name": "symbol",
          "type": "string"
        },
        {
          "indexed": false,
          "internalType": "uint256",
          "name": "price",
          "type": "uint256"
        },
        {
          "indexed": false,
          "internalType": "uint256",
          "name": "timestamp",
          "type": "uint256"
        },
        {
          "indexed": false,
          "internalType": "uint80",
          "name": "roundId",
          "type": "uint80"
        }
      ],
      "name": "PriceRetrieved",
      "type": "event"
    },
    {
      "anonymous": false,
      "inputs": [
        {
          "indexed": true,
          "internalType": "bytes32",
          "name": "role",
          "type": "bytes32"
        },
        {
          "indexed": true,
          "internalType": "bytes32",
          "name": "previousAdminRole",
          "type": "bytes32"
        },
        {
          "indexed": true,
          "internalType": "bytes32",
          "name": "newAdminRole",
          "type": "bytes32"
        }
      ],
      "name": "RoleAdminChanged",
      "type": "event"
    },
    {
      "anonymous": false,
      "inputs": [
        {
          "indexed": true,
          "internalType": "bytes32",
          "name": "role",
          "type": "bytes32"
        },
        {
          "indexed": true,
          "internalType": "address",
          "name": "account",
          "type": "address"
        },
        {
          "indexed": true,
          "internalType": "address",
          "name": "sender",
          "type": "address"
        }
      ],
      "name": "RoleGranted",
      "type": "event"
    },
    {
      "anonymous": false,
      "inputs": [
        {
          "indexed": true,
          "internalType": "bytes32",
          "name": "role",
          "type": "bytes32"
        },
        {
          "indexed": true,
          "internalType": "address",
          "name": "account",
          "type": "address"
        },
        {
          "indexed": true,
          "internalType": "address",
          "name": "sender",
          "type": "address"
        }
      ],
      "name": "RoleRevoked",
      "type": "event"
    },
    {
      "anonymous": false,
      "inputs": [
        {
          "indexed": true,
          "internalType": "bytes32",
          "name": "feedId",
          "type": "bytes32"
        },
        {
          "indexed": false,
          "internalType": "string",
          "name": "symbol",
          "type": "string"
        },
        {
          "indexed": false,
          "internalType": "uint256",
          "name": "lastUpdate",
          "type": "uint256"
        },
        {
          "indexed": false,
          "internalType": "uint256",
          "name": "staleness",
          "type": "uint256"
        }
      ],
      "name": "StalePriceDetected",
      "type": "event"
    },
    {
      "anonymous": false,
      "inputs": [
        {
          "indexed": false,
          "internalType": "address",
          "name": "account",
          "type": "address"
        }
      ],
      "name": "Unpaused",
      "type": "event"
    },
    {
      "inputs": [],
      "name": "ADMIN_ROLE",
      "outputs": [
        {
          "internalType": "bytes32",
          "name": "",
          "type": "bytes32"
        }
      ],
      "stateMutability": "view",
      "type": "function"
    },
    {
      "inputs": [],
      "name": "DEFAULT_ADMIN_ROLE",
      "outputs": [
        {
          "internalType": "bytes32",
          "name": "",
          "type": "bytes32"
        }
      ],
      "stateMutability": "view",
      "type": "function"
    },
    {
      "inputs": [],
      "name": "MAX_STALENESS",
      "outputs": [
        {
          "internalType": "uint256",
          "name": "",
          "type": "uint256"
        }
      ],
      "stateMutability": "view",
      "type": "function"
    },
    {
      "inputs": [],
      "name": "OPERATOR_ROLE",
      "outputs": [
        {
          "internalType": "bytes32",
          "name": "",
          "type": "bytes32"
        }
      ],
      "stateMutability": "view",
      "type": "function"
    },
    {
      "inputs": [],
      "name": "PAUSER_ROLE",
      "outputs": [
        {
          "internalType": "bytes32",
          "name": "",
          "type": "bytes32"
        }
      ],
      "stateMutability": "view",
      "type": "function"
    },
    {
      "inputs": [
        {
          "internalType": "uint256",
          "name": "",
          "type": "uint256"
        }
      ],
      "name": "activeFeedIds",
      "outputs": [
        {
          "internalType": "bytes32",
          "name": "",
          "type": "bytes32"
        }
      ],
      "stateMutability": "view",
      "type": "function"
    },
    {
      "inputs": [
        {
          "internalType": "string",
          "name": "symbol",
          "type": "string"
        },
        {
          "internalType": "address",
          "name": "feedProxyAddress",
          "type": "address"
        },
        {
          "internalType": "uint32",
          "name": "heartbeatSeconds",
          "type": "uint32"
        }
      ],
      "name": "addPriceFeed",
      "outputs": [],
      "stateMutability": "nonpayable",
      "type": "function"
    },
    {
      "inputs": [
        {
          "internalType": "string",
          "name": "symbol",
          "type": "string"
        }
      ],
      "name": "deactivatePriceFeed",
      "outputs": [],
      "stateMutability": "nonpayable",
      "type": "function"
    },
    {
      "inputs": [],
      "name": "getActiveFeedSymbols",
      "outputs": [
        {
          "internalType": "string[]",
          "name": "symbols",
          "type": "string[]"
        }
      ],
      "stateMutability": "view",
      "type": "function"
    },
    {
      "inputs": [
        {
          "internalType": "string",
          "name": "symbol",
          "type": "string"
        }
      ],
      "name": "getLatestPrice",
      "outputs": [
        {
          "components": [
            {
              "internalType": "uint256",
              "name": "price",
              "type": "uint256"
            },
            {
              "internalType": "uint256",
              "name": "timestamp",
              "type": "uint256"
            },
            {
              "internalType": "uint80",
              "name": "roundId",
              "type": "uint80"
            },
            {
              "internalType": "bool",
              "name": "valid",
              "type": "bool"
            }
          ],
          "internalType": "struct OraklPriceFeed.PriceData",
          "name": "priceData",
          "type": "tuple"
        }
      ],
      "stateMutability": "view",
      "type": "function"
    },
    {
      "inputs": [
        {
          "internalType": "bytes32",
          "name": "role",
          "type": "bytes32"
        }
      ],
      "name": "getRoleAdmin",
      "outputs": [
        {
          "internalType": "bytes32",
          "name": "",
          "type": "bytes32"
        }
      ],
      "stateMutability": "view",
      "type": "function"
    },
    {
      "inputs": [
        {
          "internalType": "bytes32",
          "name": "role",
          "type": "bytes32"
        },
        {
          "internalType": "address",
          "name": "account",
          "type": "address"
        }
      ],
      "name": "grantRole",
      "outputs": [],
      "stateMutability": "nonpayable",
      "type": "function"
    },
    {
      "inputs": [
        {
          "internalType": "bytes32",
          "name": "role",
          "type": "bytes32"
        },
        {
          "internalType": "address",
          "name": "account",
          "type": "address"
        }
      ],
      "name": "hasRole",
      "outputs": [
        {
          "internalType": "bool",
          "name": "",
          "type": "bool"
        }
      ],
      "stateMutability": "view",
      "type": "function"
    },
    {
      "inputs": [
        {
          "internalType": "string",
          "name": "symbol",
          "type": "string"
        }
      ],
      "name": "isFeedSupported",
      "outputs": [
        {
          "internalType": "bool",
          "name": "supported",
          "type": "bool"
        }
      ],
      "stateMutability": "view",
      "type": "function"
    },
    {
      "inputs": [],
      "name": "pause",
      "outputs": [],
      "stateMutability": "nonpayable",
      "type": "function"
    },
    {
      "inputs": [],
      "name": "paused",
      "outputs": [
        {
          "internalType": "bool",
          "name": "",
          "type": "bool"
        }
      ],
      "stateMutability": "view",
      "type": "function"
    },
    {
      "inputs": [],
      "name": "priceDeviationThresholdBps",
      "outputs": [
        {
          "internalType": "uint256",
          "name": "",
          "type": "uint256"
        }
      ],
      "stateMutability": "view",
      "type": "function"
    },
    {
      "inputs": [
        {
          "internalType": "bytes32",
          "name": "",
          "type": "bytes32"
        }
      ],
      "name": "priceFeeds",
      "outputs": [
        {
          "internalType": "address",
          "name": "feedProxyAddress",
          "type": "address"
        },
        {
          "internalType": "uint8",
          "name": "decimals",
          "type": "uint8"
        },
        {
          "internalType": "uint32",
          "name": "heartbeatSeconds",
          "type": "uint32"
        },
        {
          "internalType": "string",
          "name": "description",
          "type": "string"
        },
        {
          "internalType": "bool",
          "name": "active",
          "type": "bool"
        }
      ],
      "stateMutability": "view",
      "type": "function"
    },
    {
      "inputs": [
        {
          "internalType": "bytes32",
          "name": "role",
          "type": "bytes32"
        },
        {
          "internalType": "address",
          "name": "account",
          "type": "address"
        }
      ],
      "name": "renounceRole",
      "outputs": [],
      "stateMutability": "nonpayable",
      "type": "function"
    },
    {
      "inputs": [
        {
          "internalType": "bytes32",
          "name": "role",
          "type": "bytes32"
        },
        {
          "internalType": "address",
          "name": "account",
          "type": "address"
        }
      ],
      "name": "revokeRole",
      "outputs": [],
      "stateMutability": "nonpayable",
      "type": "function"
    },
    {
      "inputs": [
        {
          "internalType": "bytes4",
          "name": "interfaceId",
          "type": "bytes4"
        }
      ],
      "name": "supportsInterface",
      "outputs": [
        {
          "internalType": "bool",
          "name": "",
          "type": "bool"
        }
      ],
      "stateMutability": "view",
      "type": "function"
    },
    {
      "inputs": [
        {
          "internalType": "string",
          "name": "",
          "type": "string"
        }
      ],
      "name": "symbolToFeedId",
      "outputs": [
        {
          "internalType": "bytes32",
          "name": "",
          "type": "bytes32"
        }
      ],
      "stateMutability": "view",
      "type": "function"
    },
    {
      "inputs": [],
      "name": "unpause",
      "outputs": [],
      "stateMutability": "nonpayable",
      "type": "function"
    },
    {
      "inputs": [
        {
          "internalType": "string",
          "name": "symbol",
          "type": "string"
        },
        {
          "internalType": "address",
          "name": "newFeedAddress",
          "type": "address"
        },
        {
          "internalType": "uint32",
          "name": "newHeartbeat",
          "type": "uint32"
        },
        {
          "internalType": "string",
          "name": "newDescription",
          "type": "string"
        }
      ],
      "name": "updatePriceFeed",
      "outputs": [],
      "stateMutability": "nonpayable",
      "type": "function"
    }
  ],
  "bytecode": "0x608034620001d557601f6200216638819003918201601f1916830192916001600160401b03841183851017620001da5780839260409586528339602092839181010312620001d557516001600160a01b03811690819003620001d55760ff199182600154166001556103e86005558115620001c457600092838052838252848420838552825260ff8585205416156200018e575b7f97667070c54ef182b0f5858b034beac1b6f3089aa2d3188bb1e8929f4fa9b929808552848352858520848652835260ff86862054161562000157575b507f65d7a28e3265b37a6474929f336521b332c1681b933f6cb9f3376673440d862a91828552848152858520848652815260ff8686205416156200011e575b8551611f559081620001f18239f35b828552848152858520908486525260018585209182541617905560008051602062002146833981519152339380a438808080806200010f565b8085528483528585208486528352858520600183825416179055833391600080516020620021468339815191528780a438620000d0565b8380528382528484208385528252848420600182825416179055338385600080516020620021468339815191528180a462000093565b835163d92e233d60e01b8152600490fd5b600080fd5b634e487b7160e01b600052604160045260246000fdfe6080806040526004908136101561001557600080fd5b60003560e01c90816301ffc9a7146115f757508063203761b214611461578063248a9ca3146114335780632f2ff15d1461138157806336568abe146112f15780633f4ba83a1461125b5780635a85aa1c1461114e5780635c975abb1461112b57806375b238fc14610dd35780638456cb5914610edd57806391d1485414610e9057806392a3efa214610e0f5780639dd0d9aa14610dd8578063a217fddf14610dd3578063c6c3f71e14610d50578063caca95a414610d33578063cf90972d1461091f578063d547741f146108de578063e63ab1e9146108b5578063e8158674146104a2578063f01a488f14610484578063f350665314610416578063f5b541a6146103db5763f66a1b711461012957600080fd5b346103d657602090816003193601126103d6576001600160401b039181358381116103d65761015b9036908401611649565b6040519291829061016b8561178c565b6000855260008286015260006040860152600060608096015261019360ff6001541615611e15565b8260405193849283378101868152030190205460008181526002835260409020546001600160a01b0391908216156103bf57806000526002835260ff60026040600020015416156103a857600052600282526040600020918484604051936101fa8561175b565b855494818616815260ff8660a01c168582015260ff6002604083019863ffffffff809960a81c168a5261022f600182016117ca565b8685015201541615156080820152511660405197888092633fabe5a360e21b82525afa93841561039c57600093600097600096610363575b50600088131561034b578082511686019182871161033657610e10928381018091116103215742116102e2575050505083608096604051906102a88261178c565b8782528382019586526040820194168452019260018452604051958652519085015260018060501b03905116604084015251151590820152f35b869450511690810180911161030c57604492604051926316d7d15960e01b84528301526024820152fd5b601182634e487b7160e01b6000525260246000fd5b601185634e487b7160e01b6000525260246000fd5b601184634e487b7160e01b6000525260246000fd5b60405163b4e8ae1160e01b8152808401899052602490fd5b9194509450610389919650853d8711610395575b61038181836117a7565b810190611d10565b96919390969438610267565b503d610377565b6040513d6000823e3d90fd5b8460249160405191632eefd8cd60e01b8352820152fd5b8460249160405191630138152d60e61b8352820152fd5b600080fd5b346103d65760003660031901126103d65760206040517f97667070c54ef182b0f5858b034beac1b6f3089aa2d3188bb1e8929f4fa9b9298152f35b50346103d65760203660031901126103d6578035906001600160401b0382116103d657366023830112156103d65760206104729161045e829436906024818501359101611883565b90826040519483868095519384920161168c565b82019081520301902054604051908152f35b346103d65760003660031901126103d6576020600554604051908152f35b50346103d65760803660031901126103d6576001600160401b0381358181116103d6576104d29036908401611649565b6104dd939193611676565b926104e6611870565b906064358181116103d6576104fe9036908601611649565b9390966105096118c9565b6001600160a01b038716156108a45763ffffffff84161561088757602090826040519384928337810187815203019020546000818152600260205260409020549093906001600160a01b03161561086f5760405163313ce56760e01b81529160208387816001600160a01b038b165afa6000938161083e575b506105a7576040516327d4470760e21b81526001600160a01b03881681880152602490fd5b604051633fabe5a360e21b815260608188816001600160a01b038c165afa6000918161081b575b506105f3576040516327d4470760e21b81526001600160a01b03891681890152602490fd5b6000819897969813156108045750600087815260026020526040902080546001600160a01b031981166001600160a01b038916178255956106348583611d3b565b61063e8683611d58565b83151592836106e4575b50505091600080516020611f00833981519152969760ff926106b995946000146106be5763ffffffff9161067d913691611883565b935b60405197889760018060a01b0316885260018060a01b0316602088015216604086015216606084015260a0608084015260a08301906116af565b0390a2005b505087600052600260205263ffffffff6106de60016040600020016117ca565b9361067f565b84116107ef5750610705836106fc6001840154611721565b60018401611d7b565b6000601f841160011461076757926106b9959492600080516020611f00833981519152999a9260018360ff9760009161075c575b50600019600386901b1c191684821b179101555b929495829a9950819450610648565b905085013538610739565b6001820160005260206000209060005b601f19861681106107d7575092600080516020611f00833981519152999a9285926106b998979560ff97601f198116106107bd575b505060018084811b0191015561074d565b850135600019600386901b60f8161c1916905538806107ac565b9091602060018192858f013581550193019101610777565b604190634e487b7160e01b6000525260246000fd5b856024916040519163b4e8ae1160e01b8352820152fd5b61083491925060603d81116103955761038181836117a7565b50905090386105ce565b61086191945060203d602011610868575b61085981836117a7565b810190611cf7565b9238610582565b503d61084f565b604051630138152d60e61b8152808601859052602490fd5b6040516362a4bfc760e11b815263ffffffff851681880152602490fd5b60405163d92e233d60e01b81528690fd5b346103d65760003660031901126103d6576020604051600080516020611ee08339815191528152f35b50346103d65760403660031901126103d65761091d90356108fd611676565b90806000526000602052610918600160406000200154611a78565b611b76565b005b50346103d6576060806003193601126103d6576001600160401b0382358181116103d6576109509036908501611649565b610958611676565b92610961611870565b9361096a6118c9565b6001600160a01b03908116958615610d225763ffffffff809616918215610d0a576040519360209485810190878983376109b387828a81016000838201520380845201826117a7565b5190209788600052600286528260406000205416610cf25760405163313ce56760e01b815286818d818e5afa60009181610cd3575b50610a05576040516327d4470760e21b8152808d018c9052602490fd5b60ff169283158015610cc9575b610cb157604051633fabe5a360e21b815285818e818f5afa60009181610c8f575b50610a50576040516327d4470760e21b8152808e018d9052602490fd5b908160008e9d9594931315610c785750858893610ada8d948a610ad28f8f8b98610a9b60ff938f938e6040519d8e610a878161175b565b528d0194855260408d019788523691611883565b988a01988952600260808b019c8d9c60019e8f905260005252604060002099511660018060a01b03198a5416178955511687611d3b565b511684611d58565b84830191518051918211610c6357610afc82610af68554611721565b85611d7b565b8a90601f8311600114610bfa5760029493929160009183610bef575b5050600019600383901b1c191690861b1790555b019051151560ff8019835416911617905560035490600160401b821015610bda579989610b9b610b8484839e7f4baf006967ba24bde34024a0b0f0921a13f0d5c8208bbb7563da58ffcec1ccf09e96016003556116f0565b819391549060031b91821b91600019901b19161790565b90558660405180928a8c83378a82019081520301902055610bc9604051978897608089526080890191611dcf565b9486015260408501528301520390a2005b60418b634e487b7160e01b6000525260246000fd5b015190503880610b18565b9392918b8792601f1983168560005282600020926000905b828210610c4c575050968360029810610c33575b505050811b019055610b2c565b015160001960f88460031b161c19169055388080610c26565b838a015185558b969094019392830192018f610c12565b60418f634e487b7160e01b6000525260246000fd5b8c6024916040519163b4e8ae1160e01b8352820152fd5b610ca7919250873d89116103955761038181836117a7565b5090509038610a33565b60405163ca95039160e01b8152808d01859052602490fd5b5060128411610a12565b610ceb919250883d8a116108685761085981836117a7565b90386109e8565b604051638849f44f60e01b8152808c018a9052602490fd5b6040516362a4bfc760e11b8152808a01849052602490fd5b60405163d92e233d60e01b81528890fd5b346103d65760003660031901126103d6576020604051610e108152f35b50346103d65760203660031901126103d65735600052600260205263ffffffff6040600020805490610dc760ff6002610d8b600185016117ca565b930154169160405194859460018060a01b038116865260ff8160a01c16602087015260a81c16604085015260a0606085015260a08401906116af565b90151560808301520390f35b6116d4565b50346103d65760203660031901126103d657356003548110156103d657610e006020916116f0565b90549060031b1c604051908152f35b50346103d65760203660031901126103d65780356001600160401b0381116103d657610e4060209136908401611649565b928360405194859384378201908152030190205460005260026020526020604060002060018060a01b0381541615159081610e81575b506040519015158152f35b60ff9150600201541638610e76565b50346103d65760403660031901126103d657610eaa611676565b9035600052600060205260406000209060018060a01b0316600052602052602060ff604060002054166040519015158152f35b50346103d65760003660031901126103d6573360009081527ff7c9542c591017a21c74b6f3fab6263c7952fc0aaf9db4c22a2a04ddc7f8674f6020908152604090912054909190600080516020611ee08339815191529060ff1615610f80577f62e78cea01bee320cd4e420270b5ea74000d11b0c9f74754ebdbfc544b05a2588360018054610f6f60ff821615611e15565b60ff191617600155604051338152a1005b610f8933611bfb565b90604051610f968161178c565b604281528481019160603684378151156111165760308353815160019081101561110157607860218401536041905b808211611094575050611064576048611060936110359361104493604051958693600080516020611ea08339815191528b86015261100c815180928d60378901910161168c565b8401917001034b99036b4b9b9b4b733903937b6329607d1b60378401525180938684019061168c565b010360288101845201826117a7565b60405193849362461bcd60e51b855284015260248301906116af565b0390fd5b60648486806040519262461bcd60e51b84528301526024820152600080516020611e808339815191526044820152fd5b9091600f811660108110156110ec576f181899199a1a9b1b9c1cb0b131b232b360811b901a6110c38486611bea565b53861c9180156110d7576000190190610fc5565b601187634e487b7160e01b6000525260246000fd5b603288634e487b7160e01b6000525260246000fd5b603286634e487b7160e01b6000525260246000fd5b603285634e487b7160e01b6000525260246000fd5b346103d65760003660031901126103d657602060ff600154166040519015158152f35b346103d65760003660031901126103d6576003805461116c81611e54565b9161117a60405193846117a7565b818352601f1961118983611e54565b0160005b81811061124a57505060005b8281106111ff576040805160208082528651818301819052600093600582901b8401810192808a01929185015b8287106111d35785850386f35b9091929382806111ef600193603f198a820301865288516116af565b96019201960195929190926111c6565b8061120c611245926116f0565b905490841b1c600052600260205261122a60016040600020016117ca565b6112348287611e6b565b5261123f8186611e6b565b50611df0565b611199565b80606060208093880101520161118d565b50346103d65760003660031901126103d6576112756118c9565b6001549060ff8216156112b6575060ff19166001557f5db9ee0a495bf2e6ff9c91a7834c1ba4fdd244a5e8aa4e537bd38aeae4b073aa6020604051338152a1005b60649060206040519162461bcd60e51b8352820152601460248201527314185d5cd8589b194e881b9bdd081c185d5cd95960621b6044820152fd5b50346103d65760403660031901126103d65761130b611676565b336001600160a01b038216036113255761091d9135611b76565b60405162461bcd60e51b8152602081840152602f60248201527f416363657373436f6e74726f6c3a2063616e206f6e6c792072656e6f756e636560448201526e103937b632b9903337b91039b2b63360891b6064820152608490fd5b50346103d65760403660031901126103d6573561139c611676565b8160005260006020526113b6600160406000200154611a78565b81600052600060205260406000209060018060a01b0316908160005260205260ff60406000205416156113e557005b8160005260006020526040600020816000526020526040600020600160ff1982541617905533917f2f8788117e7eff1d82e926ec794901d17c78024a50270940304540a733656f0d600080a4005b50346103d65760203660031901126103d6573560005260006020526020600160406000200154604051908152f35b50346103d657602090816003193601126103d65780356001600160401b0381116103d6576114929036908301611649565b61149d9391936118c9565b604051818582378281838101868152030190205491826000526002815260018060a01b0360406000205416156115df57600083815260028083526040822001805460ff191690555b6003805490818310156115bf57856114fc846116f0565b905490831b1c1461151757505061151290611df0565b6114e5565b91600096919394959619938481019081116115aa57610b8461153b611547926116f0565b905490861b1c926116f0565b90558154908115611595575091600080516020611ec0833981519152959691816106b9940191611576836116f0565b9091825491841b1b19169055555b604051938385948552840191611dcf565b603190634e487b7160e01b6000525260246000fd5b601183634e487b7160e01b6000525260246000fd5b505050909193600080516020611ec083398151915293506106b990611584565b604051630138152d60e61b8152808501849052602490fd5b82346103d65760203660031901126103d657359063ffffffff60e01b82168092036103d657602091637965db0b60e01b8114908115611638575b5015158152f35b6301ffc9a760e01b14905083611631565b9181601f840112156103d6578235916001600160401b0383116103d657602083818601950101116103d657565b602435906001600160a01b03821682036103d657565b60005b83811061169f5750506000910152565b818101518382015260200161168f565b906020916116c88151809281855285808601910161168c565b601f01601f1916010190565b346103d65760003660031901126103d657602060405160008152f35b60035481101561170b57600360005260206000200190600090565b634e487b7160e01b600052603260045260246000fd5b90600182811c92168015611751575b602083101461173b57565b634e487b7160e01b600052602260045260246000fd5b91607f1691611730565b60a081019081106001600160401b0382111761177657604052565b634e487b7160e01b600052604160045260246000fd5b608081019081106001600160401b0382111761177657604052565b601f909101601f19168101906001600160401b0382119082101761177657604052565b90604051918260008254926117de84611721565b90818452600194858116908160001461184d575060011461180a575b5050611808925003836117a7565b565b9093915060005260209081600020936000915b818310611835575050611808935082010138806117fa565b8554888401850152948501948794509183019161181d565b91505061180894506020925060ff191682840152151560051b82010138806117fa565b6044359063ffffffff821682036103d657565b9192916001600160401b03821161177657604051916118ac601f8201601f1916602001846117a7565b8294818452818301116103d6578281602093846000960137010152565b3360009081527fad3228b676f7d3cd4284a5443f17f1962b36e491b30a40b2405849e597ba5fb5602090815260408083205490929060ff161561190b57505050565b61191433611bfb565b90808451906119228261178c565b60428252848201926060368537825115611a645760308453825190600191821015611a645790607860218501536041915b8183116119f6575050506119c65760486110609386936119aa9361199b9851988993600080516020611ea08339815191528a86015261100c815180928c60378901910161168c565b010360288101875201856117a7565b5192839262461bcd60e51b8452600484015260248301906116af565b60648486519062461bcd60e51b82528060048301526024820152600080516020611e808339815191526044820152fd5b909192600f81166010811015611a50576f181899199a1a9b1b9c1cb0b131b232b360811b901a611a268587611bea565b5360041c928015611a3c57600019019190611953565b634e487b7160e01b82526011600452602482fd5b634e487b7160e01b83526032600452602483fd5b634e487b7160e01b81526032600452602490fd5b600090808252602090828252604092838120338252835260ff848220541615611aa15750505050565b611aaa33611bfb565b91845190611ab78261178c565b60428252848201926060368537825115611a645760308453825190600191821015611a645790607860218501536041915b818311611b30575050506119c65760486110609386936119aa9361199b9851988993600080516020611ea08339815191528a86015261100c815180928c60378901910161168c565b909192600f81166010811015611a50576f181899199a1a9b1b9c1cb0b131b232b360811b901a611b608587611bea565b5360041c928015611a3c57600019019190611ae8565b9060009180835282602052604083209160018060a01b03169182845260205260ff604084205416611ba657505050565b80835282602052604083208284526020526040832060ff1981541690557ff6391f5c32d9c69d2a47ea670b442974b53935d1edc7fd64eb21e047a839171b339380a4565b90815181101561170b570160200190565b60405190606082016001600160401b0381118382101761177657604052602a825260208201604036823782511561170b5760309053815160019081101561170b57607860218401536029905b808211611c89575050611c575790565b606460405162461bcd60e51b81526020600482015260206024820152600080516020611e808339815191526044820152fd5b9091600f81166010811015611ce2576f181899199a1a9b1b9c1cb0b131b232b360811b901a611cb88486611bea565b5360041c918015611ccd576000190190611c47565b60246000634e487b7160e01b81526011600452fd5b60246000634e487b7160e01b81526032600452fd5b908160209103126103d6575160ff811681036103d65790565b908160609103126103d65780516001600160401b03811681036103d657916040602083015192015190565b805460ff60a01b191660a09290921b60ff60a01b16919091179055565b805463ffffffff60a81b191660a89290921b63ffffffff60a81b16919091179055565b90601f8111611d8957505050565b600091825260208220906020601f850160051c83019410611dc5575b601f0160051c01915b828110611dba57505050565b818155600101611dae565b9092508290611da5565b908060209392818452848401376000828201840152601f01601f1916010190565b6000198114611dff5760010190565b634e487b7160e01b600052601160045260246000fd5b15611e1c57565b60405162461bcd60e51b815260206004820152601060248201526f14185d5cd8589b194e881c185d5cd95960821b6044820152606490fd5b6001600160401b0381116117765760051b60200190565b805182101561170b5760209160051b01019056fe537472696e67733a20686578206c656e67746820696e73756666696369656e74416363657373436f6e74726f6c3a206163636f756e742000000000000000000027beb9b6f1914e20fb04c436737d77ee990c513270f6c99aa411139d7cb1559665d7a28e3265b37a6474929f336521b332c1681b933f6cb9f3376673440d862adf2851d81edd6b8f6bdda51766b3b7aa0c69eb2032a3a041cbfee78f69799c9da2646970667358221220aa30b93cf1f26e5d3d4073cb0ff52f4117faf2347c502dd90c39288313399bcb64736f6c634300081400332f8788117e7eff1d82e926ec794901d17c78024a50270940304540a733656f0d",
  "linkReferences": {},
  "deployedLinkReferences": {}
}