{
  "_format": "hh-sol-artifact-1",
  "contractName": "TestFaucet",
  "sourceName": "contracts/TestFaucet.sol",
  "abi": [
    {
      "inputs": [
        {
          "internalType": "address",
          "name": "_dinToken",
          "type": "address"
        },
        {
          "internalType": "address",
          "name": "_usdtToken",
          "type": "address"
        }
      ],
      "stateMutability": "nonpayable",
      "type": "constructor"
    },
    {
      "inputs": [
        {
          "internalType": "uint256",
          "name": "nextAllowedAt",
          "type": "uint256"
        }
      ],
      "name": "CooldownNotPassed",
      "type": "error"
    },
    {
      "inputs": [],
      "name": "InsufficientFaucetBalance",
      "type": "error"
    },
    {
      "anonymous": false,
      "inputs": [
        {
          "indexed": true,
          "internalType": "address",
          "name": "account",
          "type": "address"
        },
        {
          "indexed": false,
          "internalType": "uint256",
          "name": "dinAmount",
          "type": "uint256"
        },
        {
          "indexed": false,
          "internalType": "uint256",
          "name": "usdtAmount",
          "type": "uint256"
        },
        {
          "indexed": false,
          "internalType": "uint256",
          "name": "timestamp",
          "type": "uint256"
        }
      ],
      "name": "Claimed",
      "type": "event"
    },
    {
      "inputs": [],
      "name": "COOLDOWN_SECONDS",
      "outputs": [
        {
          "internalType": "uint256",
          "name": "",
          "type": "uint256"
        }
      ],
      "stateMutability": "view",
      "type": "function"
    },
    {
      "inputs": [],
      "name": "DIN_AMOUNT",
      "outputs": [
        {
          "internalType": "uint256",
          "name": "",
          "type": "uint256"
        }
      ],
      "stateMutability": "view",
      "type": "function"
    },
    {
      "inputs": [],
      "name": "USDT_AMOUNT",
      "outputs": [
        {
          "internalType": "uint256",
          "name": "",
          "type": "uint256"
        }
      ],
      "stateMutability": "view",
      "type": "function"
    },
    {
      "inputs": [],
      "name": "claim",
      "outputs": [],
      "stateMutability": "nonpayable",
      "type": "function"
    },
    {
      "inputs": [],
      "name": "dinToken",
      "outputs": [
        {
          "internalType": "contract IERC20",
          "name": "",
          "type": "address"
        }
      ],
      "stateMutability": "view",
      "type": "function"
    },
    {
      "inputs": [
        {
          "internalType": "address",
          "name": "",
          "type": "address"
        }
      ],
      "name": "lastClaimAt",
      "outputs": [
        {
          "internalType": "uint256",
          "name": "",
          "type": "uint256"
        }
      ],
      "stateMutability": "view",
      "type": "function"
    },
    {
      "inputs": [],
      "name": "usdtToken",
      "outputs": [
        {
          "internalType": "contract IERC20",
          "name": "",
          "type": "address"
        }
      ],
      "stateMutability": "view",
      "type": "function"
    }
  ],
  "bytecode": "0x60c0346100e657601f61075f38819003918201601f19168301916001600160401b038311848410176100eb5780849260409485528339810103126100e657610052602061004b83610101565b9201610101565b6001600160a01b03918216801515806100db575b156100a7576080521660a0526040516106499081610116823960805181818161010b0152610186015260a05181818160ac0152818161028801526104610152f35b60405162461bcd60e51b815260206004820152600c60248201526b5a65726f206164647265737360a01b6044820152606490fd5b508282161515610066565b600080fd5b634e487b7160e01b600052604160045260246000fd5b51906001600160a01b03821682036100e65756fe608060408181526004918236101561001657600080fd5b600092833560e01c91826303822d3b146105865750816319c0db88146105675781634e71d92d1461013a5750806358aed7bc146100f757806372b49d63146100db578063a98ad46c146100985763fc35ccd81461007257600080fd5b346100945781600319360112610094576020905168056bc75e2d631000008152f35b5080fd5b5034610094578160031936011261009457517f00000000000000000000000000000000000000000000000000000000000000006001600160a01b03168152602090f35b503461009457816003193601126100945760209051610e108152f35b5034610094578160031936011261009457517f00000000000000000000000000000000000000000000000000000000000000006001600160a01b03168152602090f35b91905034610563578260031936011261056357338352602091838352818420548015158061053c575b610508575081516370a0823160e01b808252308383015290936001600160a01b037f0000000000000000000000000000000000000000000000000000000000000000811693919260249084888381895afa9788156104cf5789986104d9575b5068056bc75e2d6310000080981090811561044e575b5061043e57338852878452428689205585519188808685019763a9059cbb60e01b988981523386880152826044978d89820152888152610217816105bf565b51925af13d15610437573d6001600160401b03811161042557885190610246601f8201601f19168901836105f0565b81523d8b8883013e5b816103e8575b50156103b05788809188519787890190815233858a015282633b9aca00998a88820152878152610284816105bf565b51927f0000000000000000000000000000000000000000000000000000000000000000165af13d156103a9573d6001600160401b038111610397578751906102d5601f8201601f19168801836105f0565b81523d8a8783013e5b8161035a575b501561032357505050825193845283015242908201527f9cdcf2f7714cca3508c7f0110b04a90a80a3a8dd0e35de99689db74d28c5383e60603392a280f35b90601574115490cc8c081d1c985b9cd9995c8819985a5b1959605a1b9260649588519562461bcd60e51b8752860152840152820152fd5b80915051858115918215610373575b50509050386102e4565b838092935001031261039357840151801515810361039357808538610369565b8880fd5b634e487b7160e01b8a5260418552828afd5b60606102de565b5090601574115490cc8c081d1c985b9cd9995c8819985a5b1959605a1b9260649588519562461bcd60e51b8752860152840152820152fd5b80915051868115918215610401575b5050905038610255565b8380929350010312610421578501518015158103610421578086386103f7565b8980fd5b634e487b7160e01b8b5260418652838bfd5b606061024f565b85516325bab55360e01b81528390fd5b90508651908152308482015284818381867f0000000000000000000000000000000000000000000000000000000000000000165afa80156104cf57899061049e575b633b9aca00915010386101d8565b508481813d83116104c8575b6104b481836105f0565b8101031261039357633b9aca009051610490565b503d6104aa565b87513d8b823e3d90fd5b9097508481813d8311610501575b6104f181836105f0565b81010312610393575196386101c2565b503d6104e7565b60249285610e10830180931161052a575051639ab7872d60e01b815291820152fd5b634e487b7160e01b8152601184528490fd5b50610e108101808211610550574210610163565b634e487b7160e01b865260118352602486fd5b8280fd5b50503461009457816003193601126100945760209051633b9aca008152f35b929150346105bb5760203660031901126105bb57356001600160a01b038116908190036105bb57835260208381529220548152f35b8380fd5b608081019081106001600160401b038211176105da57604052565b634e487b7160e01b600052604160045260246000fd5b601f909101601f19168101906001600160401b038211908210176105da5760405256fea2646970667358221220b887572a2684a3dea9e90b396f8ea4185a3b3dce7db409a691803d8714fb272764736f6c63430008140033",
  "linkReferences": {},
  "deployedLinkReferences": {}
}