{
  "_format": "hh-sol-artifact-1",
  "contractName": "TranchePoolFactory",
  "sourceName": "contracts/TranchePoolFactory.sol",
  "abi": [
    {
      "inputs": [
        {
          "internalType": "address",
          "name": "_registry",
          "type": "address"
        },
        {
          "internalType": "address",
          "name": "_insuranceToken",
          "type": "address"
        },
        {
          "internalType": "address",
          "name": "_admin",
          "type": "address"
        }
      ],
      "stateMutability": "nonpayable",
      "type": "constructor"
    },
    {
      "inputs": [
        {
          "internalType": "uint256",
          "name": "trancheId",
          "type": "uint256"
        }
      ],
      "name": "PoolAlreadyExists",
      "type": "error"
    },
    {
      "inputs": [
        {
          "internalType": "uint256",
          "name": "trancheId",
          "type": "uint256"
        }
      ],
      "name": "PoolNotFound",
      "type": "error"
    },
    {
      "inputs": [],
      "name": "TrancheNotActive",
      "type": "error"
    },
    {
      "inputs": [],
      "name": "TrancheNotFound",
      "type": "error"
    },
    {
      "inputs": [],
      "name": "UnauthorizedPool",
      "type": "error"
    },
    {
      "inputs": [],
      "name": "ZeroAddress",
      "type": "error"
    },
    {
      "anonymous": false,
      "inputs": [
        {
          "indexed": false,
          "internalType": "address",
          "name": "account",
          "type": "address"
        }
      ],
      "name": "Paused",
      "type": "event"
    },
    {
      "anonymous": false,
      "inputs": [
        {
          "indexed": true,
          "internalType": "bytes32",
          "name": "role",
          "type": "bytes32"
        },
        {
          "indexed": true,
          "internalType": "bytes32",
          "name": "previousAdminRole",
          "type": "bytes32"
        },
        {
          "indexed": true,
          "internalType": "bytes32",
          "name": "newAdminRole",
          "type": "bytes32"
        }
      ],
      "name": "RoleAdminChanged",
      "type": "event"
    },
    {
      "anonymous": false,
      "inputs": [
        {
          "indexed": true,
          "internalType": "bytes32",
          "name": "role",
          "type": "bytes32"
        },
        {
          "indexed": true,
          "internalType": "address",
          "name": "account",
          "type": "address"
        },
        {
          "indexed": true,
          "internalType": "address",
          "name": "sender",
          "type": "address"
        }
      ],
      "name": "RoleGranted",
      "type": "event"
    },
    {
      "anonymous": false,
      "inputs": [
        {
          "indexed": true,
          "internalType": "bytes32",
          "name": "role",
          "type": "bytes32"
        },
        {
          "indexed": true,
          "internalType": "address",
          "name": "account",
          "type": "address"
        },
        {
          "indexed": true,
          "internalType": "address",
          "name": "sender",
          "type": "address"
        }
      ],
      "name": "RoleRevoked",
      "type": "event"
    },
    {
      "anonymous": false,
      "inputs": [
        {
          "indexed": true,
          "internalType": "uint256",
          "name": "trancheId",
          "type": "uint256"
        },
        {
          "indexed": true,
          "internalType": "uint256",
          "name": "productId",
          "type": "uint256"
        },
        {
          "indexed": true,
          "internalType": "address",
          "name": "pool",
          "type": "address"
        },
        {
          "indexed": false,
          "internalType": "address",
          "name": "creator",
          "type": "address"
        },
        {
          "indexed": false,
          "internalType": "uint256",
          "name": "timestamp",
          "type": "uint256"
        }
      ],
      "name": "TranchePoolCreated",
      "type": "event"
    },
    {
      "anonymous": false,
      "inputs": [
        {
          "indexed": false,
          "internalType": "address",
          "name": "account",
          "type": "address"
        }
      ],
      "name": "Unpaused",
      "type": "event"
    },
    {
      "inputs": [],
      "name": "ADMIN_ROLE",
      "outputs": [
        {
          "internalType": "bytes32",
          "name": "",
          "type": "bytes32"
        }
      ],
      "stateMutability": "view",
      "type": "function"
    },
    {
      "inputs": [],
      "name": "DEFAULT_ADMIN_ROLE",
      "outputs": [
        {
          "internalType": "bytes32",
          "name": "",
          "type": "bytes32"
        }
      ],
      "stateMutability": "view",
      "type": "function"
    },
    {
      "inputs": [],
      "name": "OPERATOR_ROLE",
      "outputs": [
        {
          "internalType": "bytes32",
          "name": "",
          "type": "bytes32"
        }
      ],
      "stateMutability": "view",
      "type": "function"
    },
    {
      "inputs": [],
      "name": "PAUSER_ROLE",
      "outputs": [
        {
          "internalType": "bytes32",
          "name": "",
          "type": "bytes32"
        }
      ],
      "stateMutability": "view",
      "type": "function"
    },
    {
      "inputs": [
        {
          "internalType": "uint256",
          "name": "",
          "type": "uint256"
        }
      ],
      "name": "allPools",
      "outputs": [
        {
          "internalType": "address",
          "name": "",
          "type": "address"
        }
      ],
      "stateMutability": "view",
      "type": "function"
    },
    {
      "inputs": [
        {
          "internalType": "uint256",
          "name": "trancheId",
          "type": "uint256"
        }
      ],
      "name": "createTranchePool",
      "outputs": [
        {
          "internalType": "address",
          "name": "pool",
          "type": "address"
        }
      ],
      "stateMutability": "nonpayable",
      "type": "function"
    },
    {
      "inputs": [],
      "name": "getPoolCount",
      "outputs": [
        {
          "internalType": "uint256",
          "name": "count",
          "type": "uint256"
        }
      ],
      "stateMutability": "view",
      "type": "function"
    },
    {
      "inputs": [
        {
          "internalType": "uint256",
          "name": "trancheId",
          "type": "uint256"
        }
      ],
      "name": "getPoolInfo",
      "outputs": [
        {
          "internalType": "address",
          "name": "pool",
          "type": "address"
        },
        {
          "components": [
            {
              "internalType": "uint256",
              "name": "trancheId",
              "type": "uint256"
            },
            {
              "internalType": "uint256",
              "name": "productId",
              "type": "uint256"
            },
            {
              "internalType": "address",
              "name": "productCatalog",
              "type": "address"
            },
            {
              "internalType": "bool",
              "name": "active",
              "type": "bool"
            }
          ],
          "internalType": "struct TranchePoolCore.TrancheInfo",
          "name": "trancheInfo",
          "type": "tuple"
        },
        {
          "components": [
            {
              "internalType": "uint256",
              "name": "totalAssets",
              "type": "uint256"
            },
            {
              "internalType": "uint256",
              "name": "totalShares",
              "type": "uint256"
            },
            {
              "internalType": "uint256",
              "name": "lockedAssets",
              "type": "uint256"
            },
            {
              "internalType": "uint256",
              "name": "premiumReserve",
              "type": "uint256"
            },
            {
              "internalType": "uint256",
              "name": "navPerShare",
              "type": "uint256"
            },
            {
              "internalType": "uint256",
              "name": "lastUpdateTime",
              "type": "uint256"
            }
          ],
          "internalType": "struct TranchePoolCore.PoolAccounting",
          "name": "poolAccounting",
          "type": "tuple"
        }
      ],
      "stateMutability": "view",
      "type": "function"
    },
    {
      "inputs": [
        {
          "internalType": "bytes32",
          "name": "role",
          "type": "bytes32"
        }
      ],
      "name": "getRoleAdmin",
      "outputs": [
        {
          "internalType": "bytes32",
          "name": "",
          "type": "bytes32"
        }
      ],
      "stateMutability": "view",
      "type": "function"
    },
    {
      "inputs": [
        {
          "internalType": "uint256",
          "name": "trancheId",
          "type": "uint256"
        }
      ],
      "name": "getTranchePool",
      "outputs": [
        {
          "internalType": "address",
          "name": "pool",
          "type": "address"
        }
      ],
      "stateMutability": "view",
      "type": "function"
    },
    {
      "inputs": [
        {
          "internalType": "bytes32",
          "name": "role",
          "type": "bytes32"
        },
        {
          "internalType": "address",
          "name": "account",
          "type": "address"
        }
      ],
      "name": "grantRole",
      "outputs": [],
      "stateMutability": "nonpayable",
      "type": "function"
    },
    {
      "inputs": [
        {
          "internalType": "bytes32",
          "name": "role",
          "type": "bytes32"
        },
        {
          "internalType": "address",
          "name": "account",
          "type": "address"
        }
      ],
      "name": "hasRole",
      "outputs": [
        {
          "internalType": "bool",
          "name": "",
          "type": "bool"
        }
      ],
      "stateMutability": "view",
      "type": "function"
    },
    {
      "inputs": [],
      "name": "insuranceToken",
      "outputs": [
        {
          "internalType": "contract InsuranceToken",
          "name": "",
          "type": "address"
        }
      ],
      "stateMutability": "view",
      "type": "function"
    },
    {
      "inputs": [
        {
          "internalType": "address",
          "name": "",
          "type": "address"
        }
      ],
      "name": "isValidPool",
      "outputs": [
        {
          "internalType": "bool",
          "name": "",
          "type": "bool"
        }
      ],
      "stateMutability": "view",
      "type": "function"
    },
    {
      "inputs": [],
      "name": "pause",
      "outputs": [],
      "stateMutability": "nonpayable",
      "type": "function"
    },
    {
      "inputs": [],
      "name": "paused",
      "outputs": [
        {
          "internalType": "bool",
          "name": "",
          "type": "bool"
        }
      ],
      "stateMutability": "view",
      "type": "function"
    },
    {
      "inputs": [],
      "name": "registry",
      "outputs": [
        {
          "internalType": "contract IDinRegistry",
          "name": "",
          "type": "address"
        }
      ],
      "stateMutability": "view",
      "type": "function"
    },
    {
      "inputs": [
        {
          "internalType": "bytes32",
          "name": "role",
          "type": "bytes32"
        },
        {
          "internalType": "address",
          "name": "account",
          "type": "address"
        }
      ],
      "name": "renounceRole",
      "outputs": [],
      "stateMutability": "nonpayable",
      "type": "function"
    },
    {
      "inputs": [
        {
          "internalType": "bytes32",
          "name": "role",
          "type": "bytes32"
        },
        {
          "internalType": "address",
          "name": "account",
          "type": "address"
        }
      ],
      "name": "revokeRole",
      "outputs": [],
      "stateMutability": "nonpayable",
      "type": "function"
    },
    {
      "inputs": [
        {
          "internalType": "bytes4",
          "name": "interfaceId",
          "type": "bytes4"
        }
      ],
      "name": "supportsInterface",
      "outputs": [
        {
          "internalType": "bool",
          "name": "",
          "type": "bool"
        }
      ],
      "stateMutability": "view",
      "type": "function"
    },
    {
      "inputs": [
        {
          "internalType": "uint256",
          "name": "",
          "type": "uint256"
        }
      ],
      "name": "tranchePools",
      "outputs": [
        {
          "internalType": "address",
          "name": "",
          "type": "address"
        }
      ],
      "stateMutability": "view",
      "type": "function"
    },
    {
      "inputs": [],
      "name": "unpause",
      "outputs": [],
      "stateMutability": "nonpayable",
      "type": "function"
    }
  ],
  "bytecode": "0x60c034620001ca57601f6200539338819003918201601f191683019291906001600160401b03841183851017620001cf578160609284926040968752833981010312620001ca576200005181620001e5565b9060206200006e8462000066838501620001e5565b9301620001e5565b9160ff1990816001541660015560018060a01b0380951680158015620001bf575b8015620001b4575b620001a357608052841660a0526000808052808352858120939094168085529282528484205460ff16156200016d575b7f65d7a28e3265b37a6474929f336521b332c1681b933f6cb9f3376673440d862a91828552848152858520848652815260ff86862054161562000134575b85516151789081620001fb82396080518181816102c30152610a33015260a0518181816103ab01526110b20152f35b828552848152858520908486525260018585209182541617905560008051602062005373833981519152339380a4388080808062000105565b8380528382528484208385528252848420600182825416179055338385600080516020620053738339815191528180a4620000c7565b865163d92e233d60e01b8152600490fd5b508585161562000097565b50858216156200008f565b600080fd5b634e487b7160e01b600052604160045260246000fd5b51906001600160a01b0382168203620001ca5756fe60806040818152600491823610156200001757600080fd5b600092833560e01c91826301ffc9a714620010e15750816307159868146200109b578163248a9ca3146200106f578163295e95731462000a625781632f2ff15d1462000fbf5781632f380b351462000d8157816336568abe1462000ce85781633f4ba83a1462000b4c57816341d1de971462000b035781635ab78ee11462000abd5781635c975abb1462000a9757816374c745321462000a6257816375b238fc14620001d15781637b1039991462000a1c5781638456cb5914620008a15781638938a45814620002425781638eec5d70146200022157816391d1485414620001d7578163a217fddf14620001d1578163d547741f146200018757508063e63ab1e9146200015c5763f5b541a6146200012e57600080fd5b34620001585781600319360112620001585760209051600080516020620051038339815191528152f35b5080fd5b5034620001585781600319360112620001585760209051600080516020620051238339815191528152f35b91905034620001cd5780600319360112620001cd57620001ca9135620001c46001620001b262001139565b938387528660205286200154620011d3565b6200141f565b80f35b8280fd5b620011b5565b905034620001cd5781600319360112620001cd578160209360ff92620001fc62001139565b903582528186528282206001600160a01b039091168252855220549151911615158152f35b50503462000158578160031936011262000158576020906003549051908152f35b838334620001585760209283600319360112620001cd5780359060008051602062005103833981519152808552848652838520338652865260ff848620541615620006ca57506200029960ff6001541615620015ad565b81845260028552828420546001600160a01b0394908516620006b4578351630b36485d60e41b81527f00000000000000000000000000000000000000000000000000000000000000008616929087818381875afa908115620006aa5790879184916200066a575b50865163d972e8ad60e01b81528381018790529116938382602481885afa91821562000660578492620004d5575b50815115620004c557610140820191825115620004b557890194855192511515908851936200035d85620013ad565b8885528b850152888401526060830152865191613ab280840192906001600160401b03841185851017620004a257849260e09492620003a89262001611863983528c83019062001155565b897f00000000000000000000000000000000000000000000000000000000000000001660a08201523360c082015203019083f0801562000498578483526002885285832080546001600160a01b0319169188169182179055600354909690600160401b81101562000485579187959493916200042c8460018a960160035562001183565b819291549060031b9189831b921b1916179055858252885220600160ff1982541617905551907f73a190c4a360895f15f41103e279b874c3071ec5a9dfeca2a48eaeeaa7e0d6ad8480513381524289820152a451908152f35b634e487b7160e01b845260418352602484fd5b85513d84823e3d90fd5b634e487b7160e01b875260418652602487fd5b875163d9b8433560e01b81528490fd5b865163b54ae23f60e01b81528390fd5b9091503d8085833e620004e98183620013fb565b810189828203126200065c5781516001600160401b0392838211620006585701906101c0928383830312620006585789519384018481108282111762000641578a52825184528b8301518c85015289830151600581101562000654578a850152606083015160608501526080830151608085015260a083015160a085015260c083015160c085015260e083015160e085015261010080840151908501526101208084015190850152610140620005a181850162001602565b90850152610160808401519085015261018080840151908501526101a09283810151908282116200063d570182601f82011215620006545780519182116200064157908c9392918160051b91620005fd8d5196840187620013fb565b85528d808601928201019283116200063d57908d809201905b8382106200062d575050505082015290896200032e565b8151815290820190820162000616565b8880fd5b634e487b7160e01b885260418752602488fd5b8780fd5b8680fd5b8480fd5b87513d86823e3d90fd5b809250898092503d8311620006a2575b620006868183620013fb565b81010312620001cd576200069b8791620015ed565b8962000300565b503d6200067a565b86513d85823e3d90fd5b50915163131189af60e31b815291820152602490fd5b915092620006d833620014a6565b91835190620006e782620013ad565b604282528682019260603685378251156200088e57603084538251906001918210156200087b5790607860218501536041915b8183116200080b57505050620007db5783620007aa60488895620007cd956200079a9560449a9951968793620007708b86019b600080516020620050e38339815191528d52825192839160378901910162001388565b8401917001034b99036b4b9b9b4b733903937b6329607d1b60378401525180938684019062001388565b01036028810185520183620013fb565b5195869462461bcd60e51b86528501525180928160248601528585019062001388565b601f01601f19168101030190fd5b606485878087519262461bcd60e51b84528301526024820152600080516020620050c38339815191526044820152fd5b909192600f8116601081101562000868576f181899199a1a9b1b9c1cb0b131b232b360811b901a6200083e858762001494565b53881c92801562000855576000190191906200071a565b634e487b7160e01b825260118952602482fd5b634e487b7160e01b835260328a52602483fd5b634e487b7160e01b815260328852602490fd5b634e487b7160e01b815260328752602490fd5b91905034620001cd5782600319360112620001cd576000805160206200512383398151915291828452602092848452828520338652845260ff8386205416156200092c57847f62e78cea01bee320cd4e420270b5ea74000d11b0c9f74754ebdbfc544b05a2588585600180546200091c60ff821615620015ad565b60ff19161760015551338152a180f35b9092936200093a33620014a6565b918351906200094982620013ad565b604282528682019260603685378251156200088e57603084538251906001918210156200087b5790607860218501536041915b818311620009d257505050620007db5783620007aa60488895620007cd956200079a9560449a9951968793620007708b86019b600080516020620050e38339815191528d52825192839160378901910162001388565b909192600f8116601081101562000868576f181899199a1a9b1b9c1cb0b131b232b360811b901a62000a05858762001494565b53881c92801562000855576000190191906200097c565b5050346200015857816003193601126200015857517f00000000000000000000000000000000000000000000000000000000000000006001600160a01b03168152602090f35b905034620001cd576020366003190112620001cd5735825260026020908152918190205490516001600160a01b039091168152f35b505034620001585781600319360112620001585760209060ff6001541690519015158152f35b905034620001cd576020366003190112620001cd5780356001600160a01b0381169081900362000aff578360ff92849260209652855220541690519015158152f35b8380fd5b905034620001cd576020366003190112620001cd57359160035483101562000b49575062000b3360209262001183565b60018060a01b0391549060031b1c169051908152f35b80fd5b8383346200015857816003193601126200015857818052602090828252808320338452825260ff81842054161562000bf7576001549360ff85161562000bbf57507f5db9ee0a495bf2e6ff9c91a7834c1ba4fdd244a5e8aa4e537bd38aeae4b073aa929360ff191660015551338152a180f35b82606492519162461bcd60e51b8352820152601460248201527314185d5cd8589b194e881b9bdd081c185d5cd95960621b6044820152fd5b90929162000c0533620014a6565b908083519062000c1582620013ad565b604282528682019260603685378251156200088e57603084538251906001918210156200087b5790607860218501536041915b81831162000c9e57505050620007db5783620007aa60488895620007cd956200079a9560449a9951968793620007708b86019b600080516020620050e38339815191528d52825192839160378901910162001388565b909192600f8116601081101562000868576f181899199a1a9b1b9c1cb0b131b232b360811b901a62000cd1858762001494565b53881c928015620008555760001901919062000c48565b83915034620001585782600319360112620001585762000d0762001139565b90336001600160a01b0383160362000d265790620001ca91356200141f565b608490602085519162461bcd60e51b8352820152602f60248201527f416363657373436f6e74726f6c3a2063616e206f6e6c792072656e6f756e636560448201526e103937b632b9903337b91039b2b63360891b6064820152fd5b838334620001585760209081600319360112620001cd5780519062000da682620013ad565b8382528383830152838183015260609184838201529281519362000dca85620013df565b85855285828601528583860152858486015260809486868201528660a082015296803587526002835260018060a01b038488205416968762000e57575b84518881526101609060a08b8a8a8a8a62000e258782018c62001155565b84518688015284015160c087015283015160e08601528201516101008501528101516101208401520151610140820152f35b84516373eba95360e01b81529198509150858189818a5afa90811562000fb557829162000f48575b509660c084518092630e14997760e31b8252818a5afa91821562000f3d57809262000eb5575b50909690508162000e2562000e07565b90915060c0823d821162000f34575b8162000ed360c09383620013fb565b8101031262000b4957509161016096939162000e2560a096948784519162000efb83620013df565b80518352848101518584015285810151868401528681015187840152878101518884015201518882015292949650819395985062000ea5565b3d915062000ec4565b8451903d90823e3d90fd5b90508581813d831162000fad575b62000f628183620013fb565b81010312620001585762000fa28585519262000f7e84620013ad565b80518452858101518685015262000f97878201620015ed565b878501520162001602565b858201528862000e7f565b503d62000f56565b84513d84823e3d90fd5b905034620001cd5781600319360112620001cd57359062000fdf62001139565b908284528360205262000ff860018286200154620011d3565b82845260208481528185206001600160a01b039093168086529290528084205460ff161562001025578380f35b828452836020528084208285526020528320600160ff1982541617905533917f2f8788117e7eff1d82e926ec794901d17c78024a50270940304540a733656f0d8480a43880808380f35b905034620001cd576020366003190112620001cd57816020936001923581528085522001549051908152f35b5050346200015857816003193601126200015857517f00000000000000000000000000000000000000000000000000000000000000006001600160a01b03168152602090f35b849134620001cd576020366003190112620001cd573563ffffffff60e01b8116809103620001cd5760209250637965db0b60e01b811490811562001127575b5015158152f35b6301ffc9a760e01b1490508362001120565b602435906001600160a01b03821682036200115057565b600080fd5b80518252602080820151908301526040808201516001600160a01b0316908301526060908101511515910152565b6003548110156200119f57600360005260206000200190600090565b634e487b7160e01b600052603260045260246000fd5b34620011505760003660031901126200115057602060405160008152f35b60008181526020818152604092838320338452825260ff848420541615620011fb5750505050565b6200120633620014a6565b908451906200121582620013ad565b60428252838201946060368737825115620013745760308653825190600191821015620013745790607860218501536041915b8183116200130157505050620012d05784620012ab6048620007cd9360449798519889916200129b89840198600080516020620050e38339815191528a5262000770815180928d60378901910162001388565b01036028810189520187620013fb565b5194859362461bcd60e51b855260048501525180928160248601528585019062001388565b60648386519062461bcd60e51b82528060048301526024820152600080516020620050c38339815191526044820152fd5b909192600f8116601081101562001360576f181899199a1a9b1b9c1cb0b131b232b360811b901a62001334858762001494565b5360041c9280156200134c5760001901919062001248565b634e487b7160e01b82526011600452602482fd5b634e487b7160e01b83526032600452602483fd5b634e487b7160e01b81526032600452602490fd5b60005b8381106200139c5750506000910152565b81810151838201526020016200138b565b608081019081106001600160401b03821117620013c957604052565b634e487b7160e01b600052604160045260246000fd5b60c081019081106001600160401b03821117620013c957604052565b601f909101601f19168101906001600160401b03821190821017620013c957604052565b9060009180835282602052604083209160018060a01b03169182845260205260ff6040842054166200145057505050565b80835282602052604083208284526020526040832060ff1981541690557ff6391f5c32d9c69d2a47ea670b442974b53935d1edc7fd64eb21e047a839171b339380a4565b9081518110156200119f570160200190565b60405190606082016001600160401b03811183821017620013c957604052602a82526020820160403682378251156200119f576030905381516001908110156200119f57607860218401536029905b8082116200153a575050620015075790565b606460405162461bcd60e51b81526020600482015260206024820152600080516020620050c38339815191526044820152fd5b9091600f8116601081101562001598576f181899199a1a9b1b9c1cb0b131b232b360811b901a6200156c848662001494565b5360041c91801562001583576000190190620014f5565b60246000634e487b7160e01b81526011600452fd5b60246000634e487b7160e01b81526032600452fd5b15620015b557565b60405162461bcd60e51b815260206004820152601060248201526f14185d5cd8589b194e881c185d5cd95960821b6044820152606490fd5b51906001600160a01b03821682036200115057565b51908115158203620011505756fe60c0604081815234620003f6578162003ab28038038091620000228285620003fb565b83398101039160e08312620003f6576200003c816200041f565b9060808094601f190112620003f65782516001600160401b0392909190858301848111848210176200032d57855260209384830151845285830151928585019384526200008c606082016200041f565b94878101958652888201518015158103620003f65760608201908152620000c460c0620000bc60a086016200041f565b94016200041f565b9660ff1996876001541660015560016002556103e860175560018060a01b038097169384158015620003eb575b8015620003e0575b620003cf57848d5251600355516004908155905160058054935160ff60a01b90151560a01b169188166001600160a81b03199094169390931717909155600c80549386166001600160a01b0319948516179055885163873673cd60e01b8152918891839182905afa908115620003855790849160009162000390575b501660a052600486848a511689519283809263d0ab474160e01b82525afa908115620003855790849160009162000343575b501690600e541617600e5585519060c0820190828210908211176200032d5786526000815260008582015260008682015260006060820152670de0b6b3a764000090818882015260a0429101526000600655600060075560006008556000600955600a5542600b5560008052600084528460002092169182600052835260ff84600020541615620002f1575b7f65d7a28e3265b37a6474929f336521b332c1681b933f6cb9f3376673440d862a9283600052600081528460002083600052815260ff85600020541615620002b2575b85855161365d91826200043583395181611008015260a051818181610bc801528181611428015281816114b101528181611bdd01526133990152f35b83600052600081528460002090836000525260018460002091825416179055339160008051602062003a92833981519152600080a43880808062000276565b600080526000835283600020826000528352836000206001828254161790553382600060008051602062003a928339815191528180a462000233565b634e487b7160e01b600052604160045260246000fd5b91508782813d83116200037d575b6200035d8183620003fb565b810103126200037a57506200037384916200041f565b38620001a7565b80fd5b503d62000351565b88513d6000823e3d90fd5b91508782813d8311620003c7575b620003aa8183620003fb565b810103126200037a5750620003c084916200041f565b3862000175565b503d6200039e565b8b5163d92e233d60e01b8152600490fd5b50878a1615620000f9565b5087861615620000f1565b600080fd5b601f909101601f19168101906001600160401b038211908210176200032d57604052565b51906001600160a01b0382168203620003f65756fe6080604052600436101561001257600080fd5b60003560e01c806301ffc9a714610312578063071598681461030d578063248a9ca3146103085780632f2ff15d146103035780632f9c9f89146102fe578063318949f6146102f957806335659fb8146102f4578063364bc15a146102ef57806336568abe146102ea57806337305df5146102e55780633f4ba83a146102e0578063433b3596146102db57806348f54f03146102d65780634ca90406146102d15780635c975abb146102cc5780635ea67d74146102c757806360dc2340146102c25780636baf2ca6146102bd57806370a4cbb8146102b8578063722d5b1b146102b357806373eba953146102ae57806375b238fc146102865780637b103999146102a95780637e7dad96146102a45780638456cb591461029f5780638a0dca8d1461029a5780638e8edd981461029557806391d148541461029057806392acb0da1461028b578063a217fddf14610286578063a98ad46c14610281578063ba9cf01d1461027c578063bb69bc7114610277578063bfa37e3714610272578063c99c412c1461026d578063d547741f14610268578063dbcfcab914610263578063e14b0e1b1461025e578063e336ac4414610259578063e4e7741e14610254578063e63ab1e91461024f578063e6d0919d1461024a578063e9ac044014610245578063ece1373214610240578063f5b541a61461023b578063f656ba5114610236578063f67ed3f7146102315763f8e174681461022c57600080fd5b611e74565b611da7565b611d6d565b611d44565b611b39565b611b08565b611adf565b611ab6565b6118a8565b61186e565b61174d565b61168c565b61164d565b6115ff565b611573565b611509565b6114e0565b61149b565b610fd6565b61136e565b61132e565b6112f5565b611192565b6110ff565b611037565b610ff2565b610f30565b610e97565b610dd6565b610aa1565b610a78565b610a26565b6109d0565b610935565b610895565b610860565b6107a4565b61073f565b61066e565b610633565b610615565b61055d565b610497565b6103fd565b6103a2565b610379565b346103685760203660031901126103685760043563ffffffff60e01b811680910361036857602090637965db0b60e01b8114908115610357575b506040519015158152f35b6301ffc9a760e01b1490503861034c565b600080fd5b6001600160a01b031690565b3461036857600036600319011261036857600c546040516001600160a01b039091168152602090f35b346103685760203660031901126103685760043560005260006020526020600160406000200154604051908152f35b602435906001600160a01b038216820361036857565b600435906001600160a01b038216820361036857565b34610368576040366003190112610368576004356104196103d1565b60009180835282602052610433600160408520015461225a565b8083528260205260ff6104498360408620610546565b541615610454578280f35b808352826020526104688260408520610546565b805460ff1916600117905533916001600160a01b0316906000805160206135488339815191528480a438808280f35b3461036857600036600319011261036857608060035460ff60045460055490604051938452602084015260018060a01b038116604084015260a01c1615156060820152f35b6000526010602052604060002090565b600052600f602052604060002090565b6000526012602052604060002090565b6000526013602052604060002090565b6000526011602052604060002090565b6001600160a01b0316600090815260156020526040902090565b9060018060a01b0316600052602052604060002090565b346103685760403660031901126103685761058e6105796103d1565b60043560005260116020526040600020610546565b8054600182015460028301546003840154600485015460058601546006870154600790970154604080516001600160a01b0390981688526020880196909652948601939093526060850191909152608084015260a083015260ff808416151560c084015260089390931c909216151560e082015261010081019190915261012090f35b0390f35b34610368576000366003190112610368576020601754604051908152f35b346103685760003660031901126103685760206040517ffc8737ab85eb45125971625a9ebdb75cc78e01d5c1fa80c4c6e5203f47bc4fab8152f35b34610368576040366003190112610368576106876103d1565b336001600160a01b038216036106a5576106a39060043561242d565b005b60405162461bcd60e51b815260206004820152602f60248201527f416363657373436f6e74726f6c3a2063616e206f6e6c792072656e6f756e636560448201526e103937b632b9903337b91039b2b63360891b6064820152608490fd5b90815180825260208080930193019160005b828110610722575050505090565b83516001600160a01b031685529381019392810192600101610714565b346103685760203660031901126103685760043560005260126020526107966040600020601360205261061161078261077c604060002093612dec565b92612dec565b604051938493604085526040850190610702565b908382036020850152610702565b34610368576000366003190112610368576107bd611f67565b60015460ff8116156107fc5760ff19166001557f5db9ee0a495bf2e6ff9c91a7834c1ba4fdd244a5e8aa4e537bd38aeae4b073aa6020604051338152a1005b60405162461bcd60e51b815260206004820152601460248201527314185d5cd8589b194e881b9bdd081c185d5cd95960621b6044820152606490fd5b9260a094919796959260c0850198855260208501526040840152606083015260808201520152565b346103685760003660031901126103685760065460075490610611600854600954600a5490600b549260405196879687610838565b346103685760203660031901126103685760018060a01b0360055416600060035460246040518094819363d972e8ad60e01b835260048301525afa908115610930576108f760a0610611936108ff9360009161090f575b5001516004356124d2565b612710900490565b6040519081529081906020820190565b61092a913d8091833e61092281836123de565b810190612783565b386108ec565b612863565b34610368576040366003190112610368576109666109516103d1565b60043560005260106020526040600020610546565b80546001820154600283015460038401546004850154600590950154604080516001600160a01b039096168652602086019490945292840191909152606083015260ff8084161515608084015260089390931c909216151560a082015260c081019190915260e090f35b3461036857600036600319011261036857602060ff600154166040519015158152f35b634e487b7160e01b600052603260045260246000fd5b8054821015610a215760005260206000200190600090565b6109f3565b346103685760403660031901126103685760243560043560005260126020526040600020805482101561036857602091610a5f91610a09565b905460405160039290921b1c6001600160a01b03168152f35b3461036857600036600319011261036857600e546040516001600160a01b039091168152602090f35b3461036857604080600319360112610368576004803560243591600093828552601460205260ff8186205416610dc957610adf6002805414156126b7565b60028055610aec83612c4e565b8315610dbc5790610b319185610b0e610b09610b0960055461036d565b61036d565b600354835163d972e8ad60e01b8152858101918252958692918391829160200190565b03915afa928315610930578693610da0575b5060c083015185108015610d93575b610d8657610b5f846104dc565b6001600160a01b0390610b8490610b77903390610546565b546001600160a01b031690565b16610d7957610b92846104ec565b92610b9e8685546124e5565b61010082015110610d6b5790610bbf6108f760a0610c3c95940151886124d2565b91610bec8330337f0000000000000000000000000000000000000000000000000000000000000000612970565b602087610bfd610b09600c5461036d565b60035485516302338fc160e61b8152338682019081526020810192909252604082018b905260608201939093529196879283918d918391608090910190565b03925af1908115610930577f342ce500eabe14b25c2daa9e521b204f96f27a460508c15d096f217eba7c039c95610d2b958a93610d3b575b50610cbd610c806124f2565b3381528a602082015286868201528460608201528b60808201528b60a08201524260c0820152610cb833610cb38c6104dc565b610546565b6128b6565b610ccf33610cca8a6104fc565b612924565b610cda8982546124e5565b815501610ce88482546124e5565b9055857ff4084a3d968a7667b6181f8223d2414192ff6612c9a93e7ca09767e737e4e773835180610d1c3395888d846126a1565b0390a35191829133968361295f565b0390a3610d386001600255565b80f35b610d5d91935060203d8111610d64575b610d5581836123de565b81019061288f565b9138610c74565b503d610d4b565b505163030b90ad60e41b8152fd5b5163966753c560e01b8152fd5b5163494fbb9760e01b8152fd5b5060e08301518511610b52565b610db59193503d8088833e61092281836123de565b9138610b43565b5163162908e360e11b8152fd5b51631a298ba360e31b8152fd5b3461036857600080600319360112610e945760a0604051610df681612351565b8281528260208201528260408201528260608201528260808201520152610611604051610e2281612351565b6006548152600754602082015260085460408201526009546060820152600a546080820152600b5460a08201526040519182918291909160a08060c083019480518452602081015160208501526040810151604085015260608101516060850152608081015160808501520151910152565b80fd5b3461036857602036600319011261036857600435610eb3611f67565b6113888111610efc577f8ac7f037f6ddce060852a933008b8418b004774068808986f1428190b6597905610ef76017548360175560405191829133954291846126a1565b0390a2005b60405162461bcd60e51b815260206004820152600c60248201526b08ccaca40e8dede40d0d2ced60a31b6044820152606490fd5b3461036857600080600319360112610e94576060604051610f5081612371565b8281528260208201528260408201520152610611604051610f7081612371565b6003548152600454602082015260ff60055460018060a01b038116604084015260a01c1615156060820152604051918291829190916060806080830194805184526020810151602085015260018060a01b03604082015116604085015201511515910152565b3461036857600036600319011261036857602060405160008152f35b34610368576000366003190112610368576040517f00000000000000000000000000000000000000000000000000000000000000006001600160a01b03168152602090f35b3461036857602036600319011261036857600435611053611f67565b80600052601460205260ff604060002054166110c35761108d611080826000526014602052604060002090565b805460ff19166001179055565b6040514281523391907f1a23d0ab20051b573d87954b1c80f375543995bb999bd93ade02de7849f52e1e9080602081015b0390a3005b60405162461bcd60e51b81526020600482015260146024820152732937bab7321030b63932b0b23c90333937bd32b760611b6044820152606490fd5b34610368576000366003190112610368576111186120b8565b60015460ff811661115a5760019060ff1916176001557f62e78cea01bee320cd4e420270b5ea74000d11b0c9f74754ebdbfc544b05a2586020604051338152a1005b60405162461bcd60e51b815260206004820152601060248201526f14185d5cd8589b194e881c185d5cd95960821b6044820152606490fd5b346103685760408060031936011261036857610611906111b06103d1565b906112078151926111c08461238c565b82600080865280602087015280828701528060608701528060808701528060a08701528060c08701528060e087015280610100809701526004358152601160205220610546565b916007611212612501565b9361122d611220825461036d565b6001600160a01b03168652565b600181015460208601526002810154848601526003810154606086015260048101546080860152600581015460a0860152600681015460ff818116151560c08801526112809160081c16151560e0870152565b015490830152519182918281516001600160a01b031681526020808301519082015260408083015190820152606080830151908201526080808301519082015260a0808301519082015260c08083015115159082015260e0808301511515908201526101208101929161010080910151910152565b346103685760403660031901126103685760243560043560005260136020526040600020805482101561036857602091610a5f91610a09565b3461036857604036600319011261036857602060ff61136261134e6103d1565b600435600052600084526040600020610546565b54166040519015158152f35b3461036857602036600319011261036857600d5460048035916001600160a01b0316330361148c576000906113aa6113a5846104fc565b612dec565b91805b8351821015611454576113e26113c2866104dc565b6113dc6113cf8588612e53565b516001600160a01b031690565b90610546565b916113f08484015460ff1690565b611406575b611400919250612e44565b906113ad565b61144c6114009261142661141f600187015480936124e5565b955461036d565b7f0000000000000000000000000000000000000000000000000000000000000000612e74565b8291506113f5565b610611906108ff611487600361147d8961147861147387600654612e67565b600655565b6104ec565b0154600854612e67565b600855565b604051631a0d995360e31b8152fd5b34610368576000366003190112610368576040517f00000000000000000000000000000000000000000000000000000000000000006001600160a01b03168152602090f35b346103685760003660031901126103685760206040516000805160206135888339815191528152f35b34610368576020366003190112610368576001600160a01b0361152a6103e7565b1660005260156020526040600020546016602052604060002054810390811161156e57670de0b6b3a7640000611565602092600a54906124d2565b04604051908152f35b61249f565b346103685760203660031901126103685761158c6103e7565b611594611f67565b6001600160a01b0390811680156115ed57600e80546001600160a01b0319811683179091556040514281523393909116907f184d7623e4c971fd6334015a038ade580ffbb82efd3e1d56a98853426b5498e790602090a4005b60405163d92e233d60e01b8152600490fd5b3461036857602036600319011261036857600435600052600f602052604060002080546106116001830154926002810154906003810154600560048301549201549260405196879687610838565b34610368576040366003190112610368576106a360043561166c6103d1565b9080600052600060205261168760016040600020015461225a565b61242d565b34610368576020366003190112610368576004356116a8611f67565b80600052601460205260ff6040600020541615611715576116e06116d6826000526014602052604060002090565b805460ff19169055565b6040514281523391907fb3da8fef34a2999fa6fbf58e412dbf87d4d79dd2409a11afaa6c8f6be8451bd89080602081016110be565b60405162461bcd60e51b815260206004820152601060248201526f2937bab732103737ba10333937bd32b760811b6044820152606490fd5b346103685760408060031936011261036857610611906117b361176e6103d1565b8260c0815161177c816123a8565b600091818380935282602082015282858201528260608201528260808201528260a082015201526004358152601060205220610546565b9060058151926117c2846123a8565b80546001600160a01b031684526001810154602085015260028101548385015260038101546060850152600481015460ff8181161515608087015261180e9160081c16151560a0860152565b015460c0830152519182918291909160c08060e083019460018060a01b03815116845260208101516020850152604081015160408501526060810151606085015260808101511515608085015260a0810151151560a08501520151910152565b34610368576020366003190112610368576001600160a01b0361188f6103e7565b1660005260166020526020604060002054604051908152f35b346103685760203660031901126103685760048035906118c6612189565b81600052601460205260409060ff826000205416611aa8576118ef610b09610b0960055461036d565b825163023c4c9f60e61b81528281018581526101409283918391908290819060200103915afa91821561093057600092611a7b575b5050602081015160035403611a5e57608081016001815161194481612c13565b61194d81612c13565b03611a23575060600151421115611a15576106116003838561196e816104ec565b8054600182015480821015611a0b57509384915b8260028201550155611999611487846008546124e5565b6119a38382612eb2565b6119ac8161313b565b6119b5816132f4565b7fe7b2acd6ab8820812c03741c2af5d3f82d5284b52d8129f7105622b9cf5548ce6119df826104fc565b546119e98361050c565b54906119fa855192839288846126a1565b0390a2519081529081906020820190565b9050938491611982565b905163ad6e54d160e01b8152fd5b611a5a91505192611a3384612c13565b611a3c84612c13565b611a4584612c13565b51632b20c54160e21b81529283928301612c33565b0390fd5b50905163376cc6d960e21b81529081019182529081906020010390fd5b611a9a9250803d10611aa1575b611a9281836123de565b810190612b94565b3880611924565b503d611a88565b9051631a298ba360e31b8152fd5b346103685760003660031901126103685760206040516000805160206135c88339815191528152f35b3461036857600036600319011261036857600d546040516001600160a01b039091168152602090f35b34610368576020366003190112610368576004356000526014602052602060ff604060002054166040519015158152f35b34610368576040806003193601126103685760043560243590600092818452601460205260ff8185205416611d3457611b766002805414156126b7565b60028055611b8382612c4e565b8215611d2457611b928261051c565b6001600160a01b0390611baa90610b77903390610546565b16611d14577ff4d587c98d234ca4d147061e6b5167e7f41ee17f11562a9f0b49570abece859e91611d0791611c018530337f0000000000000000000000000000000000000000000000000000000000000000612970565b611c16611c0d866124b5565b600a549061286f565b91611c26611473876006546124e5565b611c3a611c35846007546124e5565b600755565b611c433361052c565b611c4e8482546124e5565b9055611ca0611c5b612501565b33815287602082015284848201528860608201528860808201528860a08201528860c08201528860e082015242610100820152611c9b33610cb38561051c565b612d6a565b611cad33610cca8361050c565b6001611cb8826104ec565b01611cc48782546124e5565b90558151907fe299d2dad8172ba28758a6e6da18728d73d3142444c7eaa4f5af62c8d9748147339280611cf8878b8361295f565b0390a35191829133958361295f565b0390a2610d386001600255565b5163966753c560e01b8152600490fd5b5163162908e360e11b8152600490fd5b51631a298ba360e31b8152600490fd5b346103685760003660031901126103685760206040516000805160206135a88339815191528152f35b34610368576020366003190112610368576001600160a01b03611d8e6103e7565b1660005260156020526020604060002054604051908152f35b3461036857602036600319011261036857611dc06103e7565b611dc8611f67565b600d80546001600160a01b0319166001600160a01b038316908117909155600080516020613588833981519152600081815260208190529290919060ff611e2f827fdd53df7e4642f4e3d9dededdac02355f2e876e2a9b7ef4e260af8d6fd7b33257610546565b541615611e3a578380f35b611e4e908385528460205260408520610546565b805460ff1916600117905533916000805160206135488339815191528480a43880808380f35b3461036857602036600319011261036857600d54600435906001600160a01b03163303611f5557611ea76113a58261050c565b60005b8151811015611f4457611ee390611ed0611ec38561051c565b6113dc6113cf8487612e53565b600681015460ff16611ee8575b50612e44565b611eaa565b60058101548015611f2f57611f1f611f05611f2792935b5461036d565b6001600160a01b0316600090815260166020526040902090565b918254612e67565b905538611edd565b50611f27611f1f611f05600284015493611eff565b6106a3611487600361147d866104ec565b604051631a0d995360e31b8152600490fd5b600080805260205260ff611f9b337fad3228b676f7d3cd4284a5443f17f1962b36e491b30a40b2405849e597ba5fb5610546565b541615611fa457565b611fad336125ef565b600090611fb861254e565b916030611fc484612569565b536078611fd084612576565b5360415b6001811161207657611a5a604861205e8561205088611ff388156125a4565b60405194859376020b1b1b2b9b9a1b7b73a3937b61d1030b1b1b7bab73a1604d1b602086015261202d815180926020603789019101612301565b84017001034b99036b4b9b9b4b733903937b6329607d1b60378201520190612324565b03601f1981018352826123de565b60405162461bcd60e51b815291829160048301612401565b90600f8116906010821015610a21576120b3916f181899199a1a9b1b9c1cb0b131b232b360811b901a6120a98487612586565b5360041c91612597565b611fd4565b6000805160206135c8833981519152600081815260205260ff6120fb337ff7c9542c591017a21c74b6f3fab6263c7952fc0aaf9db4c22a2a04ddc7f8674f610546565b5416156121055750565b61210e336125ef565b61211661254e565b91603061212284612569565b53607861212e84612576565b5360415b6001811161215157611a5a604861205e8561205088611ff388156125a4565b90600f8116906010821015610a2157612184916f181899199a1a9b1b9c1cb0b131b232b360811b901a6120a98487612586565b612132565b6000805160206135a8833981519152600081815260205260ff6121cc337fee57cd81e84075558e8fcc182a1f4393f91fc97f963a136e66b7f949a62f319f610546565b5416156121d65750565b6121df336125ef565b6121e761254e565b9160306121f384612569565b5360786121ff84612576565b5360415b6001811161222257611a5a604861205e8561205088611ff388156125a4565b90600f8116906010821015610a2157612255916f181899199a1a9b1b9c1cb0b131b232b360811b901a6120a98487612586565b612203565b80600052600060205260ff612273336040600020610546565b54161561227d5750565b612286336125ef565b61228e61254e565b91603061229a84612569565b5360786122a684612576565b5360415b600181116122c957611a5a604861205e8561205088611ff388156125a4565b90600f8116906010821015610a21576122fc916f181899199a1a9b1b9c1cb0b131b232b360811b901a6120a98487612586565b6122aa565b60005b8381106123145750506000910152565b8181015183820152602001612304565b9061233760209282815194859201612301565b0190565b634e487b7160e01b600052604160045260246000fd5b60c081019081106001600160401b0382111761236c57604052565b61233b565b608081019081106001600160401b0382111761236c57604052565b61012081019081106001600160401b0382111761236c57604052565b60e081019081106001600160401b0382111761236c57604052565b604081019081106001600160401b0382111761236c57604052565b601f909101601f19168101906001600160401b0382119082101761236c57604052565b604091602082526124218151809281602086015260208686019101612301565b601f01601f1916010190565b6000908082528160205260ff6124468460408520610546565b541661245157505050565b808252816020526124658360408420610546565b805460ff1916905533926001600160a01b0316917ff6391f5c32d9c69d2a47ea670b442974b53935d1edc7fd64eb21e047a839171b9080a4565b634e487b7160e01b600052601160045260246000fd5b90670de0b6b3a76400009182810292818404149015171561156e57565b8181029291811591840414171561156e57565b9190820180921161156e57565b604051906124ff826123a8565b565b604051906124ff8261238c565b604051906101c082016001600160401b0381118382101761236c57604052565b6040519061014082016001600160401b0381118382101761236c57604052565b6040519061255b82612371565b604282526060366020840137565b805115610a215760200190565b805160011015610a215760210190565b908151811015610a21570160200190565b801561156e576000190190565b156125ab57565b606460405162461bcd60e51b815260206004820152602060248201527f537472696e67733a20686578206c656e67746820696e73756666696369656e746044820152fd5b60405190606082016001600160401b0381118382101761236c57604052602a82526040366020840137603061262383612569565b53607861262f83612576565b536029905b6001821161264a576126479150156125a4565b90565b600f8116906010821015610a215761267c916f181899199a1a9b1b9c1cb0b131b232b360811b901a6120a98486612586565b90612634565b80546001600160a01b0319166001600160a01b03909216919091179055565b6040919493926060820195825260208201520152565b156126be57565b60405162461bcd60e51b815260206004820152601f60248201527f5265656e7472616e637947756172643a207265656e7472616e742063616c6c006044820152606490fd5b5190600582101561036857565b5190811515820361036857565b9080601f83011215610368578151906001600160401b03821161236c578160051b60405193602093612751858401876123de565b85528380860192820101928311610368578301905b828210612774575050505090565b81518152908301908301612766565b6020818303126103685780516001600160401b039182821161036857016101c081840312610368576127b361250e565b9281518452602082015160208501526127ce60408301612703565b6040850152606082015160608501526080820151608085015260a082015160a085015260c082015160c085015260e082015160e085015261010080830151908501526101208083015190850152610140612829818401612710565b90850152610160808301519085015261018080830151908501526101a092838301519081116103685761285c920161271d565b9082015290565b6040513d6000823e3d90fd5b8115612879570490565b634e487b7160e01b600052601260045260246000fd5b90816020910312610368575190565b9061ff00825491151560081b169061ff001916179055565b9060c06005916128cf60018060a01b0382511685612682565b60208101516001850155604081015160028501556060810151600385015561291d6004850161291060808401511515829060ff801983541691151516179055565b60a083015115159061289e565b0151910155565b8054600160401b81101561236c5761294191600182018155610a09565b819291549060031b9160018060a01b03809116831b921b1916179055565b908152602081019190915260400190565b6040516323b872dd60e01b60208201526001600160a01b03928316602482015292909116604483015260648083019390935291815260a08101918183106001600160401b0384111761236c576124ff92604052612a3b565b908160209103126103685761264790612710565b156129e357565b60405162461bcd60e51b815260206004820152602a60248201527f5361666545524332303a204552433230206f7065726174696f6e20646964206e6044820152691bdd081cdd58d8d9595960b21b6064820152608490fd5b6040516001600160a01b039190911691612a54826123c3565b6020928383527f5361666545524332303a206c6f772d6c6576656c2063616c6c206661696c656484840152803b15612acb5760008281928287612aa69796519301915af1612aa0612b10565b90612b4f565b80519081612ab357505050565b826124ff93612ac69383010191016129c8565b6129dc565b60405162461bcd60e51b815260048101859052601d60248201527f416464726573733a2063616c6c20746f206e6f6e2d636f6e74726163740000006044820152606490fd5b3d15612b4a573d906001600160401b03821161236c5760405191612b3e601f8201601f1916602001846123de565b82523d6000602084013e565b606090565b90919015612b5b575090565b815115612b6b5750805190602001fd5b60405162461bcd60e51b8152908190611a5a9060048301612401565b5190600682101561036857565b908161014091031261036857612ba861252e565b9080518252602081015160208301526040810151604083015260608101516060830152612bd760808201612b87565b608083015260a081015160a083015260c081015160c083015260e081015160e08301526101008082015190830152610120809101519082015290565b60061115612c1d57565b634e487b7160e01b600052602160045260246000fd5b604081019291600191602091612c4881612c13565b81520152565b612c5f610b09610b0960055461036d565b60405163023c4c9f60e61b81526004810183905261014092918390829060249082905afa92831561093057600093612d4b575b5050602082015160035403612d3157506080810160018151612cb381612c13565b612cbc81612c13565b03612cf8575060408101514210908115612cea575b50612cd857565b60405163ad6e54d160e01b8152600490fd5b606091500151421138612cd1565b611a5a9051612d0681612c13565b612d0f81612c13565b612d1881612c13565b604051632b20c54160e21b815291829160048301612c33565b60405163376cc6d960e21b81526004810191909152602490fd5b612d62929350803d10611aa157611a9281836123de565b903880612c92565b90610100600791612d84612d7e825161036d565b85612682565b6020810151600185015560408101516002850155606081015160038501556080810151600485015560a0810151600585015561291d60068501612ddf612dcd60c0850151151590565b829060ff801983541691151516179055565b60e083015115159061289e565b9060405191828154918282526020928383019160005283600020936000905b828210612e21575050506124ff925003836123de565b85546001600160a01b031684526001958601958895509381019390910190612e0b565b600019811461156e5760010190565b8051821015610a215760209160051b010190565b9190820391821161156e57565b60405163a9059cbb60e01b60208201526001600160a01b0390921660248301526044808301939093529181526124ff91612ead82612371565b612a3b565b9190612ec06113a5846104fc565b92612ecd6113a58261050c565b90600091825b8651811015612f4957612ef5612ee8846104dc565b6113dc6113cf848b612e53565b600181019086612f068354886124e5565b1115612f1d575b5050612f1890612e44565b612ed3565b94612f4191612f3a6004612f18959801600160ff19825416179055565b54906124e5565b939038612f0d565b50945060009150815b8551831080613132575b1561312a57612f7a612f6d8361051c565b6113dc6113cf868a612e53565b9086612f868287612e67565b9260018101938454801561311b57879392919081106130005750612feb612fe3611f056113cf612ff49796612ffa999686612fcd600660059901600160ff19825416179055565b8854600482015560028101549788910155612e53565b9182546124e5565b905554906124e5565b92612e44565b91612f52565b9250925092600661301a818501600160ff19825416179055565b8260048501556002840193613051611f056113cf8a61304561303d898b546124d2565b88549061286f565b998a6005870155612e53565b61305c8782546124e5565b9055613069848454612e67565b613074878754612e67565b92816130b8575b505081613091575b50505555612ffa8392612e44565b611f1f6130aa6130af92611eff611c3586600754612e67565b61052c565b90553880613083565b611473826130c69254612e67565b6130d481611426845461036d565b8760008051602061356883398151915261311160018060a01b036130f8865461036d565b6040805196875260006020880152911694918291820190565b0390a3388061307b565b5050505092612ffa9150612e44565b505050509050565b50838110612f5c565b90613145826104ec565b906131686004830154600561315f6108f7601754846124d2565b92838093612e67565b940155806132e0575b6006936131826114738587546124e5565b613196613191856009546124e5565b600955565b6131a26113a58261050c565b92600092835b855181101561321c576131d6886131ce6131c18761051c565b6113dc6113cf868c612e53565b015460ff1690565b6131e9575b6131e490612e44565b6131a8565b936132146131e491600161320c6131ff8861051c565b6113dc6113cf8b8d612e53565b0154906124e5565b9490506131db565b50929590949193958061325b575b5050600080516020613608833981519152929394506132476134ce565b6132566040519283928361295f565b0390a2565b929460009491945b87518110156132c15761329a9061328961327c8561051c565b6113dc6113cf848d612e53565b8088015460ff1661329f5750612e44565b613263565b60036132b8886132b360018501548a6124d2565b61286f565b91015538611edd565b509550859490935091506000805160206136088339815191523861322a565b6132ef81611426600e5461036d565b613171565b906133016113a5836104fc565b9161330e6113a58261050c565b60005b84518110156133ec576133599061333761332a856104dc565b6113dc6113cf848a612e53565b6004810161334d613349825460ff1690565b1590565b61335e575b5050612e44565b613311565b805461ff001916610100179055846000805160206135688339815191526133e26133bd61338b855461036d565b94611eff60028201968754907f0000000000000000000000000000000000000000000000000000000000000000612e74565b935460408051918252600160208301526001600160a01b039095169490918291820190565b0390a33880613352565b50925060005b83518110156134c85761343b9061341861340b8461051c565b6113dc6113cf8489612e53565b8360069182810161342d613349825460ff1690565b613440575b50505050612e44565b6133f2565b805461ff001916610100179055600080516020613568833981519152906134bc9060018101549461347a6114738760028501549354612e67565b613489611c3582600754612e67565b613499611f1f6130aa845461036d565b90556134a985611426835461036d565b546001600160a01b03906130f89061036d565b0390a338838180613432565b50509050565b600a546007549081613509575b6000805160206135e8833981519152915042600b55600a546135046040519283924291846126a1565b0390a1565b600654670de0b6b3a76400009081810291818304149015171561156e576000805160206135e88339815191529261353f9161286f565b600a556134db56fe2f8788117e7eff1d82e926ec794901d17c78024a50270940304540a733656f0dc1bc4f974e5061abc560586bc9dfe863303c12c1de5f0929fb9d8fc0b065360a300f9ae985dc711960f7a4d1dd013f9c19ecf40bff149522ab7523b2187a384697667070c54ef182b0f5858b034beac1b6f3089aa2d3188bb1e8929f4fa9b92965d7a28e3265b37a6474929f336521b332c1681b933f6cb9f3376673440d862a4a7e8371416dd0c85cd9eb775560608929438aca1e3b356f39b7868aa76dc807dff07d60ea4ca1288ec4e8b94e2f74ac3671226f2ce03ddd00f3b44c96c96589a2646970667358221220450ca87d61f384f19762fd21dab73bb14f9db6009d745724596f0330e5cce13264736f6c634300081400332f8788117e7eff1d82e926ec794901d17c78024a50270940304540a733656f0d537472696e67733a20686578206c656e67746820696e73756666696369656e74416363657373436f6e74726f6c3a206163636f756e742000000000000000000097667070c54ef182b0f5858b034beac1b6f3089aa2d3188bb1e8929f4fa9b92965d7a28e3265b37a6474929f336521b332c1681b933f6cb9f3376673440d862aa2646970667358221220ad6b1dd7f61a1d0aebd34eb0ca4edce14dd418e511d12f8e08afdfcc42316a6964736f6c634300081400332f8788117e7eff1d82e926ec794901d17c78024a50270940304540a733656f0d",
  "linkReferences": {},
  "deployedLinkReferences": {}
}