{
  "_format": "hh-sol-artifact-1",
  "contractName": "TranchePoolFactory",
  "sourceName": "contracts/TranchePoolFactory.sol",
  "abi": [
    {
      "inputs": [
        {
          "internalType": "address",
          "name": "_registry",
          "type": "address"
        },
        {
          "internalType": "address",
          "name": "_insuranceToken",
          "type": "address"
        },
        {
          "internalType": "address",
          "name": "_admin",
          "type": "address"
        }
      ],
      "stateMutability": "nonpayable",
      "type": "constructor"
    },
    {
      "inputs": [
        {
          "internalType": "uint256",
          "name": "trancheId",
          "type": "uint256"
        }
      ],
      "name": "PoolAlreadyExists",
      "type": "error"
    },
    {
      "inputs": [
        {
          "internalType": "uint256",
          "name": "trancheId",
          "type": "uint256"
        }
      ],
      "name": "PoolNotFound",
      "type": "error"
    },
    {
      "inputs": [],
      "name": "TrancheNotActive",
      "type": "error"
    },
    {
      "inputs": [],
      "name": "TrancheNotFound",
      "type": "error"
    },
    {
      "inputs": [],
      "name": "UnauthorizedPool",
      "type": "error"
    },
    {
      "inputs": [],
      "name": "ZeroAddress",
      "type": "error"
    },
    {
      "anonymous": false,
      "inputs": [
        {
          "indexed": false,
          "internalType": "address",
          "name": "account",
          "type": "address"
        }
      ],
      "name": "Paused",
      "type": "event"
    },
    {
      "anonymous": false,
      "inputs": [
        {
          "indexed": true,
          "internalType": "bytes32",
          "name": "role",
          "type": "bytes32"
        },
        {
          "indexed": true,
          "internalType": "bytes32",
          "name": "previousAdminRole",
          "type": "bytes32"
        },
        {
          "indexed": true,
          "internalType": "bytes32",
          "name": "newAdminRole",
          "type": "bytes32"
        }
      ],
      "name": "RoleAdminChanged",
      "type": "event"
    },
    {
      "anonymous": false,
      "inputs": [
        {
          "indexed": true,
          "internalType": "bytes32",
          "name": "role",
          "type": "bytes32"
        },
        {
          "indexed": true,
          "internalType": "address",
          "name": "account",
          "type": "address"
        },
        {
          "indexed": true,
          "internalType": "address",
          "name": "sender",
          "type": "address"
        }
      ],
      "name": "RoleGranted",
      "type": "event"
    },
    {
      "anonymous": false,
      "inputs": [
        {
          "indexed": true,
          "internalType": "bytes32",
          "name": "role",
          "type": "bytes32"
        },
        {
          "indexed": true,
          "internalType": "address",
          "name": "account",
          "type": "address"
        },
        {
          "indexed": true,
          "internalType": "address",
          "name": "sender",
          "type": "address"
        }
      ],
      "name": "RoleRevoked",
      "type": "event"
    },
    {
      "anonymous": false,
      "inputs": [
        {
          "indexed": true,
          "internalType": "uint256",
          "name": "trancheId",
          "type": "uint256"
        },
        {
          "indexed": true,
          "internalType": "uint256",
          "name": "productId",
          "type": "uint256"
        },
        {
          "indexed": true,
          "internalType": "address",
          "name": "pool",
          "type": "address"
        },
        {
          "indexed": false,
          "internalType": "address",
          "name": "creator",
          "type": "address"
        },
        {
          "indexed": false,
          "internalType": "uint256",
          "name": "timestamp",
          "type": "uint256"
        }
      ],
      "name": "TranchePoolCreated",
      "type": "event"
    },
    {
      "anonymous": false,
      "inputs": [
        {
          "indexed": false,
          "internalType": "address",
          "name": "account",
          "type": "address"
        }
      ],
      "name": "Unpaused",
      "type": "event"
    },
    {
      "inputs": [],
      "name": "ADMIN_ROLE",
      "outputs": [
        {
          "internalType": "bytes32",
          "name": "",
          "type": "bytes32"
        }
      ],
      "stateMutability": "view",
      "type": "function"
    },
    {
      "inputs": [],
      "name": "DEFAULT_ADMIN_ROLE",
      "outputs": [
        {
          "internalType": "bytes32",
          "name": "",
          "type": "bytes32"
        }
      ],
      "stateMutability": "view",
      "type": "function"
    },
    {
      "inputs": [],
      "name": "OPERATOR_ROLE",
      "outputs": [
        {
          "internalType": "bytes32",
          "name": "",
          "type": "bytes32"
        }
      ],
      "stateMutability": "view",
      "type": "function"
    },
    {
      "inputs": [],
      "name": "PAUSER_ROLE",
      "outputs": [
        {
          "internalType": "bytes32",
          "name": "",
          "type": "bytes32"
        }
      ],
      "stateMutability": "view",
      "type": "function"
    },
    {
      "inputs": [
        {
          "internalType": "uint256",
          "name": "",
          "type": "uint256"
        }
      ],
      "name": "allPools",
      "outputs": [
        {
          "internalType": "address",
          "name": "",
          "type": "address"
        }
      ],
      "stateMutability": "view",
      "type": "function"
    },
    {
      "inputs": [
        {
          "internalType": "uint256",
          "name": "trancheId",
          "type": "uint256"
        }
      ],
      "name": "createTranchePool",
      "outputs": [
        {
          "internalType": "address",
          "name": "pool",
          "type": "address"
        }
      ],
      "stateMutability": "nonpayable",
      "type": "function"
    },
    {
      "inputs": [],
      "name": "getPoolCount",
      "outputs": [
        {
          "internalType": "uint256",
          "name": "count",
          "type": "uint256"
        }
      ],
      "stateMutability": "view",
      "type": "function"
    },
    {
      "inputs": [
        {
          "internalType": "uint256",
          "name": "trancheId",
          "type": "uint256"
        }
      ],
      "name": "getPoolInfo",
      "outputs": [
        {
          "internalType": "address",
          "name": "pool",
          "type": "address"
        },
        {
          "components": [
            {
              "internalType": "uint256",
              "name": "trancheId",
              "type": "uint256"
            },
            {
              "internalType": "uint256",
              "name": "productId",
              "type": "uint256"
            },
            {
              "internalType": "address",
              "name": "productCatalog",
              "type": "address"
            },
            {
              "internalType": "bool",
              "name": "active",
              "type": "bool"
            }
          ],
          "internalType": "struct TranchePoolCore.TrancheInfo",
          "name": "trancheInfo",
          "type": "tuple"
        },
        {
          "components": [
            {
              "internalType": "uint256",
              "name": "totalAssets",
              "type": "uint256"
            },
            {
              "internalType": "uint256",
              "name": "totalShares",
              "type": "uint256"
            },
            {
              "internalType": "uint256",
              "name": "lockedAssets",
              "type": "uint256"
            },
            {
              "internalType": "uint256",
              "name": "premiumReserve",
              "type": "uint256"
            },
            {
              "internalType": "uint256",
              "name": "navPerShare",
              "type": "uint256"
            },
            {
              "internalType": "uint256",
              "name": "lastUpdateTime",
              "type": "uint256"
            },
            {
              "internalType": "uint256",
              "name": "yieldDeposited",
              "type": "uint256"
            },
            {
              "internalType": "uint256",
              "name": "yieldEarned",
              "type": "uint256"
            }
          ],
          "internalType": "struct TranchePoolCore.PoolAccounting",
          "name": "poolAccounting",
          "type": "tuple"
        }
      ],
      "stateMutability": "view",
      "type": "function"
    },
    {
      "inputs": [
        {
          "internalType": "bytes32",
          "name": "role",
          "type": "bytes32"
        }
      ],
      "name": "getRoleAdmin",
      "outputs": [
        {
          "internalType": "bytes32",
          "name": "",
          "type": "bytes32"
        }
      ],
      "stateMutability": "view",
      "type": "function"
    },
    {
      "inputs": [
        {
          "internalType": "uint256",
          "name": "trancheId",
          "type": "uint256"
        }
      ],
      "name": "getTranchePool",
      "outputs": [
        {
          "internalType": "address",
          "name": "pool",
          "type": "address"
        }
      ],
      "stateMutability": "view",
      "type": "function"
    },
    {
      "inputs": [
        {
          "internalType": "bytes32",
          "name": "role",
          "type": "bytes32"
        },
        {
          "internalType": "address",
          "name": "account",
          "type": "address"
        }
      ],
      "name": "grantRole",
      "outputs": [],
      "stateMutability": "nonpayable",
      "type": "function"
    },
    {
      "inputs": [
        {
          "internalType": "bytes32",
          "name": "role",
          "type": "bytes32"
        },
        {
          "internalType": "address",
          "name": "account",
          "type": "address"
        }
      ],
      "name": "hasRole",
      "outputs": [
        {
          "internalType": "bool",
          "name": "",
          "type": "bool"
        }
      ],
      "stateMutability": "view",
      "type": "function"
    },
    {
      "inputs": [],
      "name": "insuranceToken",
      "outputs": [
        {
          "internalType": "contract InsuranceToken",
          "name": "",
          "type": "address"
        }
      ],
      "stateMutability": "view",
      "type": "function"
    },
    {
      "inputs": [
        {
          "internalType": "address",
          "name": "",
          "type": "address"
        }
      ],
      "name": "isValidPool",
      "outputs": [
        {
          "internalType": "bool",
          "name": "",
          "type": "bool"
        }
      ],
      "stateMutability": "view",
      "type": "function"
    },
    {
      "inputs": [],
      "name": "pause",
      "outputs": [],
      "stateMutability": "nonpayable",
      "type": "function"
    },
    {
      "inputs": [],
      "name": "paused",
      "outputs": [
        {
          "internalType": "bool",
          "name": "",
          "type": "bool"
        }
      ],
      "stateMutability": "view",
      "type": "function"
    },
    {
      "inputs": [],
      "name": "registry",
      "outputs": [
        {
          "internalType": "contract IDinRegistry",
          "name": "",
          "type": "address"
        }
      ],
      "stateMutability": "view",
      "type": "function"
    },
    {
      "inputs": [
        {
          "internalType": "bytes32",
          "name": "role",
          "type": "bytes32"
        },
        {
          "internalType": "address",
          "name": "account",
          "type": "address"
        }
      ],
      "name": "renounceRole",
      "outputs": [],
      "stateMutability": "nonpayable",
      "type": "function"
    },
    {
      "inputs": [
        {
          "internalType": "bytes32",
          "name": "role",
          "type": "bytes32"
        },
        {
          "internalType": "address",
          "name": "account",
          "type": "address"
        }
      ],
      "name": "revokeRole",
      "outputs": [],
      "stateMutability": "nonpayable",
      "type": "function"
    },
    {
      "inputs": [
        {
          "internalType": "bytes4",
          "name": "interfaceId",
          "type": "bytes4"
        }
      ],
      "name": "supportsInterface",
      "outputs": [
        {
          "internalType": "bool",
          "name": "",
          "type": "bool"
        }
      ],
      "stateMutability": "view",
      "type": "function"
    },
    {
      "inputs": [
        {
          "internalType": "uint256",
          "name": "",
          "type": "uint256"
        }
      ],
      "name": "tranchePools",
      "outputs": [
        {
          "internalType": "address",
          "name": "",
          "type": "address"
        }
      ],
      "stateMutability": "view",
      "type": "function"
    },
    {
      "inputs": [],
      "name": "unpause",
      "outputs": [],
      "stateMutability": "nonpayable",
      "type": "function"
    }
  ],
  "bytecode": "0x60c034620001ca57601f6200593838819003918201601f191683019291906001600160401b03841183851017620001cf578160609284926040968752833981010312620001ca576200005181620001e5565b9060206200006e8462000066838501620001e5565b9301620001e5565b9160ff1990816001541660015560018060a01b0380951680158015620001bf575b8015620001b4575b620001a357608052841660a0526000808052808352858120939094168085529282528484205460ff16156200016d575b7f65d7a28e3265b37a6474929f336521b332c1681b933f6cb9f3376673440d862a91828552848152858520848652815260ff86862054161562000134575b855161571d9081620001fb82396080518181816102c60152610a37015260a0518181816103aa01526110de0152f35b828552848152858520908486525260018585209182541617905560008051602062005918833981519152339380a4388080808062000105565b8380528382528484208385528252848420600182825416179055338385600080516020620059188339815191528180a4620000c7565b865163d92e233d60e01b8152600490fd5b508585161562000097565b50858216156200008f565b600080fd5b634e487b7160e01b600052604160045260246000fd5b51906001600160a01b0382168203620001ca5756fe60806040818152600491823610156200001757600080fd5b60009260e08435811c92836301ffc9a7146200110d575082630715986814620010c6578263248a9ca31462001099578263295e95731462000a665782632f2ff15d1462000fe85782632f380b351462000d8357826336568abe1462000cea5782633f4ba83a1462000b4d57826341d1de971462000b065782635ab78ee11462000ac35782635c975abb1462000a9c57826374c745321462000a6657826375b238fc14620001d35782637b1039991462000a1f5782638456cb5914620008a45782638938a4581462000244575081638eec5d70146200022357816391d1485414620001d9578163a217fddf14620001d3578163d547741f146200018957508063e63ab1e9146200015e5763f5b541a6146200013057600080fd5b346200015a57816003193601126200015a5760209051600080516020620056a88339815191528152f35b5080fd5b50346200015a57816003193601126200015a5760209051600080516020620056c88339815191528152f35b91905034620001cf5780600319360112620001cf57620001cc9135620001c66001620001b462001166565b93838752866020528620015462001200565b6200144d565b80f35b8280fd5b620011e2565b905034620001cf5781600319360112620001cf578160209360ff92620001fe62001166565b903582528186528282206001600160a01b039091168252855220549151911615158152f35b5050346200015a57816003193601126200015a576020906003549051908152f35b90838534620008a157602093846003193601126200015a57833591600080516020620056a8833981519152808252818752848220338352875260ff858320541615620006c957506200029c60ff6001541615620015db565b82815260028652838120546001600160a01b0395908616620006b2578451630b36485d60e41b81527f000000000000000000000000000000000000000000000000000000000000000087169088818481855afa908115620006a857908891859162000664575b50169386519163d972e8ad60e01b835286848401528483602481895afa9283156200065a578593620004d4575b50825115620004c457610140830192835115620004b4578a0195865193511515908951946200035e86620013da565b8986528c86015289850152606084015287519261402980850192906001600160401b03841186851017620004a15791620003a7918694936200163f863983528c83019062001182565b897f00000000000000000000000000000000000000000000000000000000000000001660a08201523360c082015203019083f0801562000497578483526002885285832080546001600160a01b0319169188169182179055600354909690600160401b81101562000484579187959493916200042b8460018a9601600355620011b0565b819291549060031b9189831b921b1916179055858252885220600160ff1982541617905551907f73a190c4a360895f15f41103e279b874c3071ec5a9dfeca2a48eaeeaa7e0d6ad8480513381524289820152a451908152f35b634e487b7160e01b845260418352602484fd5b85513d84823e3d90fd5b634e487b7160e01b885260418752602488fd5b885163d9b8433560e01b81528590fd5b875163b54ae23f60e01b81528490fd5b9092503d8086833e620004e8818362001429565b8101908a81830312620006565780516001600160401b03918282116200065257016101c092838282031262000652578a51938401848110848211176200063b578b52815184528c8201518d8501528a82015160058110156200064e578b850152606082015160608501526080820151608085015260a082015160a085015260c082015160c08501528482015185850152610100808301519085015261012080830151908501526101406200059e81840162001630565b90850152610160808301519085015261018080830151908501526101a091828101519084821162000637570181601f820112156200064e5780519384116200063b578d908460051b918d5195620005f88285018862001429565b8652808601928201019283116200063757908e809201905b838210620006275750505050820152918a6200032f565b8151815290820190820162000610565b8980fd5b634e487b7160e01b895260418852602489fd5b8880fd5b8780fd5b8580fd5b88513d87823e3d90fd5b8092508a8092503d8311620006a0575b62000680818362001429565b810103126200069c576200069588916200161b565b8a62000302565b8380fd5b503d62000674565b87513d86823e3d90fd5b845163131189af60e31b8152908101849052602490fd5b92509050620006d833620014d4565b91835190620006e782620013da565b604282528682019260603685378251156200088e57603084538251906001918210156200087b5790607860218501536041915b8183116200080b57505050620007db5783620007aa60488895620007cd956200079a9560449a9951968793620007708b86019b600080516020620056888339815191528d528251928391603789019101620013b5565b8401917001034b99036b4b9b9b4b733903937b6329607d1b603784015251809386840190620013b5565b0103602881018552018362001429565b5195869462461bcd60e51b865285015251809281602486015285850190620013b5565b601f01601f19168101030190fd5b606485878087519262461bcd60e51b84528301526024820152600080516020620056688339815191526044820152fd5b909192600f8116601081101562000868576f181899199a1a9b1b9c1cb0b131b232b360811b901a6200083e8587620014c2565b53881c92801562000855576000190191906200071a565b634e487b7160e01b825260118952602482fd5b634e487b7160e01b835260328a52602483fd5b634e487b7160e01b815260328852602490fd5b634e487b7160e01b815260328752602490fd5b80fd5b84828534620001cf5782600319360112620001cf57600080516020620056c883398151915291828452602092848452828520338652845260ff8386205416156200092f57847f62e78cea01bee320cd4e420270b5ea74000d11b0c9f74754ebdbfc544b05a2588585600180546200091f60ff821615620015db565b60ff19161760015551338152a180f35b9092936200093d33620014d4565b918351906200094c82620013da565b604282528682019260603685378251156200088e57603084538251906001918210156200087b5790607860218501536041915b818311620009d557505050620007db5783620007aa60488895620007cd956200079a9560449a9951968793620007708b86019b600080516020620056888339815191528d528251928391603789019101620013b5565b909192600f8116601081101562000868576f181899199a1a9b1b9c1cb0b131b232b360811b901a62000a088587620014c2565b53881c92801562000855576000190191906200097f565b505050346200015a57816003193601126200015a57517f00000000000000000000000000000000000000000000000000000000000000006001600160a01b03168152602090f35b50905034620001cf576020366003190112620001cf5735825260026020908152918190205490516001600160a01b039091168152f35b505050346200015a57816003193601126200015a5760209060ff6001541690519015158152f35b50905034620001cf576020366003190112620001cf5780356001600160a01b038116908190036200069c578360ff92849260209652855220541690519015158152f35b50905034620001cf576020366003190112620001cf573591600354831015620008a1575062000b37602092620011b0565b60018060a01b0391549060031b1c169051908152f35b508383346200015a57816003193601126200015a57818052602090828252808320338452825260ff81842054161562000bf9576001549360ff85161562000bc157507f5db9ee0a495bf2e6ff9c91a7834c1ba4fdd244a5e8aa4e537bd38aeae4b073aa929360ff191660015551338152a180f35b82606492519162461bcd60e51b8352820152601460248201527314185d5cd8589b194e881b9bdd081c185d5cd95960621b6044820152fd5b90929162000c0733620014d4565b908083519062000c1782620013da565b604282528682019260603685378251156200088e57603084538251906001918210156200087b5790607860218501536041915b81831162000ca057505050620007db5783620007aa60488895620007cd956200079a9560449a9951968793620007708b86019b600080516020620056888339815191528d528251928391603789019101620013b5565b909192600f8116601081101562000868576f181899199a1a9b1b9c1cb0b131b232b360811b901a62000cd38587620014c2565b53881c928015620008555760001901919062000c4a565b838583346200015a57826003193601126200015a5762000d0962001166565b90336001600160a01b0383160362000d285790620001cc91356200144d565b608490602085519162461bcd60e51b8352820152602f60248201527f416363657373436f6e74726f6c3a2063616e206f6e6c792072656e6f756e636560448201526e103937b632b9903337b91039b2b63360891b6064820152fd5b9150919234620008a1576020806003193601126200015a57845162000da881620013da565b8281528282820152828682015260609083828201529580519262000dcc846200140c565b84845284818501528482850152848385015260809385858201528560a08201528560c0820152858782015294873581526002825260018060a01b038382205416978862000e75575b505062000e2d6101a09883519889528289019062001182565b845160a088015284015160c08701528301518486015282015161010085015281015161012084015260a081015161014084015260c08101516101608401520151610180820152f35b83516373eba95360e01b81529199509550848187818b5afa90811562000fde57899162000f71575b50948251988991630e14997760e31b83526101009a8b91818c5afa998a1562000f6557819a62000edb575b50505062000e2d6101a098959862000e14565b9091809a50813d831162000f5d575b62000ef6818362001429565b81010312620008a1575062000e2d6101a0988784519162000f17836200140c565b80518352848101518584015285810151868401528681015187840152878101518884015260a081015160a084015260c081015160c0840152015188820152983862000ec8565b503d62000eea565b508351903d90823e3d90fd5b90508481813d831162000fd6575b62000f8b818362001429565b810103126200064e5762000fcb8484519262000fa784620013da565b80518452848101518585015262000fc08682016200161b565b868501520162001630565b848201523862000e9d565b503d62000f7f565b83513d8b823e3d90fd5b50905034620001cf5781600319360112620001cf5735906200100962001166565b9082845283602052620010226001828620015462001200565b82845260208481528185206001600160a01b039093168086529290528084205460ff16156200104f578380f35b828452836020528084208285526020528320600160ff1982541617905533917f2f8788117e7eff1d82e926ec794901d17c78024a50270940304540a733656f0d8480a43880808380f35b50905034620001cf576020366003190112620001cf57816020936001923581528085522001549051908152f35b505050346200015a57816003193601126200015a57517f00000000000000000000000000000000000000000000000000000000000000006001600160a01b03168152602090f35b85908334620001cf576020366003190112620001cf573563ffffffff60e01b8116809103620001cf5760209250637965db0b60e01b811490811562001154575b5015158152f35b6301ffc9a760e01b149050836200114d565b602435906001600160a01b03821682036200117d57565b600080fd5b80518252602080820151908301526040808201516001600160a01b0316908301526060908101511515910152565b600354811015620011cc57600360005260206000200190600090565b634e487b7160e01b600052603260045260246000fd5b346200117d5760003660031901126200117d57602060405160008152f35b60008181526020818152604092838320338452825260ff848420541615620012285750505050565b6200123333620014d4565b908451906200124282620013da565b60428252838201946060368737825115620013a15760308653825190600191821015620013a15790607860218501536041915b8183116200132e57505050620012fd5784620012d86048620007cd936044979851988991620012c889840198600080516020620056888339815191528a5262000770815180928d603789019101620013b5565b0103602881018952018762001429565b5194859362461bcd60e51b8552600485015251809281602486015285850190620013b5565b60648386519062461bcd60e51b82528060048301526024820152600080516020620056688339815191526044820152fd5b909192600f811660108110156200138d576f181899199a1a9b1b9c1cb0b131b232b360811b901a620013618587620014c2565b5360041c928015620013795760001901919062001275565b634e487b7160e01b82526011600452602482fd5b634e487b7160e01b83526032600452602483fd5b634e487b7160e01b81526032600452602490fd5b60005b838110620013c95750506000910152565b8181015183820152602001620013b8565b608081019081106001600160401b03821117620013f657604052565b634e487b7160e01b600052604160045260246000fd5b61010081019081106001600160401b03821117620013f657604052565b601f909101601f19168101906001600160401b03821190821017620013f657604052565b9060009180835282602052604083209160018060a01b03169182845260205260ff6040842054166200147e57505050565b80835282602052604083208284526020526040832060ff1981541690557ff6391f5c32d9c69d2a47ea670b442974b53935d1edc7fd64eb21e047a839171b339380a4565b908151811015620011cc570160200190565b60405190606082016001600160401b03811183821017620013f657604052602a8252602082016040368237825115620011cc57603090538151600190811015620011cc57607860218401536029905b80821162001568575050620015355790565b606460405162461bcd60e51b81526020600482015260206024820152600080516020620056688339815191526044820152fd5b9091600f81166010811015620015c6576f181899199a1a9b1b9c1cb0b131b232b360811b901a6200159a8486620014c2565b5360041c918015620015b157600019019062001523565b60246000634e487b7160e01b81526011600452fd5b60246000634e487b7160e01b81526032600452fd5b15620015e357565b60405162461bcd60e51b815260206004820152601060248201526f14185d5cd8589b194e881c185d5cd95960821b6044820152606490fd5b51906001600160a01b03821682036200117d57565b519081151582036200117d5756fe60c0604081815234620003dd5781620040298038038091620000228285620004ff565b83398101039160e08312620003dd576200003c8162000523565b60808094601f190112620003dd578251906001600160401b039085830182811184821017620004e95785526020938481015184528581015192858501938452620000896060830162000523565b90878601918252888301518015158103620003dd5760608701908152620000c160c0620000b960a0870162000523565b950162000523565b9660ff1996876001541660015560016002556103e8601a5560018060a01b038097169182158015620004de575b8015620004d3575b620004c2579082918b938e52516003555192876004968795865551166005549160ff60a01b9051151560a01b169160018060a81b03191617176005558660018060a01b0319961686600e541617600e558a519283809263873673cd60e01b82525afa908115620004245790859160009162000483575b501660a0528187858b51168a519283809263d0ab474160e01b82525afa908115620004245790859160009162000444575b501683601054161760105587516101008101818110838211176200042f5789526000815260008882015260008982015260006060820152600060e0670de0b6b3a764000092838d8201524260a08201528260c082015201526000600655600060075560006008556000600955600a5542600b556000600c556000600d558187858b51168a5192838092635816b1fb60e11b82525afa9081156200042457908591600091620003e2575b5016928362000379575b5050505060008052600084528460002092169182600052835260ff846000205416156200033d575b7f65d7a28e3265b37a6474929f336521b332c1681b933f6cb9f3376673440d862a9283600052600081528460002083600052815260ff85600020541615620002fe575b858551613ad091826200053983395181611136015260a051818181610cc90152818161158f015281816116e701528181611eca015281816131ee015261380c0152f35b83600052600081528460002090836000525260018460002091825416179055339160008051602062004009833981519152600080a438808080620002bb565b6000805260008352836000208260005283528360002060018282541617905533826000600080516020620040098339815191528180a462000278565b83906011541617601155823b15620003dd576000809360248a51809681936355ec842360e11b835230888401525af1620003b5575b8062000250565b8211620003c857508552388080620003ae565b604190634e487b7160e01b6000525260246000fd5b600080fd5b91508882813d83116200041c575b620003fc8183620004ff565b8101031262000419575062000412859162000523565b3862000246565b80fd5b503d620003f0565b89513d6000823e3d90fd5b604184634e487b7160e01b6000525260246000fd5b91508882813d83116200047b575b6200045e8183620004ff565b8101031262000419575062000474859162000523565b386200019d565b503d62000452565b91508882813d8311620004ba575b6200049d8183620004ff565b81010312620004195750620004b3859162000523565b386200016c565b503d62000491565b8b5163d92e233d60e01b8152600490fd5b50878a1615620000f6565b5087871615620000ee565b634e487b7160e01b600052604160045260246000fd5b601f909101601f19168101906001600160401b03821190821017620004e957604052565b51906001600160a01b0382168203620003dd5756fe6080604052600436101561001257600080fd5b60003560e01c806301ffc9a7146103725780630552d0391461036d578063071598681461036857806308ccadd814610363578063248a9ca31461035e5780632f2ff15d146103595780632f9c9f8914610354578063318949f61461034f57806331e6f1801461034a57806335659fb814610345578063364bc15a1461034057806336568abe1461033b57806337305df5146103365780633f4ba83a14610331578063433b35961461032c57806348f54f03146103275780634ca90406146103225780635c975abb1461031d5780635ea67d741461031857806360dc2340146103135780636baf2ca61461030e57806370a4cbb814610309578063722d5b1b1461030457806373eba953146102ff57806375b238fc146102d25780637b103999146102fa5780637e7dad96146102f55780638456cb59146102f05780638a0dca8d146102eb5780638e8edd98146102e657806391d14854146102e157806392abce91146102dc57806392acb0da146102d7578063a217fddf146102d2578063a98ad46c146102cd578063ba9cf01d146102c8578063bb69bc71146102c3578063bfa37e37146102be578063c7e2ca5a146102b9578063c99c412c146102b4578063d547741f146102af578063dbcfcab9146102aa578063e14b0e1b146102a5578063e336ac44146102a0578063e3e664cd1461029b578063e4e7741e14610296578063e63ab1e914610291578063e6d0919d1461028c578063e9ac044014610287578063ece1373214610282578063f5b541a61461027d578063f656ba5114610278578063f67ed3f7146102735763f8e174681461026e57600080fd5b61215c565b61208f565b612055565b61202c565b611e26565b611df5565b611dcc565b611da3565b611b95565b611b5e565b611b24565b611a03565b611942565b611903565b6118a0565b611830565b6117a4565b61173f565b611716565b6116d1565b611104565b6114cf565b61149c565b61145c565b611423565b6112c0565b61122d565b611165565b611120565b61105e565b610fc5565b610ed7565b610ba2565b610b79565b610b27565b610ad1565b610a36565b610996565b61093c565b6108a8565b610843565b610772565b610737565b610719565b6106da565b610622565b61055c565b6104c2565b610467565b61043e565b610415565b6103cd565b346103c85760203660031901126103c85760043563ffffffff60e01b81168091036103c857602090637965db0b60e01b81149081156103b7575b506040519015158152f35b6301ffc9a760e01b149050386103ac565b600080fd5b346103c85760003660031901126103c857600654600854810390811161040457600c54810390811161040457602090604051908152f35b612758565b6001600160a01b031690565b346103c85760003660031901126103c857600e546040516001600160a01b039091168152602090f35b346103c85760003660031901126103c8576011546040516001600160a01b039091168152602090f35b346103c85760203660031901126103c85760043560005260006020526020600160406000200154604051908152f35b602435906001600160a01b03821682036103c857565b600435906001600160a01b03821682036103c857565b346103c85760403660031901126103c8576004356104de610496565b600091808352826020526104f86001604085200154612512565b8083528260205260ff61050e836040862061060b565b541615610519578280f35b8083528260205261052d826040852061060b565b805460ff1916600117905533916001600160a01b0316906000805160206139bb8339815191528480a438808280f35b346103c85760003660031901126103c857608060035460ff60045460055490604051938452602084015260018060a01b038116604084015260a01c1615156060820152f35b6000526013602052604060002090565b6000526012602052604060002090565b6000526015602052604060002090565b6000526016602052604060002090565b6000526014602052604060002090565b6001600160a01b0316600090815260186020526040902090565b9060018060a01b0316600052602052604060002090565b346103c85760403660031901126103c85761065361063e610496565b6004356000526014602052604060002061060b565b8054600182015460028301546003840154600485015460058601546006870154600790970154604080516001600160a01b0390981688526020880196909652948601939093526060850191909152608084015260a083015260ff808416151560c084015260089390931c909216151560e082015261010081019190915261012090f35b0390f35b346103c85760203660031901126103c8576106f960028054141561297d565b60028055602061070a600435613178565b60016002556040519015158152f35b346103c85760003660031901126103c8576020601a54604051908152f35b346103c85760003660031901126103c85760206040517ffc8737ab85eb45125971625a9ebdb75cc78e01d5c1fa80c4c6e5203f47bc4fab8152f35b346103c85760403660031901126103c85761078b610496565b336001600160a01b038216036107a9576107a7906004356126e6565b005b60405162461bcd60e51b815260206004820152602f60248201527f416363657373436f6e74726f6c3a2063616e206f6e6c792072656e6f756e636560448201526e103937b632b9903337b91039b2b63360891b6064820152608490fd5b90815180825260208080930193019160005b828110610826575050505090565b83516001600160a01b031685529381019392810192600101610818565b346103c85760203660031901126103c857600435600052601560205261089a604060002060166020526106d66108866108806040600020936130b2565b926130b2565b604051938493604085526040850190610806565b908382036020850152610806565b346103c85760003660031901126103c8576108c161221f565b60015460ff8116156109005760ff19166001557f5db9ee0a495bf2e6ff9c91a7834c1ba4fdd244a5e8aa4e537bd38aeae4b073aa6020604051338152a1005b60405162461bcd60e51b815260206004820152601460248201527314185d5cd8589b194e881b9bdd081c185d5cd95960621b6044820152606490fd5b346103c85760003660031901126103c857610100600654600754600854600954600a54600b5491600c5493600d5495604051978852602088015260408701526060860152608085015260a084015260c083015260e0820152f35b346103c85760203660031901126103c85760018060a01b0360055416600060035460246040518094819363d972e8ad60e01b835260048301525afa908115610a31576109f860a06106d693610a0093600091610a10575b50015160043561278b565b612710900490565b6040519081529081906020820190565b610a2b913d8091833e610a238183612697565b810190612a49565b386109ed565b612b29565b346103c85760403660031901126103c857610a67610a52610496565b6004356000526013602052604060002061060b565b80546001820154600283015460038401546004850154600590950154604080516001600160a01b039096168652602086019490945292840191909152606083015260ff8084161515608084015260089390931c909216151560a082015260c081019190915260e090f35b346103c85760003660031901126103c857602060ff600154166040519015158152f35b634e487b7160e01b600052603260045260246000fd5b8054821015610b225760005260206000200190600090565b610af4565b346103c85760403660031901126103c8576024356004356000526015602052604060002080548210156103c857602091610b6091610b0a565b905460405160039290921b1c6001600160a01b03168152f35b346103c85760003660031901126103c8576010546040516001600160a01b039091168152602090f35b346103c8576040806003193601126103c8576004803560243591600093828552601760205260ff8186205416610eca57610be060028054141561297d565b60028055610bed83612f14565b8315610ebd5790610c329185610c0f610c0a610c0a600554610409565b610409565b600354835163d972e8ad60e01b8152858101918252958692918391829160200190565b03915afa928315610a31578693610ea1575b5060c083015185108015610e94575b610e8757610c60846105a1565b6001600160a01b0390610c8590610c7890339061060b565b546001600160a01b031690565b16610e7a57610c93846105b1565b92610c9f86855461279e565b61010082015110610e6c5790610cc06109f860a0610d3d959401518861278b565b91610ced8330337f0000000000000000000000000000000000000000000000000000000000000000612c36565b602087610cfe610c0a600e54610409565b60035485516302338fc160e61b8152338682019081526020810192909252604082018b905260608201939093529196879283918d918391608090910190565b03925af1908115610a31577f342ce500eabe14b25c2daa9e521b204f96f27a460508c15d096f217eba7c039c95610e2c958a93610e3c575b50610dbe610d816127ab565b3381528a602082015286868201528460608201528b60808201528b60a08201524260c0820152610db933610db48c6105a1565b61060b565b612b7c565b610dd033610dcb8a6105c1565b612bea565b610ddb89825461279e565b815501610de984825461279e565b9055857ff4084a3d968a7667b6181f8223d2414192ff6612c9a93e7ca09767e737e4e773835180610e1d3395888d84612967565b0390a351918291339683612c25565b0390a3610e396001600255565b80f35b610e5e91935060203d8111610e65575b610e568183612697565b810190612b55565b9138610d75565b503d610e4c565b505163030b90ad60e41b8152fd5b5163966753c560e01b8152fd5b5163494fbb9760e01b8152fd5b5060e08301518511610c53565b610eb69193503d8088833e610a238183612697565b9138610c44565b5163162908e360e11b8152fd5b51631a298ba360e31b8152fd5b346103c857600080600319360112610fc25760e0604051610ef781612609565b8281528260208201528260408201528260608201528260808201528260a08201528260c082015201526106d6610f2b6127ba565b6006548152600754602082015260085460408201526009546060820152600a546080820152600b5460a0820152600c5460c0820152600d5460e08201526040519182918291909160e080610100830194805184526020810151602085015260408101516040850152606081015160608501526080810151608085015260a081015160a085015260c081015160c08501520151910152565b80fd5b346103c85760203660031901126103c857600435610fe161221f565b611388811161102a577f8ac7f037f6ddce060852a933008b8418b004774068808986f1428190b6597905611025601a5483601a556040519182913395429184612967565b0390a2005b60405162461bcd60e51b815260206004820152600c60248201526b08ccaca40e8dede40d0d2ced60a31b6044820152606490fd5b346103c857600080600319360112610fc257606060405161107e8161262a565b82815282602082015282604082015201526106d660405161109e8161262a565b6003548152600454602082015260ff60055460018060a01b038116604084015260a01c1615156060820152604051918291829190916060806080830194805184526020810151602085015260018060a01b03604082015116604085015201511515910152565b346103c85760003660031901126103c857602060405160008152f35b346103c85760003660031901126103c8576040517f00000000000000000000000000000000000000000000000000000000000000006001600160a01b03168152602090f35b346103c85760203660031901126103c85760043561118161221f565b80600052601760205260ff604060002054166111f1576111bb6111ae826000526017602052604060002090565b805460ff19166001179055565b6040514281523391907f1a23d0ab20051b573d87954b1c80f375543995bb999bd93ade02de7849f52e1e9080602081015b0390a3005b60405162461bcd60e51b81526020600482015260146024820152732937bab7321030b63932b0b23c90333937bd32b760611b6044820152606490fd5b346103c85760003660031901126103c857611246612370565b60015460ff81166112885760019060ff1916176001557f62e78cea01bee320cd4e420270b5ea74000d11b0c9f74754ebdbfc544b05a2586020604051338152a1005b60405162461bcd60e51b815260206004820152601060248201526f14185d5cd8589b194e881c185d5cd95960821b6044820152606490fd5b346103c8576040806003193601126103c8576106d6906112de610496565b906113358151926112ee84612645565b82600080865280602087015280828701528060608701528060808701528060a08701528060c08701528060e08701528061010080970152600435815260146020522061060b565b9160076113406127c7565b9361135b61134e8254610409565b6001600160a01b03168652565b600181015460208601526002810154848601526003810154606086015260048101546080860152600581015460a0860152600681015460ff818116151560c08801526113ae9160081c16151560e0870152565b015490830152519182918281516001600160a01b031681526020808301519082015260408083015190820152606080830151908201526080808301519082015260a0808301519082015260c08083015115159082015260e0808301511515908201526101208101929161010080910151910152565b346103c85760403660031901126103c8576024356004356000526016602052604060002080548210156103c857602091610b6091610b0a565b346103c85760403660031901126103c857602060ff61149061147c610496565b60043560005260008452604060002061060b565b54166040519015158152f35b346103c85760403660031901126103c8576114bb60028054141561297d565b60028055602061070a602435600435613283565b346103c85760203660031901126103c857600f5460048035916001600160a01b031633036116c25760009061150b611506846105c1565b6130b2565b91611518611506856105d1565b92815b81518110156115b957611550611530876105a1565b61154a61153d8486613119565b516001600160a01b031690565b9061060b565b8085015460ff1661156b575b506115669061310a565b61151b565b92906115b36115669261158d6115866001880154809361279e565b9654610409565b7f000000000000000000000000000000000000000000000000000000000000000061313a565b9061155c565b85838660005b8151811015611682576115fe906115e56115d8866105e1565b61154a61153d8487613119565b600681015460ff1680611675575b611603575b5061310a565b6115bf565b61166d61166561164b6005840154936116266116218660075461312d565b600755565b6116386116338254610409565b6105f1565b61164386825461312d565b905554610409565b6001600160a01b0316600090815260196020526040902090565b91825461312d565b9055856115f8565b50600581015415156115f3565b6106d6836116ba6116b560036116ab896116a66116a18760065461312d565b600655565b6105b1565b015460085461312d565b600855565b610a00613941565b604051631a0d995360e31b8152fd5b346103c85760003660031901126103c8576040517f00000000000000000000000000000000000000000000000000000000000000006001600160a01b03168152602090f35b346103c85760003660031901126103c85760206040516000805160206139fb8339815191528152f35b346103c85760203660031901126103c8576001600160a01b036117606104ac565b1660005260186020526040600020546019602052604060002054810390811161040457670de0b6b3a764000061179b602092600a549061278b565b04604051908152f35b346103c85760203660031901126103c8576117bd6104ac565b6117c561221f565b6001600160a01b03908116801561181e57601080546001600160a01b0319811683179091556040514281523393909116907f184d7623e4c971fd6334015a038ade580ffbb82efd3e1d56a98853426b5498e790602090a4005b60405163d92e233d60e01b8152600490fd5b346103c85760203660031901126103c8576118496104ac565b61185161221f565b6001600160a01b03908116801561181e57601180546001600160a01b0319811683179091553392167fa499f502babe3efdaba6b6ff842bfe6a4e0fbf4d7303567d1914a8dcfa333afc600080a4005b346103c85760203660031901126103c857600435600052601260205260c0604060002080549060018101549060028101546003820154906005600484015493015493604051958652602086015260408501526060840152608083015260a0820152f35b346103c85760403660031901126103c8576107a7600435611922610496565b9080600052600060205261193d600160406000200154612512565b6126e6565b346103c85760203660031901126103c85760043561195e61221f565b80600052601760205260ff60406000205416156119cb5761199661198c826000526017602052604060002090565b805460ff19169055565b6040514281523391907fb3da8fef34a2999fa6fbf58e412dbf87d4d79dd2409a11afaa6c8f6be8451bd89080602081016111ec565b60405162461bcd60e51b815260206004820152601060248201526f2937bab732103737ba10333937bd32b760811b6044820152606490fd5b346103c8576040806003193601126103c8576106d690611a69611a24610496565b8260c08151611a3281612661565b600091818380935282602082015282858201528260608201528260808201528260a08201520152600435815260136020522061060b565b906005815192611a7884612661565b80546001600160a01b031684526001810154602085015260028101548385015260038101546060850152600481015460ff81811615156080870152611ac49160081c16151560a0860152565b015460c0830152519182918291909160c08060e083019460018060a01b03815116845260208101516020850152604081015160408501526060810151606085015260808101511515608085015260a0810151151560a08501520151910152565b346103c85760203660031901126103c8576001600160a01b03611b456104ac565b1660005260196020526020604060002054604051908152f35b346103c85760003660031901126103c8576060600c54600d5460018060a01b03601154169060405192835260208301526040820152f35b346103c85760203660031901126103c8576004803590611bb3612441565b81600052601760205260409060ff826000205416611d9557611bdc610c0a610c0a600554610409565b825163023c4c9f60e61b81528281018581526101409283918391908290819060200103915afa918215610a3157600092611d68575b5050602081015160035403611d4b576080810160018151611c3181612ed9565b611c3a81612ed9565b03611d10575060600151421115611d02576106d660038385611c5b816105b1565b8054600182015480821015611cf857509384915b8260028201550155611c866116b58460085461279e565b611c90838261332a565b611c99816135ae565b611ca281613767565b7fe7b2acd6ab8820812c03741c2af5d3f82d5284b52d8129f7105622b9cf5548ce611ccc826105c1565b54611cd6836105d1565b5490611ce785519283928884612967565b0390a2519081529081906020820190565b9050938491611c6f565b905163ad6e54d160e01b8152fd5b611d4791505192611d2084612ed9565b611d2984612ed9565b611d3284612ed9565b51632b20c54160e21b81529283928301612ef9565b0390fd5b50905163376cc6d960e21b81529081019182529081906020010390fd5b611d879250803d10611d8e575b611d7f8183612697565b810190612e5a565b3880611c11565b503d611d75565b9051631a298ba360e31b8152fd5b346103c85760003660031901126103c8576020604051600080516020613a3b8339815191528152f35b346103c85760003660031901126103c857600f546040516001600160a01b039091168152602090f35b346103c85760203660031901126103c8576004356000526017602052602060ff604060002054166040519015158152f35b346103c8576040806003193601126103c85760043560243590600092818452601760205260ff818520541661201c57611e6360028054141561297d565b60028055611e7082612f14565b821561200c57611e7f826105e1565b6001600160a01b0390611e9790610c7890339061060b565b16611ffc577ff4d587c98d234ca4d147061e6b5167e7f41ee17f11562a9f0b49570abece859e91611fef91611eee8530337f0000000000000000000000000000000000000000000000000000000000000000612c36565b611f03611efa8661276e565b600a5490612b35565b91611f136116a18760065461279e565b611f226116218460075461279e565b611f2b336105f1565b611f3684825461279e565b9055611f88611f436127c7565b33815287602082015284848201528860608201528860808201528860a08201528860c08201528860e082015242610100820152611f8333610db4856105e1565b613030565b611f9533610dcb836105d1565b6001611fa0826105b1565b01611fac87825461279e565b90558151907fe299d2dad8172ba28758a6e6da18728d73d3142444c7eaa4f5af62c8d9748147339280611fe0878b83612c25565b0390a351918291339583612c25565b0390a2610e396001600255565b5163966753c560e01b8152600490fd5b5163162908e360e11b8152600490fd5b51631a298ba360e31b8152600490fd5b346103c85760003660031901126103c8576020604051600080516020613a1b8339815191528152f35b346103c85760203660031901126103c8576001600160a01b036120766104ac565b1660005260186020526020604060002054604051908152f35b346103c85760203660031901126103c8576120a86104ac565b6120b061221f565b600f80546001600160a01b0319166001600160a01b0383169081179091556000805160206139fb833981519152600081815260208190529290919060ff612117827fdd53df7e4642f4e3d9dededdac02355f2e876e2a9b7ef4e260af8d6fd7b3325761060b565b541615612122578380f35b61213690838552846020526040852061060b565b805460ff1916600117905533916000805160206139bb8339815191528480a43880808380f35b346103c85760203660031901126103c857600f54600435906001600160a01b0316330361220d5761218f611506826105d1565b60005b81518110156121fc576121bd906121ab6115d8856105e1565b600681015460ff166121c2575061310a565b612192565b600581015480156121e75761166561164b6121df92935b54610409565b9055386115f8565b506121df61166561164b6002840154936121d9565b6107a76116b560036116ab866105b1565b604051631a0d995360e31b8152600490fd5b600080805260205260ff612253337fad3228b676f7d3cd4284a5443f17f1962b36e491b30a40b2405849e597ba5fb561060b565b54161561225c57565b612265336128b5565b600090612270612814565b91603061227c8461282f565b5360786122888461283c565b5360415b6001811161232e57611d47604861231685612308886122ab881561286a565b60405194859376020b1b1b2b9b9a1b7b73a3937b61d1030b1b1b7bab73a1604d1b60208601526122e58151809260206037890191016125b9565b84017001034b99036b4b9b9b4b733903937b6329607d1b603782015201906125dc565b03601f198101835282612697565b60405162461bcd60e51b8152918291600483016126ba565b90600f8116906010821015610b225761236b916f181899199a1a9b1b9c1cb0b131b232b360811b901a612361848761284c565b5360041c9161285d565b61228c565b600080516020613a3b833981519152600081815260205260ff6123b3337ff7c9542c591017a21c74b6f3fab6263c7952fc0aaf9db4c22a2a04ddc7f8674f61060b565b5416156123bd5750565b6123c6336128b5565b6123ce612814565b9160306123da8461282f565b5360786123e68461283c565b5360415b6001811161240957611d47604861231685612308886122ab881561286a565b90600f8116906010821015610b225761243c916f181899199a1a9b1b9c1cb0b131b232b360811b901a612361848761284c565b6123ea565b600080516020613a1b833981519152600081815260205260ff612484337fee57cd81e84075558e8fcc182a1f4393f91fc97f963a136e66b7f949a62f319f61060b565b54161561248e5750565b612497336128b5565b61249f612814565b9160306124ab8461282f565b5360786124b78461283c565b5360415b600181116124da57611d47604861231685612308886122ab881561286a565b90600f8116906010821015610b225761250d916f181899199a1a9b1b9c1cb0b131b232b360811b901a612361848761284c565b6124bb565b80600052600060205260ff61252b33604060002061060b565b5416156125355750565b61253e336128b5565b612546612814565b9160306125528461282f565b53607861255e8461283c565b5360415b6001811161258157611d47604861231685612308886122ab881561286a565b90600f8116906010821015610b22576125b4916f181899199a1a9b1b9c1cb0b131b232b360811b901a612361848761284c565b612562565b60005b8381106125cc5750506000910152565b81810151838201526020016125bc565b906125ef602092828151948592016125b9565b0190565b634e487b7160e01b600052604160045260246000fd5b61010081019081106001600160401b0382111761262557604052565b6125f3565b608081019081106001600160401b0382111761262557604052565b61012081019081106001600160401b0382111761262557604052565b60e081019081106001600160401b0382111761262557604052565b604081019081106001600160401b0382111761262557604052565b601f909101601f19168101906001600160401b0382119082101761262557604052565b604091602082526126da81518092816020860152602086860191016125b9565b601f01601f1916010190565b6000908082528160205260ff6126ff846040852061060b565b541661270a57505050565b8082528160205261271e836040842061060b565b805460ff1916905533926001600160a01b0316917ff6391f5c32d9c69d2a47ea670b442974b53935d1edc7fd64eb21e047a839171b9080a4565b634e487b7160e01b600052601160045260246000fd5b90670de0b6b3a76400009182810292818404149015171561040457565b8181029291811591840414171561040457565b9190820180921161040457565b604051906127b882612661565b565b604051906127b882612609565b604051906127b882612645565b604051906101c082016001600160401b0381118382101761262557604052565b6040519061014082016001600160401b0381118382101761262557604052565b604051906128218261262a565b604282526060366020840137565b805115610b225760200190565b805160011015610b225760210190565b908151811015610b22570160200190565b8015610404576000190190565b1561287157565b606460405162461bcd60e51b815260206004820152602060248201527f537472696e67733a20686578206c656e67746820696e73756666696369656e746044820152fd5b60405190606082016001600160401b0381118382101761262557604052602a8252604036602084013760306128e98361282f565b5360786128f58361283c565b536029905b600182116129105761290d91501561286a565b90565b600f8116906010821015610b2257612942916f181899199a1a9b1b9c1cb0b131b232b360811b901a612361848661284c565b906128fa565b80546001600160a01b0319166001600160a01b03909216919091179055565b6040919493926060820195825260208201520152565b1561298457565b60405162461bcd60e51b815260206004820152601f60248201527f5265656e7472616e637947756172643a207265656e7472616e742063616c6c006044820152606490fd5b519060058210156103c857565b519081151582036103c857565b9080601f830112156103c8578151906001600160401b038211612625578160051b60405193602093612a1785840187612697565b855283808601928201019283116103c8578301905b828210612a3a575050505090565b81518152908301908301612a2c565b6020818303126103c85780516001600160401b03918282116103c857016101c0818403126103c857612a796127d4565b928151845260208201516020850152612a94604083016129c9565b6040850152606082015160608501526080820151608085015260a082015160a085015260c082015160c085015260e082015160e085015261010080830151908501526101208083015190850152610140612aef8184016129d6565b90850152610160808301519085015261018080830151908501526101a092838301519081116103c857612b2292016129e3565b9082015290565b6040513d6000823e3d90fd5b8115612b3f570490565b634e487b7160e01b600052601260045260246000fd5b908160209103126103c8575190565b9061ff00825491151560081b169061ff001916179055565b9060c0600591612b9560018060a01b0382511685612948565b602081015160018501556040810151600285015560608101516003850155612be360048501612bd660808401511515829060ff801983541691151516179055565b60a0830151151590612b64565b0151910155565b8054600160401b81101561262557612c0791600182018155610b0a565b819291549060031b9160018060a01b03809116831b921b1916179055565b908152602081019190915260400190565b6040516323b872dd60e01b60208201526001600160a01b03928316602482015292909116604483015260648083019390935291815260a08101918183106001600160401b03841117612625576127b892604052612d01565b908160209103126103c85761290d906129d6565b15612ca957565b60405162461bcd60e51b815260206004820152602a60248201527f5361666545524332303a204552433230206f7065726174696f6e20646964206e6044820152691bdd081cdd58d8d9595960b21b6064820152608490fd5b6040516001600160a01b039190911691612d1a8261267c565b6020928383527f5361666545524332303a206c6f772d6c6576656c2063616c6c206661696c656484840152803b15612d915760008281928287612d6c9796519301915af1612d66612dd6565b90612e15565b80519081612d7957505050565b826127b893612d8c938301019101612c8e565b612ca2565b60405162461bcd60e51b815260048101859052601d60248201527f416464726573733a2063616c6c20746f206e6f6e2d636f6e74726163740000006044820152606490fd5b3d15612e10573d906001600160401b0382116126255760405191612e04601f8201601f191660200184612697565b82523d6000602084013e565b606090565b90919015612e21575090565b815115612e315750805190602001fd5b60405162461bcd60e51b8152908190611d4790600483016126ba565b519060068210156103c857565b90816101409103126103c857612e6e6127f4565b9080518252602081015160208301526040810151604083015260608101516060830152612e9d60808201612e4d565b608083015260a081015160a083015260c081015160c083015260e081015160e08301526101008082015190830152610120809101519082015290565b60061115612ee357565b634e487b7160e01b600052602160045260246000fd5b604081019291600191602091612f0e81612ed9565b81520152565b612f25610c0a610c0a600554610409565b60405163023c4c9f60e61b81526004810183905261014092918390829060249082905afa928315610a3157600093613011575b5050602082015160035403612ff757506080810160018151612f7981612ed9565b612f8281612ed9565b03612fbe575060408101514210908115612fb0575b50612f9e57565b60405163ad6e54d160e01b8152600490fd5b606091500151421138612f97565b611d479051612fcc81612ed9565b612fd581612ed9565b612fde81612ed9565b604051632b20c54160e21b815291829160048301612ef9565b60405163376cc6d960e21b81526004810191909152602490fd5b613028929350803d10611d8e57611d7f8183612697565b903880612f58565b9061010060079161304a6130448251610409565b85612948565b6020810151600185015560408101516002850155606081015160038501556080810151600485015560a08101516005850155612be3600685016130a561309360c0850151151590565b829060ff801983541691151516179055565b60e0830151151590612b64565b9060405191828154918282526020928383019160005283600020936000905b8282106130e7575050506127b892500383612697565b85546001600160a01b0316845260019586019588955093810193909101906130d1565b60001981146104045760010190565b8051821015610b225760209160051b010190565b9190820391821161040457565b60405163a9059cbb60e01b60208201526001600160a01b0390921660248301526044808301939093529181526127b8916131738261262a565b612d01565b613183601154610409565b6001600160a01b03818116330361327257821561324c57604051630552d03960e01b8152602081600481305afa908115610a3157600091613254575b50831161324c57613212837f0d3d39d2e8c36b7d51502996d12a5d4241e34106d9cabb4193737b56fc502cdb937f000000000000000000000000000000000000000000000000000000000000000061313a565b61322661322184600c5461279e565b600c55565b613231601154610409565b6132446040519283921694429083612c25565b0390a2600190565b505050600090565b61326c915060203d8111610e6557610e568183612697565b386131bf565b6040516282b42960e81b8152600490fd5b6011549091906001600160a01b0316330361327257600c54820361332357600654918183018093116104045781613309916132de7f9a7b261fa2469a5fa3d82802a372dccf31c7d17bf11d8aa80e1ca65aba8349fc95600655565b6132f26132ed83600d5461279e565b600d55565b6132fc6000600c55565b613304613941565b61279e565b9061331b604051928392429184612967565b0390a1600190565b5050600090565b9190613338611506846105c1565b92613345611506826105d1565b90600091825b86518110156133c15761336d613360846105a1565b61154a61153d848b613119565b60018101908661337e83548861279e565b1115613395575b50506133909061310a565b61334b565b946133b9916133b26004613390959801600160ff19825416179055565b549061279e565b939038613385565b50945060009150815b85518310806135a5575b1561359d576133f26133e5836105e1565b61154a61153d868a613119565b90866133fe828761312d565b9260018101938454801561358e5787939291908110613478575061346361345b61164b61153d61346c9796613472999686613445600660059901600160ff19825416179055565b8854600482015560028101549788910155613119565b91825461279e565b9055549061279e565b9261310a565b916133ca565b92509250926006613492818501600160ff19825416179055565b82600485015560028401936134c961164b61153d8a6134bd6134b5898b5461278b565b885490612b35565b998a6005870155613119565b6134d487825461279e565b90556134e184845461312d565b6134ec87875461312d565b928161352b575b505081613509575b50505555613472839261310a565b611665611633613522926121d96116218660075461312d565b905538806134fb565b6116a182613539925461312d565b6135478161158d8454610409565b876000805160206139db83398151915261358460018060a01b0361356b8654610409565b6040805196875260006020880152911694918291820190565b0390a338806134f3565b5050505092613472915061310a565b505050509050565b508381106133d4565b906135b8826105b1565b906135db600483015460056135d26109f8601a548461278b565b9283809361312d565b94015580613753575b6006936135f56116a185875461279e565b6136096136048560095461279e565b600955565b613615611506826105d1565b92600092835b855181101561368f5761364988613641613634876105e1565b61154a61153d868c613119565b015460ff1690565b61365c575b6136579061310a565b61361b565b9361368761365791600161367f613672886105e1565b61154a61153d8b8d613119565b01549061279e565b94905061364e565b5092959094919395806136ce575b5050600080516020613a7b833981519152929394506136ba613941565b6136c960405192839283612c25565b0390a2565b929460009491945b87518110156137345761370d906136fc6136ef856105e1565b61154a61153d848d613119565b8088015460ff16613712575061310a565b6136d6565b600361372b8861372660018501548a61278b565b612b35565b910155386115f8565b50955085949093509150600080516020613a7b8339815191523861369d565b6137628161158d601054610409565b6135e4565b90613774611506836105c1565b91613781611506826105d1565b60005b845181101561385f576137cc906137aa61379d856105a1565b61154a61153d848a613119565b600481016137c06137bc825460ff1690565b1590565b6137d1575b505061310a565b613784565b805461ff001916610100179055846000805160206139db8339815191526138556138306137fe8554610409565b946121d960028201968754907f000000000000000000000000000000000000000000000000000000000000000061313a565b935460408051918252600160208301526001600160a01b039095169490918291820190565b0390a338806137c5565b50925060005b835181101561393b576138ae9061388b61387e846105e1565b61154a61153d8489613119565b836006918281016138a06137bc825460ff1690565b6138b3575b5050505061310a565b613865565b805461ff0019166101001790556000805160206139db8339815191529061392f906001810154946138ed6116a1876002850154935461312d565b6138fc6116218260075461312d565b61390c6116656116338454610409565b905561391c8561158d8354610409565b546001600160a01b039061356b90610409565b0390a3388381806138a5565b50509050565b600a54600754908161397c575b600080516020613a5b833981519152915042600b55600a54613977604051928392429184612967565b0390a1565b600654670de0b6b3a76400009081810291818304149015171561040457600080516020613a5b833981519152926139b291612b35565b600a5561394e56fe2f8788117e7eff1d82e926ec794901d17c78024a50270940304540a733656f0dc1bc4f974e5061abc560586bc9dfe863303c12c1de5f0929fb9d8fc0b065360a300f9ae985dc711960f7a4d1dd013f9c19ecf40bff149522ab7523b2187a384697667070c54ef182b0f5858b034beac1b6f3089aa2d3188bb1e8929f4fa9b92965d7a28e3265b37a6474929f336521b332c1681b933f6cb9f3376673440d862a4a7e8371416dd0c85cd9eb775560608929438aca1e3b356f39b7868aa76dc807dff07d60ea4ca1288ec4e8b94e2f74ac3671226f2ce03ddd00f3b44c96c96589a2646970667358221220b188b4ee6911b92580c20b2667f2dbf8b66bd399ed28bd3fd8c5b51a9903712e64736f6c634300081400332f8788117e7eff1d82e926ec794901d17c78024a50270940304540a733656f0d537472696e67733a20686578206c656e67746820696e73756666696369656e74416363657373436f6e74726f6c3a206163636f756e742000000000000000000097667070c54ef182b0f5858b034beac1b6f3089aa2d3188bb1e8929f4fa9b92965d7a28e3265b37a6474929f336521b332c1681b933f6cb9f3376673440d862aa26469706673582212209f6c48cc5a294205104cc80b9150b2d71d75fc8ee7baa542052b8b2d29d6010b64736f6c634300081400332f8788117e7eff1d82e926ec794901d17c78024a50270940304540a733656f0d",
  "linkReferences": {},
  "deployedLinkReferences": {}
}